:100000000C9462000C94E60D0C94BF0D0C948A00C5
:100010000C948A000C948A000C948A000C948A0038
:100020000C948A000C948A000C948A000C948A0028
:100030000C948A000C948A000C948A000C948A0018
:100040000C94750D0C948A000C945D0C0C94370C78
:100050000C948A000C948A000C948A000C948A00F8
:100060000C948A000C948A000000000023002600F3
:10007000290000000008000201000003040700003E
:1000800000000000000000000000250028002B00F8
:1000900000000000240027002A00010204081020AC
:1000A000408001020408102001020408102004040A
:1000B0000404040404040202020202020303030310
:1000C00003032C1E11241FBECFEFD8E0DEBFCDBF2F
:1000D00014E0A0E0B1E0E6E9F4E402C005900D927E
:1000E000A430B107D9F725E0A4E0B4E001C01D9227
:1000F000A13DB207E1F710E0C2E6D0E004C02197CD
:10010000FE010E94F01EC136D107C9F70E94D91620
:100110000C9449220C940000CF93DF931F92CDB72B
:10012000DEB76983DC01ED91FC910280F381E02D63
:1001300041E050E0BE016F5F7F4F09950F90DF9166
:10014000CF910895DC01ED91FC91048CF58DE02DAB
:10015000099591E089270895862F089581E08627E3
:10016000089580E3FB0180833296842F82958F70FF
:1001700090E1899F401911244A3014F4405D01C078
:10018000495C4293482F8111F0CF089544E050E03C
:10019000BC018FE090E00C94780E08958CBD9DBD5D
:1001A00008958F929F92AF92BF92CF92DF92EF927B
:1001B000FF920F931F93CF936C015B017A01FC01B7
:1001C000C485C43041F481E090E0F60193838283DA
:1001D00080E090E04EC08A014130584010F000E0CD
:1001E00018E080E590E00E94CE008C2F0E947A14E7
:1001F0004C0163E070E08C2F0E945F10873111F09A
:100200008C3121F48016910660F302C000E010E00A
:1002100080E590E00E94CE009801A50160E070E0CA
:100220008C2F0E94151460E270E08C2F0E949016B3
:1002300062E070E08C2F0E945F1084FD10C063E0CC
:1002400070E08C2F0E945F10811104C08C2F0E94DF
:10025000C00AB9CF80E590E00E94CE00E9CF40E12E
:1002600062E070E08C2F0E945510012B09F4ABCF97
:10027000C701CF911F910F91FF90EF90DF90CF902A
:10028000BF90AF909F908F900895CF92DF92FF9292
:100290000F931F93CF93DF93FC012485243009F043
:1002A00077C06A01EB018C01F12C8F2D0E94D40ADA
:1002B000811103C0F801F48607C08B7F8831D1F328
:1002C000F394F4E0FF12F1CFF8018485843009F44F
:1002D0005FC020910001309101012F5F3F4F11F469
:1002E00020E030EC309301012093000140910001A7
:1002F0005091010120E061E00E94C90EF801F484F0
:100300008A818F3F51F48B818F3F91F48C818F3F95
:1003100079F48D818F3F61F438C0811109C08B81E0
:10032000811106C08C81811103C08D81882369F100
:10033000C114D10451F180E590E00E94CE00BE01CD
:100340006E5F7F4F8F2D90E0982F882744E050E01C
:10035000845F9B4F0E94780EB6018F2D0E948510FE
:1003600064E070E08F2D0E949016C8010E949610E4
:10037000873189F061E070E080E090E00E942F0D0D
:10038000C8010E9496108111F0CF84E0F8018487A3
:1003900080E090E002C081E090E0DF91CF911F917A
:1003A0000F91FF90DF90CF9008952F923F924F9240
:1003B0005F926F927F928F929F92AF92BF92CF92F5
:1003C000DF92EF92FF920F931F93CF93DF93CDB7FE
:1003D000DEB765970FB6F894DEBF0FBECDBF7C01C8
:1003E0006B013A01FB0120E080E090E06AE031918E
:1003F000332309F140ED430F4A3080F4689FA00198
:10040000699F500D1124CA01C097830F911D37FDBC
:100410009A958F3F910559F350F313C03E3289F4FA
:10042000233079F0D301A20FB11D12968C932F5F68
:1004300080E090E0DCCF233021F4F301858381E07C
:1004400021C0F701428153816481758180918B05C0
:1004500090918C05A0918D05B0918E054817590794
:100460006A077B0709F49EC10E94690D8701085F36
:100470001F4F6F7077277C5FC8010E94DE0F8130AD
:1004800019F080E090E0F3C18CED91E09A838983CC
:10049000F70182819381A481B5818B839C83AD8395
:1004A000BE8345E350E0BE016F5F7F4FC8010E94ED
:1004B0008308892B19F4C12CD12C6FC10E94690DBE
:1004C000F701778366837627672776277A836983A0
:1004D00042E050E0BE016F5F7F4FC8010E943A09C1
:1004E00081E090E09E878D8742E050E0BE01635F2F
:1004F0007F4FC8010E943A0980E091E09E878D8776
:1005000042E050E0BE01635F7F4FC8010E943A099C
:100510001E861D8642E050E0BE01635F7F4FC8012A
:100520000E943A0942E050E0BE01635F7F4FC8017C
:100530000E943A0942E050E0BE01635F7F4FC8016C
:100540000E943A095601F5018081882311F1F601D4
:100550005F018191811115C045018C189D08181407
:10056000190494F48F8641E050E0BE01615F7F4F33
:10057000C8010E943A09A401B601C8010E943A09C3
:1005800003C08E3229F7E8CF6501FFEFCF1ADF0AEB
:10059000DACF1F8641E050E0BE01615F7F4FC801A6
:1005A0000E943A09C12CDD24D394DE86CD8642E038
:1005B00050E0BE01635F7F4FC8010E943A09DE86AA
:1005C000CD8642E050E0BE01635F7F4FC8010E94CC
:1005D0003A09C8010E944B08892B09F46CCF63E0EB
:1005E000A62EB12CF2E06F0E711C0E94690D1B014A
:1005F0002C01C8010E94670A18161906A4F00E946F
:10060000690DDC01CB0182199309A409B509893868
:100610009341A105B105D0F462E370E080E090E081
:100620000E942F0DE6CFF7014281538164817581CD
:10063000808D918DA28DB38D481759076A077B076E
:1006400041F4848D958DC59721F406C02FEF3FEFBF
:100650009AC02EEF3FEF97C0F70181A192A10C97AE
:100660000CF4A6C04CE050E0BE016F5F7F4FC801A4
:100670000E941F0A8B8190E0982F88272C81822B63
:100680009A8B898B298130E0322F22274A81242BB3
:10069000F701468157814217530709F086C097FF3B
:1006A00084C08F709270892B09F0DEC0CF80D12C6E
:1006B000DC2CCC248885C82AC114D10409F4D1C00B
:1006C000812C912C8D8190E0982F88272E81822B70
:1006D0008816990608F46FC0812C912C41E050E0F7
:1006E000BE016D5E7F4FC8010E941F0A8B89982F43
:1006F000907C09F093C0811186C08B898111EECF67
:1007000042E050E0BE01615F7F4FC8010E941F0AB6
:1007100042E050E0BE01635F7F4FC8010E941F0AA4
:10072000C8010E943E0AC8010E943E0AC8010E94F8
:100730003E0AC8010E943E0A42E050E0BE016F5EE0
:100740007F4FC8010E941F0A8F85988981159140AB
:1007500009F069C02D853E853227232732272130B5
:10076000310509F060C089899A898115944009F0A2
:1007700075C044E050E0B301C8012C8B3D8B0E9452
:100780001F0A2C893D896901F1E0AF1AB10829F0EF
:100790002FEFC216D20609F428CFC8010E94C90F54
:1007A000C60165C08EEF9FEF62C02CEF3FEFEBCF2D
:1007B0002DEF3FEFE8CF41E050E0BE01635F7F4F98
:1007C000C8010E941F0A8D85811113C08D8581117A
:1007D000F2CFC8010E943E0AC8010E943E0AC80129
:1007E0000E943E0AC8010E943E0AFFEF8F1A9F0A2C
:1007F00069CF8D859FEF980F9D87882339F3C801B6
:100800000E943E0AF6CF8B899FEF980F9B8B88231F
:1008100009F473CFC8010E943E0AF5CFC8010E94B7
:100820003E0A1B8A6ACF412C512C89899A899827C4
:10083000892798274816590638F4C8010E943E0AAD
:100840008FEF481A580AF1CFEFEF8E1A9E0A8C14D8
:100850009D0409F043CF26EF3FEF95CF27EF3FEF01
:1008600092CF2AEF3FEF8FCF2BEF3FEF8CCF6596E4
:100870000FB6F894DEBF0FBECDBFDF91CF911F91B1
:100880000F91FF90EF90DF90CF90BF90AF909F902F
:100890008F907F906F905F904F903F902F90089532
:1008A000CF92DF92EF92FF920F931F93CF93DF933C
:1008B000CDB7DEB7AF970FB6F894DEBF0FBECDBF92
:1008C0007C016A010CED11E01A8309831C861B86EA
:1008D00088EE93E0A0E0B0E08D879E87AF87B88B6D
:1008E0008EE391E09A878987188F0F8B198E1A8E65
:1008F0001B8E1C8E84E089A31DA30CA31EA21FA225
:1009000018A619A68091830590918405A09185056C
:10091000B09186058CA79DA7AEA7BFA78B839C83AC
:10092000AD83BE8318861F82AE014C5D5F4FCE0142
:1009300001960E94D50181309105B1F4D701ED9166
:10094000FC910484F585E02D1BA70AA78EA19FA129
:10095000A8A5B9A58CA79DA7AEA7BFA7A601BE0154
:10096000665D7F4FC7010995AF960FB6F894DEBF5D
:100970000FBECDBFDF91CF911F910F91FF90EF90F0
:10098000DF90CF9008952F923F924F925F926F9297
:100990007F928F929F92AF92BF92CF92DF92EF920F
:1009A000FF920F931F93CF93DF93CDB7DEB7E397FB
:1009B0000FB6F894DEBF0FBECDBF7C011A012B012C
:1009C00039010E94690D4B015C0187010D5B1F4FCE
:1009D000C8010E94670A18161906A4F00E94690D42
:1009E000DC01CB0188199909AA09BB092816390627
:1009F0004A065B06D8F062E370E080E090E00E9477
:100A00002F0DE6CF42E250E0BE016F5F7F4FC8017D
:100A10000E941F0A8981823011F080E061C1F801D3
:100A20008489958983349105C1F702C08FEF58C13D
:100A30006D817E818F8198850E94E21E4B015C0151
:100A4000F301608371838283938346E050E0B701B2
:100A5000685F7F4FCE014D960E94F220892BE9F608
:100A6000F70180819181A281B38188169906AA0637
:100A7000BB0698F284819581A681B7818815990576
:100A8000AA05BB0550F289899A89AB89BC898687FA
:100A90009787A08BB18B8EECA82EB12CC8010E9439
:100AA0003E0AF1E0AF1AB108C9F719A6670182E260
:100AB000C80ED11CF701B696FBA7EAA7C7018A9614
:100AC0009DA78CA73C974F0189969FA78EA7389723
:100AD000F9ABE8AB1701F6E12F0E311CC5979BABC4
:100AE0008AABF801818D928D181619060CF0F7C0AB
:100AF000C8010E943E0A8333910509F4CBC0FCF47F
:100B000081309105C9F11CF4892B59F3DCC0833085
:100B10009105D1F1069709F0D6C0C8010E943E0A9E
:100B20005C0144E050E06AA97BA9C8010E941F0A49
:100B3000412C512CBB24F4E0AF1AB10840C08A33D9
:100B4000910509F47BC03CF48533910569F0C697A3
:100B500009F440C0B8C08B33910509F485C08F3FBC
:100B6000910509F4BECFAFC0C8010E943E0AC8017A
:100B70000E943E0A89A7B5CFC8010E943E0A44E000
:100B800050E068A979A93AC0C8010E943E0A5C01F8
:100B900044E050E0B101C8010E941F0A412C512CD1
:100BA000BB2494E0A91AB1084A145B040CF099CF55
:100BB000C8010E943E0AEFEF4E1A5E0AF5CF4A14B2
:100BC0005B040CF08ECFC8010E943E0A8FEF481ADA
:100BD000580AF5CFC8010E943E0AB82EF701828D4F
:100BE000811110C0838D81110DC0848D81110AC0C7
:100BF000858D811107C044E050E0B401C8010E9416
:100C00001F0A6FCFEEA5FFA54080518062807380E0
:100C1000B401CE0183960E94270C8DA19EA1AFA1A5
:100C2000B8A584159505A605B70529F3BB2009F4D9
:100C300058CFC8010E943E0ABA94F8CFC8010E945A
:100C40003E0A44E050E06AA57BA5C8010E941F0A45
:100C5000F70166A177A180A591A50E94E21E66A377
:100C600077A380A791A73DCFC8010E943E0A44E028
:100C700050E06CA57DA5C8010E941F0AF70162A57E
:100C800073A584A595A50E94E21E62A773A784A7F9
:100C900095A727CFC8010E943E0A44E050E0B60164
:100CA000C8010E941F0AF70162A173A184A195A146
:100CB0000E94E21E62A373A384A395A366A777A7ED
:100CC00080AB91AB0ECFC8010E943E0AB82EBB206C
:100CD00009F407CFC8010E943E0ABA94F8CF89A54B
:100CE000E3960FB6F894DEBF0FBECDBFDF91CF9174
:100CF0001F910F91FF90EF90DF90CF90BF90AF903A
:100D00009F908F907F906F905F904F903F902F902B
:100D100008957F928F929F92AF92BF92CF92DF926F
:100D2000EF92FF920F931F93CF93DF93CDB7DEB770
:100D3000A6970FB6F894DEBF0FBECDBF8C01762EFE
:100D4000942E852E20E2B22ECE0101967C01FC016C
:100D50002B2D11922A95E9F78CED91E09AA389A3A6
:100D60008FEF8BA38CA38DA38EA3680183E4C80EA1
:100D7000D11C43E450E0BE016F5D7F4FC6010E946D
:100D80008308019609F4BFC081E089838A8386E0E5
:100D9000A82EAB821C82F8016481758186819781BF
:100DA0000E94E21E6D837E838F83988789869A8650
:100DB00080E890E09C878B874CE150E0B701C6014A
:100DC0000E943A09F7012B2D11922A95E9F7480163
:100DD00088E0880E911CF401D70101900D92AA942D
:100DE000E1F740E150E0B701C6010E943A09F7017E
:100DF0001192BA94E9F796E0A92EB12C40E250E0A6
:100E0000B701C6010E943A09F1E0AF1AB108B1F783
:100E100083E6898392E89A8393E59B838C8385E3B9
:100E20008D8381E08E837F829DE3988797E0998709
:100E30008A8786E0F401DE011B9601900D928A9567
:100E4000E1F78CE0898B8A8B6DEF73E0CE014396DE
:100E50000E940821F8014385BE01675E7F4FC801EB
:100E60000E94B100F8014485BE01655E7F4FC80154
:100E70000E94B100F8014585BE01635E7F4FC80145
:100E80000E94B1004EE150E0B701C6010E943A094C
:100E9000F3E07F121EC082E3898384E08A83F80135
:100EA00096859B8397859C8390899D8391899E835A
:100EB00096E39F838887828D8987838D8A87848D37
:100EC0008B87858D8C874CE050E0B701C6010E946E
:100ED0003A0987E3898386E08A8391E09B8393E0E4
:100EE0009C838D838FE08E838AE38F838BE3888757
:100EF0008FEF898749E050E0B701C6010E943A09A7
:100F0000C6010E944B08A6960FB6F894DEBF0FBE2E
:100F1000CDBFDF91CF911F910F91FF90EF90DF90A8
:100F2000CF90BF90AF909F908F907F900895EF9259
:100F3000FF920F931F93CF93DF93082F1091960585
:100F40009AE0F92E28E2E22E17FD67C061E0809159
:100F500093050E94B80C80919405909195050E948C
:100F6000240D60E0809193050E94B80C20919405B7
:100F700030919505A90156954795F29EC001F39EC3
:100F8000900D1124840F951F0E94240DC9E1D0E01B
:100F900080918F0590919005A0919105B091920557
:100FA0000C2E04C0B695A795979587950A94D2F70D
:100FB00081700E94D815219758F780E00E94D815BB
:100FC000802F0E94D81580E00E94D81580E00E94F2
:100FD000D81580E00E94D81580E00E94D81561E005
:100FE000809193050E94B80C80919405909195058D
:100FF0000E94240D60E0809193050E94B80C8091BE
:101000009405909195059C01E29EC001E39E900D90
:1010100011240E94240D115097CF64E670E080E007
:1010200090E00E942F0D64E670E080E090E0DF9198
:10103000CF911F910F91FF90EF900C942F0D6115A0
:10104000710579F0FB0101900020E9F73197AF01BC
:10105000461B570BDC01ED91FC910280F381E02DE2
:10106000099480E090E008950895CF93DF931F9254
:10107000CDB7DEB76983DC01ED91FC910280F3818D
:10108000E02D41E050E0BE016F5F7F4F09950F906A
:10109000DF91CF910895CF93FC01C08D80E590E062
:1010A0000E94CE0060E270E08C2F0E94901662E0F9
:1010B00070E08C2F0E945F1084FD19C062E070E028
:1010C0008C2F0E945F1083FF0BC048E162E070E04C
:1010D0008C2F0E9455100E94CD0080E090E011C03E
:1010E0000E94CD0080E590E00E94CE00E0CF40E17C
:1010F00062E070E08C2F0E9455100E94CD0081E0CC
:1011000090E0CF910895FF920F931F93CF93DF93B9
:10111000FB01DC0157961C921E9256975896FC9044
:101120008281811109C08381811106C0848181116E
:1011300003C085818823F9F041155105E1F08A014A
:10114000EF0180E590E00E94CE00BE016E5F7F4F10
:101150002F2D30E0922F882744E050E0845F9B4F92
:101160000E94780EB8018F2D0E9485100E94CD003C
:1011700081E090E002C080E090E0DF91CF911F918C
:101180000F91FF900895BF92CF92DF92EF92FF925E
:101190000F931F93CF93DF9300D000D000D0CDB733
:1011A000DEB7FC01208D243009F053C06A017B01B9
:1011B0008C01B12C63E070E08B2D0E945F108111D7
:1011C00003C0F801B08E06C08831D9F3B394F4E0BF
:1011D000BF12F0CFF801808D8430D9F196E0E0EABB
:1011E000F1E0DE01119601900D929A95E1F7F70179
:1011F00093819F779C8394819D8395819E83B70182
:101200006E5F7F4F90E0982F882744E050E0845F26
:101210009B4F0E94780EB601F801808D0E948510C8
:10122000F801808D90E0982F882746E050E0BE01BD
:101230006F5F7F4F8A5F9B4F0E94780EF801128E7E
:10124000118E20E8A60162E0808D0E94C90E81E027
:1012500001C080E026960FB6F894DEBF0FBECDBF6A
:10126000DF91CF911F910F91FF90EF90DF90CF9082
:10127000BF900895AF92BF92CF92DF92FF920F93EB
:101280001F93CF93DF938C015B01EA01FC01C688B9
:10129000D788F08C80E590E00E94CE008F2D0E94D0
:1012A0007A148C179D0720F48F2D0E947A14EC017C
:1012B0009E01A501B6018F2D0E9415140E94CD003C
:1012C000F801868997898C0F9D1F978B868BCE019D
:1012D000DF91CF911F910F91FF90DF90CF90BF9042
:1012E000AF9008951F93CF93DF9300D0CDB7DEB7B3
:1012F000182F80E590E069837A830E94CE0021E078
:1013000041E050E069817A81812F0E94AD130E94F3
:10131000CD0081E090E00F900F90DF91CF911F9171
:101320000895CF93DF931F92CDB7DEB7FC01218DD7
:10133000328D232B49F0BE016F5F7F4F808D0E945D
:101340007209898190E002C08FEF9FEF0F90DF91CB
:10135000CF910895FF920F931F93CF93DF93F82EB1
:1013600080E590E00E94CE00C0E0D0E08F2D0E948A
:10137000110E8C01892B21F08F2D0E94110EEC0192
:10138000C017D10799F70E94CD00CE01DF91CF9110
:101390001F910F91FF900895AF92BF92CF92DF926D
:1013A000EF92FF921F93CF93DF93182F5B017A0187
:1013B00080E590E00E94CE00C0E0D0E0812F0E9446
:1013C000110E6C01892B21F0812F0E94110EEC016E
:1013D000CC15DD0599F7209799F463E070E0812F33
:1013E0000E945F108431F1F08823E1F0C1E0D0E089
:1013F0008C3111F4C0E0D0E0D195C195D10912C073
:10140000EC16FD060CF4E7011C161D065CF420E04A
:10141000AE01B501812F0E94AD1360E470E0812F11
:101420000E9490160E94CD00CE01DF91CF911F91B6
:10143000FF90EF90DF90CF90BF90AF900895CF9343
:10144000DF93FC01218D328D2115310519F48FEFC9
:101450009FEF11C0EC014217530708F0A901888DD6
:101460000E94CC091816190694F7298D3A8D281B6D
:10147000390B3A8F298FDF91CF9108950F931F93E6
:10148000CF93DF931F92CDB7DEB7FC01218D328D54
:10149000232B61F08C0141E050E0BE016F5F7F4F74
:1014A000808D0E94CC09181619061CF08FEF9FEF53
:1014B00008C0F801818D928D0197928F818F89816B
:1014C00090E00F90DF91CF911F910F9108950F93AE
:1014D0001F93CF93DF93CDB7DEB728970FB6F8945D
:1014E000DEBF0FBECDBF8C01F801818D928D892B9F
:1014F00049F0D801ED91FC910680F781E02DC801FB
:101500000995F2CF808D0E94AA09181619065CF57C
:1015100048E050E0BE016F5F7F4FD80158968C9134
:101520000E94CC099C0118161906DCF489819A8165
:10153000AB81BC81F801808B918BA28BB38B8D81A9
:1015400090E0982F88272E81820F911D958B848B98
:101550002F8130E0322F22278885280F311D328FCE
:10156000218FC90102C080E090E028960FB6F89460
:10157000DEBF0FBECDBFDF91CF911F910F910895B8
:10158000CF93C82F80E590E00E94CE0060E170E02C
:101590008C2F0E9490164FEF62E070E08C2F0E941B
:1015A0005510CF910C94CD001F93CF93DF931F92D2
:1015B000CDB7DEB7182F80E590E00E94CE0063E043
:1015C00070E0812F0E945F1089830E94CD00898185
:1015D0000F90DF91CF911F910895FC01918D828D25
:1015E000981761F0828DDF01A80FB11D5D968C9177
:1015F000928D9F5F9F73928F90E008958FEF9FEF82
:101600000895FC01918D828D981731F0828DE80F3D
:10161000F11D858D90E008958FEF9FEF0895FC01F7
:10162000918D228D892F90E0805C9F4F821B9109C4
:101630008F73992708958CE994E00E940F0B21E0A5
:10164000892B09F420E0822F0895FC01848DDF01AD
:10165000A80FB11DA35ABF4F2C91848D90E0019625
:101660008F739927848FA689B7892C93A089B18914
:101670008C9180648C93938D848D981306C002881E
:10168000F389E02D80818F7D80830895EF92FF9212
:101690000F931F93CF93DF93EC0181E0888F9B8D95
:1016A0008C8D981305C0E889F989808185FD24C057
:1016B000F62E0B8D10E00F5F1F4F0F731127E02EDA
:1016C0008C8DE8120CC00FB607FCFACFE889F989B7
:1016D000808185FFF5CFCE010E94250BF1CF8B8D48
:1016E000FE01E80FF11DE35AFF4FF0820B8FEA89EC
:1016F000FB898081806207C0EE89FF896083E88969
:10170000F98980818064808381E090E0DF91CF91CE
:101710001F910F91FF90EF900895CF93DF93EC010D
:10172000888D8823C9F0EA89FB89808185FD05C001
:10173000A889B9898C9186FD0FC00FB607FCF5CF3B
:10174000808185FFF2CFA889B9898C9185FFEDCF83
:10175000CE010E94250BE7CFDF91CF91089580E065
:1017600090E0892B29F00E941B0B81110C94000042
:1017700008953FB7F8948091870490918804A091D0
:101780008904B0918A0426B5A89B05C02F3F19F0A3
:101790000196A11DB11D3FBFBA2FA92F982F8827F1
:1017A000820F911DA11DB11DBC01CD0142E0660F4C
:1017B000771F881F991F4A95D1F7089508958F9232
:1017C0009F92AF92BF92CF92DF92EF92FF920F93D0
:1017D0001F93CF93DF937C018B016C0182E0C80ED5
:1017E000D11C4701E5E08E0E911CC0E0D0E0F6016F
:1017F00041916F0150E060E070E02AE0C8010E9472
:101800004A155C016EE2C8010E94A7158A0D9B1D56
:10181000C80FD91FC814D90451F7F701458150E00A
:1018200060E070E02AE0C8010E944A158C0F9D1FFD
:10183000DF91CF911F910F91FF90EF90DF90CF90AC
:10184000BF90AF909F908F9008950E94ED202CED57
:1018500031E0FC0131832083FB01408151816281B1
:101860007381FC01428353836483758308951F92BF
:101870000F920FB60F9211242F933F934F935F93C4
:101880006F937F938F939F93AF93BF93EF93FF9348
:101890008CE994E00E94250BFF91EF91BF91AF91ED
:1018A0009F918F917F916F915F914F913F912F9178
:1018B0000F900FBE0F901F9018951F920F920FB6AA
:1018C0000F9211242F938F939F93EF93FF93E091A7
:1018D000AC04F091AD048081E091B204F091B304C6
:1018E00082FD12C090818091B5048F5F8F7320912B
:1018F000B604821751F0E091B504F0E0E456FB4FD6
:10190000958F8093B50401C08081FF91EF919F91E5
:101910008F912F910F900FBE0F901F9018958330CD
:1019200081F028F4813099F08230A1F00895873059
:10193000A9F08830B9F08430D1F4809180008F7D97
:1019400003C0809180008F7780938000089584B5D4
:101950008F7702C084B58F7D84BD08958091B000DB
:101960008F7703C08091B0008F7D8093B000089581
:101970001F93CF93DF93282F30E0F901EE58FF4FEC
:101980008491F901E656FF4FD491F901E255FF4FDA
:10199000C491CC23C9F0162F81110E948F0CEC2F1B
:1019A000F0E0EE0FFF1FEA57FF4FA591B4918FB7FC
:1019B000F894111105C09C91ED2FE095E92302C028
:1019C000EC91ED2BEC938FBFDF91CF911F91089598
:1019D000CF93DF9390E0FC01E656FF4F2491FC018A
:1019E000E255FF4F8491882361F190E0880F991FA1
:1019F000FC01E057FF4FC591D491FC01EA57FF4F1E
:101A0000A591B491611109C09FB7F8948881209580
:101A100082238883EC912E230BC0623061F49FB740
:101A2000F8943881822F809583238883EC912E2B24
:101A30002C939FBF06C08FB7F894E8812E2B288384
:101A40008FBFDF91CF9108958230910538F0880FD4
:101A5000991F880F991F05970197F1F708958F92A5
:101A60009F92AF92BF92CF92DF92EF92FF926B0163
:101A70007C010E94B90B4B015C01C114D104E1044B
:101A8000F104F1F00E94B90BDC01CB01881999092E
:101A9000AA09BB09883E9340A105B10570F321E076
:101AA000C21AD108E108F10888EE880E83E0981E7A
:101AB000A11CB11CC114D104E104F10419F7DDCF5C
:101AC000FF90EF90DF90CF90BF90AF909F908F905E
:101AD00008952FB7F89460918304709184048091E5
:101AE0008504909186042FBF08951F920F920FB620
:101AF0000F9211242F933F938F939F93AF93BF9394
:101B00008091830490918404A0918504B09186040F
:101B10003091820423E0230F2D3720F40196A11D7C
:101B2000B11D05C026E8230F0296A11DB11D20930B
:101B300082048093830490938404A0938504B093DB
:101B400086048091870490918804A0918904B091C3
:101B50008A040196A11DB11D809387049093880487
:101B6000A0938904B0938A04BF91AF919F918F9104
:101B70003F912F910F900FBE0F901F9018951F92BD
:101B80000F920FB60F9211242F933F934F935F93B1
:101B90006F937F938F939F93AF93BF93EF93FF9335
:101BA000E0910401F09105010995FF91EF91BF913A
:101BB000AF919F918F917F916F915F914F913F91E5
:101BC0002F910F900FBE0F901F9018951F920F929C
:101BD0000FB60F9211242F933F934F935F936F9300
:101BE0007F938F939F93AF93BF93EF93FF93E09176
:101BF0000201F09103010995FF91EF91BF91AF911F
:101C00009F918F917F916F915F914F913F912F9114
:101C10000F900FBE0F901F9018952A9A08952A983A
:101C200008951F93CF93DF93182F66E270E00E9410
:101C30005F10C82FD0E067E270E0812F0E945F1034
:101C4000DC2FCC279E01282BC901DF91CF911F915A
:101C500008951F93CF93DF93182F60E270E00E94E6
:101C60005F10C82FD0E061E270E0812F0E945F100A
:101C7000DC2FCC279E01282BC901DF91CF911F912A
:101C800008958EBD00000DB407FEFDCF8EB50895FA
:101C9000CF92DF92EF92FF920F931F93CF93DF9338
:101CA000EC017A018B016C01C40ED51ECC15DD054B
:101CB000A9F00E940F0E8FE00E94410E8D2F0E940E
:101CC000410E8C2F0E94410E219680E00E94410E11
:101CD000F80181938F010E940D0EE8CFC701DF91BB
:101CE000CF911F910F91FF90EF90DF90CF900895CB
:101CF000CF92DF92EF92FF920F931F93CF93DF93D8
:101D0000EC017A018B016C01C40ED51ECC15DD05EA
:101D1000A1F00E940F0E80EF0E94410E8D2F0E94B5
:101D2000410E8C2F0E94410E2196F80181918F0166
:101D30000E94410E0E940D0EE9CFC701DF91CF91A5
:101D40001F910F91FF90EF90DF90CF9008951F9318
:101D5000CF93DF9300D0CDB7DEB7182F6A83998376
:101D60000E940F0E80EF0E94410E9981892F0E94E0
:101D7000410E812F0E94410E6A81862F0E94410EE2
:101D80000E940D0E81E00F900F90DF91CF911F9177
:101D90000895FF920F931F93CF93DF9300D0CDB799
:101DA000DEB7F82E8A012A8369830E94C00A80E583
:101DB00090E00E94CE002A816981462F422B60E08C
:101DC00070E08F2D0E9455100115110551F40091FE
:101DD0008004109181040F5F1F4F109381040093C2
:101DE0008004412F64E070E08F2D0E945510402F39
:101DF00065E070E08F2D0E94551061E070E08F2D3E
:101E00000E9490160E94CD0081E00F900F90DF910C
:101E1000CF911F910F91FF900895FC01818D928DBC
:101E20000895FC018489958908952CED31E0FC0129
:101E300031832083FB014089518962897389FC01C8
:101E400042835383648375830895DC01ED91FC9193
:101E5000008CF18DE02D0994CF93DF931F92CDB7C5
:101E6000DEB76983DC01ED91FC910280F381E02D06
:101E700041E050E0BE016F5F7F4F09950F90DF9109
:101E8000CF910895FC019485FB018485981303C0CC
:101E900081E0943009F480E0089521E0FC0184851C
:101EA000843009F420E0822F08950895CF92DF92C4
:101EB000EF92FF920F931F93CF93DF93CDB7DEB7CF
:101EC000AF970FB6F894DEBF0FBECDBF7C016A019D
:101ED0000CED11E01A8309831C861B8688EE93E0C3
:101EE000A0E0B0E08D879E87AF87B88B8EE391E04E
:101EF0009A878987188F0F8B198E1A8E1B8E1C8ECE
:101F000084E089A31DA30CA31EA21FA218A619A6D4
:101F10008091830590918405A0918505B0918605F7
:101F20008CA79DA7AEA7BFA78B839C83AD83BE83E1
:101F300018861F82AE014C5D5F4FCE0101960E9454
:101F4000D50181309105B1F4D701ED91FC91008864
:101F5000F189E02D1BA70AA78EA19FA1A8A5B9A56D
:101F60008CA79DA7AEA7BFA7A601BE01665D7F4F48
:101F7000C7010995AF960FB6F894DEBF0FBECDBF6F
:101F8000DF91CF911F910F91FF90EF90DF90CF9055
:101F90000895CF93DF93EC01888D843061F00E9427
:101FA000C00AE88DF0E0EE0FFF1FEC5FFB4F1182DF
:101FB000108284E0888FDF91CF910895EF92FF9295
:101FC0001F93CF93DF93FC01208D243011F080E02C
:101FD0001CC07B01EC0110E0812F0E94D40A81110A
:101FE00002C0188F05C08831E1F31F5F1430A1F7DC
:101FF000888D843061F3FD86EC861A8E198E20E080
:10200000A70162E00E94C90E81E0DF91CF911F918C
:10201000FF90EF9008950F931F93CF93DF931F923C
:10202000CDB7DEB78C01DC01ED91FC910480F58128
:10203000E02D0995892B51F0BE016F5F7F4FF801AC
:1020400084850E947209898190E002C08FEF9FEF22
:102050000F90DF91CF911F910F910895FC0184851E
:102060000C94CC09CF93DF931F92CDB7DEB741E03C
:1020700050E0BE016F5F7F4FFC0184850E94CC0958
:10208000181619061CF4898190E002C08FEF9FEFAB
:102090000F90DF91CF910895FC018485843011F079
:1020A0000C94AA0980E090E008959B0190E00496CA
:1020B000982F8827642F820F931F0C94A70E0F93DD
:1020C0001F93CF93DF931F92CDB7DEB790E00496B6
:1020D000982F88278C01060F171F0E940F0E8FE084
:1020E0000E94410E812F0E94410E802F0E94410EBE
:1020F00080E00E94410E89830E940D0E89810F901D
:10210000DF91CF911F910F910895CF93DF93C82F47
:10211000D62F472F60E170E00E9455104D2F61E1EE
:1021200070E08C2FDF91CF910C945510FC018485C9
:10213000843011F00C94D40A80E008958F929F921D
:10214000AF92BF92CF92DF92EF92FF920F931F93C5
:10215000CF93DF93CDB7DEB72D970FB6F894DEBFE0
:102160000FBECDBF7C0100E010E038EE832E33E0DF
:10217000932EA12CB12C40E8C42E41E0D42E1C8219
:102180001B828D829E82AF82B886DA82C9820D87D9
:10219000CE0101960E949610811125C0F70144815D
:1021A000558120E061E0802F0E94C90E80E590E01B
:1021B0000E94CE0063E070E0802F0E945F108331A8
:1021C00029F462E070E0802F0E9490160E94CD00FA
:1021D000F70184819581000F111FF801EC5FFB4F1F
:1021E0009183808305C00F5F1F4F0430110539F6BE
:1021F0002D960FB6F894DEBF0FBECDBFDF91CF9105
:102200001F910F91FF90EF90DF90CF90BF90AF9014
:102210009F908F900895CF93DF93FC012485243005
:10222000D1F0EC010E949610843181F0882371F086
:10223000883161F08C3161F4E881F9810480F581A5
:10224000E02DCE01099521E0892B19F420E001C091
:1022500021E0822F01C080E0DF91CF910895CF92DD
:10226000DF92EF92FF921F93CF93DF93FC011485CF
:102270001430A9F1EC0180E590E00E94CE0068E006
:1022800070E0812F0E9490160E94CD000E94690D7F
:102290006B017C01CE010E9496108823B1F061E0B1
:1022A00070E080E090E00E942F0D0E94690DDC013B
:1022B000CB018C199D09AE09BF09883E9340A10549
:1022C000B10540F38C850E94C00AEC85F0E0EE0F6A
:1022D000FF1FEC5FFB4F1182108284E08C87DF913F
:1022E000CF911F91FF90EF90DF90CF9008954F9284
:1022F0005F926F927F928F929F92AF92BF92CF9296
:10230000DF92EF92FF921F93CF93DF93CDB7DEB7AB
:102310002D970FB6F894DEBF0FBECDBF7C0194E0C1
:10232000A92E94E0B92E10E0C12CD12C28EE422E1B
:1023300023E0522E612C712C30E8832E31E0932E55
:102340001C821B824D825E826F8278869A8289828D
:102350001D87D5012D913D915D01F7018481958106
:1023600028173907B1F4CE0101960E9496108431E6
:1023700069F0CE0101960E9496108C3151F4CE0185
:1023800001960E944C10892B91F003C0CC24C39479
:10239000D12C1F5F1430A1F6CD2871F4D701ED9137
:1023A000FC910480F581E02DC701099505C0CE019F
:1023B00001960E942F11EDCF2D960FB6F894DEBF37
:1023C0000FBECDBFDF91CF911F91FF90EF90DF90B7
:1023D000CF90BF90AF909F908F907F906F905F90C5
:1023E0004F9008952F923F924F925F926F927F92FB
:1023F0008F929F92AF92BF92CF92DF92EF92FF9215
:102400000F931F93CF93DF93CDB7DEB72E970FB601
:10241000F894DEBF0FBECDBF7C016B015A010E9454
:10242000771104E014E020E0612C712C88EE282E56
:1024300083E0382E412C512C90E8892E91E0992E82
:102440001C821B822D823E824F8258869A8289820C
:102450002D87F801419151918F01F7018481958178
:102460004817590741F4CE0101962E870E94961015
:102470002E858731E9F02F5F243011F7C3012E96A6
:102480000FB6F894DEBF0FBECDBFDF91CF911F9185
:102490000F91FF90EF90DF90CF90BF90AF909F9003
:1024A0008F907F906F905F904F903F902F90089506
:1024B000A501B601CE0101962E870E94D100680EBB
:1024C000791E2E85D8CF0895CF92DF92EF92FF929A
:1024D0000F931F93CF93DF936C017A018B01C0E0C0
:1024E000D0E0CE15DF0589F0D8016D918D01D601C0
:1024F000ED91FC910190F081E02DC6010995892BA9
:1025000011F47E0102C02196ECCFC701DF91CF917B
:102510001F910F91FF90EF90DF90CF900895CF9390
:102520006CE271E080E090E00E942F0DCFB7F8944C
:1025300080918B04811127C0E8EBF0E08491E4EAFC
:10254000F0E09491E82FF0E0EE0FFF1FE057FF4F0F
:10255000A591B491EC91E92321F461E08AE00E9415
:10256000B80C61E08AE00E94E80C8CB580618CBDFB
:102570008CB580648CBD61E08DE00E94E80C61E068
:102580008BE00E94E80C80918B048F5F80938B041A
:10259000CFBF229A80E590E00E94CE0060E880E004
:1025A00090E00E94A70E65E58BE190E00E94A70EE7
:1025B00065E58AE190E00E94A70E0E94CD0080E0D0
:1025C00090E490938D0480938C0480E090E6909347
:1025D00095048093940480E098E490938F04809312
:1025E0008E0480E098E6909397048093960480E0B0
:1025F00090E5909391048093900480E090E790930D
:1026000099048093980480E098E5909393048093D4
:10261000920480E098E790939B0480939A04CF9172
:1026200008951F93CF93DF93CDB7DEB7C254D1097E
:102630000FB6F894DEBF0FBECDBFFC01828193813F
:10264000A481B58123968CAF9DAFAEAFBFAF23976A
:1026500011E023961FAF239723964CAD5DAD6EAD71
:102660007FAD23974BAB5CAB6DAB7EAB8DA79EA7CD
:10267000AFA7B8AB18AB4DA55EA56FA578A94FA3C2
:1026800058A769A77AA71EAB4BA95CA96DA97EA91B
:1026900049A35AA36BA37CA32CED31E03C8B2B8B7D
:1026A0004FEF4D8B4E8B4F8B188E3E872D871AA781
:1026B0004FA158A569A57AA54F87588B698B7A8B4E
:1026C0001CA349A15AA16BA17CA149875A876B879A
:1026D0007C873A8329838B839C83AD83BE830E944E
:1026E0008F1280E590E00E94CE0046E050E066E068
:1026F00071E089E090E00E94780ECE0103960E947E
:10270000C60044E050E0BE01615F7F4F81E090E091
:102710000E94780E44E050E0BE016B5E7F4F85E082
:1027200090E00E94780E0E94CD001C8789859A85D2
:10273000AB85BC858093830590938405A093850524
:10274000B0938605CE5BDF4F0FB6F894DEBF0FBEA9
:10275000CDBFDF91CF911F9108958F929F92AF923D
:10276000BF92CF92DF92EF92FF920F931F93CF937E
:10277000DF93B82E4B018A01A22E68E270E00E941E
:102780005F10C82FD0E069E270E08B2D0E945F10CF
:10279000DC2FCC27C82B9E013770CB2CD12CC60147
:1027A000880F991FAC014C565B4F6A01FA0180817A
:1027B0009181820F931FA801420F531F413058404F
:1027C00098F060E078E07B01E21AF30AA701B40117
:1027D0000E94480EA8014E195F09B4016E0D7F1DBD
:1027E000F6018081918102C0A801B4010E94480EC7
:1027F000A1100EC0C00FD11F4D2F68E270E08B2DCD
:102800000E9455104C2F69E270E08B2D0E945510EC
:10281000DF91CF911F910F91FF90EF90DF90CF90BC
:10282000BF90AF909F908F9008959F92AF92BF926C
:10283000CF92DF92EF92FF920F931F93CF93DF938C
:10284000982E8B015A01690164E270E00E945F10CA
:10285000E82EF12C65E270E0892D0E945F10FE2CBD
:10286000EE24E82AE701C00FD11F9E013770E92C42
:10287000F12CC701880F991FAC0144575B4F7A01B7
:10288000FA0180819181820F931FA9014C0D5D1D7A
:102890004130584090F000E018E0021B130BA801F3
:1028A000B5010E94780EA601401B510BB501600FC7
:1028B000711FF7018081918102C0A601B5010E94BC
:1028C000780ECC0DDD1D4D2F64E270E0892D0E9445
:1028D00055104C2F65E270E0892DDF91CF911F914B
:1028E0000F91FF90EF90DF90CF90BF90AF909F90AF
:1028F0000C945510FF920F931F93CF93DF93F82EF4
:10290000C0E0D0E08F2D0E94290E8C01892B21F090
:102910008F2D0E94290EEC01C017D10799F7CE0127
:10292000DF91CF911F910F91FF9008950F931F9307
:10293000CF93DF93EC0188819981009729F02A8158
:102940003B812617370788F48B016F5F7F4F0E940A
:102950002320009761F0998388831B830A832C814D
:102960003D81232B11F4FC01108281E001C080E045
:10297000DF91CF911F910F910895EF92FF920F93E6
:102980001F93CF93DF93FC0124813581611571057D
:1029900011F480E019C041155105A9F07B01EC014B
:1029A0008A01020F131FB8010E949614882389F32D
:1029B000288139818C819D81B701820F931F0E94EC
:1029C00008211D830C8381E0DF91CF911F910F912E
:1029D000FF90EF900895CF93DF93EC018881998168
:1029E000009711F00E948B1F198218821D821C8291
:1029F0001B821A82DF91CF910895EF92FF920F937D
:102A00001F93CF93DF93EC017B018A01BA010E94EF
:102A10009614811104C0CE010E94EB1407C01D83DF
:102A20000C83B701888199810E940821CE01DF9132
:102A3000CF911F910F91FF90EF900895CF93DF9367
:102A4000EC01FB018617970761F0608171816115C8
:102A5000710529F0448155810E94FD1402C00E9435
:102A6000EB14CE01DF91CF910895FC011182108209
:102A700013821282158214826115710551F0FB01D7
:102A800001900020E9F73197AF01461B570B0C94DA
:102A9000FD1408954F925F926F927F92EF92FF9292
:102AA0000F931F93CF93DF93CDB7DEB7A1970FB6E8
:102AB000F894DEBF0FBECDBF7C01FA01CB0119A295
:102AC000223008F42AE08E010F5D1F4F422E512C58
:102AD000612C712CBF01A30192010E94AF21F90169
:102AE000CA01015011096A3014F4605D01C0695CCB
:102AF000D8016C93232B242B252B61F7B801C70138
:102B00000E941F08A1960FB6F894DEBF0FBECDBF7E
:102B1000DF91CF911F910F91FF90EF907F906F9079
:102B20005F904F9008950F931F93CF93DF93EC0125
:102B30000E941F088C0165EF71E0CE010E941F0802
:102B4000800F911FDF91CF911F910F910895DC01AC
:102B5000ED91FC910190F081E02D09940C941F08F7
:102B6000ECE9F4E0A089B18982E08C93A485B58575
:102B70001C92A685B7858FEC8C93108EA489B5899D
:102B800086E08C93A289B3898C9180618C93A28911
:102B9000B3898C9188608C93A289B3898C91806869
:102BA0008C930288F389E02D80818F7D8083089546
:102BB00061E0882389F1809193050E94B80C80918F
:102BC0009405909195050E94240D60E080919305F5
:102BD0000E94B80C809194059091950525E0AC0178
:102BE000249FC001259F900D11240E94240D61E0B7
:102BF000809193050E94B80C809194059091950561
:102C00000E94240D60E0809193050E94B80C809191
:102C100094059091950530C0809193050E94B80C61
:102C200080919405909195050E94240D60E080911B
:102C300093050E94B80C80919405909195050E948F
:102C4000240D61E0809193050E94B80C8091940559
:102C5000909195050E94240D60E0809193050E945B
:102C6000B80C809194059091950525E0AC01249FC6
:102C7000C001259F900D11240C94240DCF92DF925A
:102C8000EF92FF92CF93DF936C01990FEE08FF084C
:102C9000F7FE1BC06DE28CE994E00E94A715EC01E1
:102CA00044275527BA014C195D096E097F092AE0AE
:102CB0008CE994E00E944A158C0F9D1FDF91CF9103
:102CC000FF90EF90DF90CF9008952AE0B701A60122
:102CD0008CE994E0DF91CF91FF90EF90DF90CF905F
:102CE0000C944A15CF93DF93EC018CED91E099831E
:102CF00088831A821B821C821D8280E590E00E94DC
:102D0000CE00BE016E5F7F4F44E050E08FE090E068
:102D10000E94480E0E94CD00CE01DF91CF91089510
:102D2000CF93C82F462F61E070E00E94551061E0FC
:102D300070E08C2F0E945F108111F9CFCF91089520
:102D4000CF92DF92EF92FF92CF93DF936C01990FB6
:102D5000EE08FF08F7FE16C06DE28CE994E00E94D1
:102D6000A715EC0144275527BA014C195D096E09D6
:102D70007F092AE08CE994E00E944A157C01EC0E60
:102D8000FD1E08C02AE0B701A6018CE994E00E946C
:102D90004A157C0165EF71E08CE994E00E941F0800
:102DA0008E0D9F1DDF91CF91FF90EF90DF90CF9020
:102DB0000895CF93DF93CDB7DEB7E0970FB6F894C1
:102DC000DEBF0FBECDBF789484B5826084BD84B56C
:102DD000816084BD85B5826085BD85B5816085BD16
:102DE00080916E00816080936E00109281008091CE
:102DF0008100826080938100809181008160809356
:102E00008100809180008160809380008091B1007A
:102E100084608093B1008091B00081608093B000A5
:102E200080917A00846080937A0080917A00826039
:102E300080937A0080917A00816080937A008091FB
:102E40007A00806880937A001092C10010927D050C
:102E500010927E0510927F051092800510923B051E
:102E600010923C0510923D0510923E0560ED77E012
:102E700080E090E00E942F0D8CE994E090937C0517
:102E800080937B050E94B0150E94690D60933B05FD
:102E900070933C0580933D0590933E0566EE71E08E
:102EA00080917B0590917C050E94AE156AE070E0F0
:102EB00080E090E00E942F0D11E010934F050E94DA
:102EC000B01568EF71E08CE994E00E94931560E022
:102ED00087E00E94E80C61E085E00E94E80C61E078
:102EE00086E00E94E80C61E08BE00E94E80C61E063
:102EF00088E00E94E80C61E089E00E94E80C61E053
:102F000087E00E94B80C60E085E00E94B80C61E0A8
:102F100086E00E94B80C60E08BE00E94B80C60E094
:102F200088E00E94B80C60E089E00E94B80C8091B3
:102F30006A04811129C0109252041092510488EE43
:102F400093E0A0E0B0E08093530490935404A093E6
:102F50005504B09356048EE391E09093500480930F
:102F60004F048CED91E090935E0480935D04109289
:102F70005F0410926004109261041092620484E075
:102F80008093670410936A048CE094E09093880522
:102F9000809387050E948F1280E590E00E94CE000A
:102FA00046E050E066E071E089E090E00E94780E33
:102FB0008CED91E09A8389831B821C821D821E8284
:102FC000CE0103960E94C6000E94CD0000918705A5
:102FD00010918805D80192961D921D921D921C9207
:102FE0009597F80116A217A210A611A69A961D92FF
:102FF0001D921D921C929D9780E69AEEA0E0B0E093
:1030000086AB97ABA0AFB1AF80EA9FE0A0E0B0E0A5
:1030100082AF93AFA4AFB5AFD801189686E0FD019B
:10302000282F11922A95E9F79801225F3F4F94E1EA
:10303000F90111929A95E9F7E6E0F1E001900D921D
:103040008A95E1F77801F2E4EF0EF11CD7011C92AA
:103050000E946C212FEC37E040E050E00E94D1212B
:10306000DC01CB010196A11DB11DF801848395837C
:10307000A683B78380839183A283B3835801F3E44B
:10308000AF0EB11CC5010E94C90F64E470E0C50118
:103090000E94DE0F81111BC063E272E08CE994E0B4
:1030A0000E9493158CED91E09A83898380919F050E
:1030B0009091A005A091A105B091A2058B839C835E
:1030C000AD83BE83CE0101960E94111384C10E947C
:1030D000690D2B013C01812C912CD12C43E0342E25
:1030E00052E0C52ED7018C91833009F404C18111BF
:1030F00021C0F80184819581A681B7810196A11D27
:10310000B11D84839583A683B7830E94690D6419DA
:1031100075098609970928EE33E040E050E00E94E7
:10312000AF21A90161E0C8010E94890681E0D701B1
:103130008C93C3C0843001F5F80184819581A68108
:10314000B7810196A11DB11D84839583A683B783A2
:103150000E94690D641975098609970928EE33E004
:1031600040E050E00E94AF21A90163E0C8010E9445
:103170008906D701CC92A1C0813061F5F80142AD3A
:1031800053AD64AD75AD9E012F5F3F4FC8010E94E6
:10319000C304D82EF2E08F1390C089819A81AB814D
:1031A000BC81F80184839583A683B7830E94690D4F
:1031B000641975098609970928EE33E040E050E06C
:1031C0000E94AF21A90163E0C8010E948906D701CE
:1031D000DC9279C0823009F070C0F80142AD53AD85
:1031E00064AD75AD9E012F5F3F4FC8010E94C304BF
:1031F000D82EF5E08F135BC0D7013C92F80182A175
:1032000093A1A4A1B5A1892B8A2B8B2B41F424E88F
:1032100033E040E050E022A333A344A355A3F801D8
:1032200086A197A1A0A5B1A5892B8A2B8B2B61F430
:1032300082A193A1A4A1B5A1B695A79597958795CD
:1032400086A397A3A0A7B1A7F80182A593A5A4A5DB
:10325000B5A5892B8A2B8B2BA9F482A193A1A4A1BC
:10326000B5A1AC01BD0123E07695679557954795CB
:103270002A95D1F7841B950BA60BB70B82A793A7B2
:10328000A4A7B5A7F80186A197A1A0A5B1A586A777
:1032900097A7A0ABB1AB82A593A5A4A5B5A582AB1A
:1032A00093ABA4ABB5AB88248394912C0CC0F6E00F
:1032B0008F1303C0D7011C9206C0BFEFDB1203C0FF
:1032C000F7011082D12CF1E08F16910409F40ACF96
:1032D0000E94690DDC01CB0184199509A609B70983
:1032E000F80126A937A940AD51AD281739074A077B
:1032F0005B0708F0F7CEC5010E94C90FF801848171
:103300009581A681B7810196A11DB11D8483958306
:10331000A683B7830E94690DF801FE9660837183CE
:1033200082839383F1E08F16910409F051C080E508
:1033300090E00E94CE006091870570918805625FE1
:103340007F4FCE0101960E94270CCE0103960E946A
:10335000C60060918705709188056A5E7F4FCE0137
:1033600001960E94270C44E050E0BE016D5F7F4F44
:1033700081E090E00E94780E609187057091880549
:103380006E5E7F4FCE0101960E94270C44E050E014
:10339000BE016D5F7F4F85E090E00E94780E0E9435
:1033A000CD006091870570918805625E7F4FCE01E8
:1033B00001960E94270C8B819C81AD81BE818093F8
:1033C000830590938405A0938505B093860503C07B
:1033D000892809F461CE67E572E08CE994E00E94E7
:1033E000AE1588E090E00E94A01665E872E08CE9D6
:1033F00094E00E94AE1587E090E00E94A0166AE972
:1034000072E08CE994E00E94931560ED72E08CE923
:1034100094E00E94931587E995E00E949E1061E276
:1034200073E08CE994E00E94AE158E010F5F1F4F90
:10343000C8010E9472166CE974E0C8010E94DF0B9B
:10344000C8010E947216EE80F12C65E373E08CE9EE
:1034500094E00E94AE15C7010E943E1668E373E037
:103460008CE994E00E94AE156BE373E08CE994E084
:103470000E94AE15C8010E9472166CE974E0C80182
:103480000E94DF0B6BE873E08CE994E00E94AE15BC
:1034900084EE9CE00E943E1660E573E08CE994E0C7
:1034A0000E949315EEE1CE2ED12C61E088E00E94BF
:1034B000B80C64E170E080E090E00E942F0D60E0C5
:1034C00088E00E94B80C64E170E080E090E00E9427
:1034D0002F0D21E0C21AD10841F768EE73E080E0B9
:1034E00090E00E942F0DC12CD12CCE14DF04C4F427
:1034F00061E088E00E94B80C6CE271E080E090E04E
:103500000E942F0D60E088E00E94B80C6CE271E030
:1035100080E090E00E942F0D3FEFC31AD30AE5CF61
:1035200068EE73E080E090E00E942F0D68EE862E3A
:1035300063E0962EA12CB12C44244A9473E0572EBC
:10354000612C712C0E94690D672B682B692B41F44B
:103550000E94690D623071058105910508F409C169
:103560000E94690D60937C0470937D0480937E04B7
:1035700090937F04C0907804D0907904E0907A040E
:10358000F0907B046C157D058E059F0540F46093DB
:1035900078047093790480937A0490937B04C090AC
:1035A0007804D0907904E0907A04F0907B049B0139
:1035B000AC012C193D094E095F0969017A013AEF06
:1035C000C316D104E104F10408F4D3C06093780475
:1035D0007093790480937A0490937B0484EF91E054
:1035E000A0E0B0E08093470590934805A09349057B
:1035F000B0934A0510924B0510924C0510924D0560
:1036000010924E0580913F0590914005A091410593
:10361000B09142058093430590934405A0934505DE
:10362000B09346050E94690D60933F057093400575
:1036300080934105909342050E94690D60933B057C
:1036400070933C0580933D0590933E050E94690D63
:103650006B017C0162E573E080917B0590917C05B4
:103660000E94AE152AE041E050E060E070E08091F9
:103670007B0590917C050E944A1569E573E0809175
:103680007B0590917C050E94AE152AE0B701A6014A
:1036900080917B0590917C050E944A156BE573E053
:1036A00080917B0590917C050E94AE1580913F052D
:1036B00090914005A0914105B0914205B701A60146
:1036C000481B590B6A0B7B0B2AE080917B0590917C
:1036D0007C050E944A156BE573E080917B05909113
:1036E0007C050E94AE1540913F05509140056091C8
:1036F0004105709142058091430590914405A09148
:103700004505B0914605481B590B6A0B7B0B2AE017
:1037100080917B0590917C050E944A156DE573E0D0
:1037200080917B0590917C050E94AE150E94690DE9
:10373000AB01BC012AE080917B0590917C050E9441
:103740004A156FE573E080917B0590917C050E949E
:10375000931565E070E080E090E00E942F0D0E94DC
:10376000690D60933F0570934005809341059093E8
:10377000420587E995E00E94771144E0C42E44E0B9
:10378000D42E312C50E8E52E51E0F52E1C821B8200
:103790008D829E82AF82B886FA82E9823D86D6010A
:1037A0002D913D916D0180919B0590919C0528176D
:1037B000390739F5C8010E949610873111F08C3114
:1037C00001F5C8010E944C10892BD9F08B819C8196
:1037D0009E8B8D8B8D819E81AF81B8858F8B988FCD
:1037E000A98FBA8F89859A85AB85BC858B8F9C8F75
:1037F000AD8FBE8F80E891E09C8B8B8B8D858F8FFA
:103800000FC03394B4E03B12C1CF1E8A1D8A8F8A49
:10381000988EA98EBA8E80E891E09C8B8B8B3F8E20
:103820008F8D8430A9F461E088E00E94B80C64E6D2
:1038300070E080E090E00E942F0D60E088E00E9440
:10384000B80C64E670E080E090E00E942F0DFAC1B1
:1038500066E673E08CE994E00E94931560E088E0EE
:103860000E94B80C21EA222E20E0322E35EBC32E26
:1038700030E0D32ECE0143960E940B11882309F429
:10388000DBC1E9E7F0E08491F101F490F601E49006
:10389000EE20A1F081110E948F0CEE2DF0E0EE0FD2
:1038A000FF1FE859FF4FA591B4918C91F82231E0A8
:1038B00020E009F430E0832F922F02C080E090E0F6
:1038C000282F21702093730420917204892B79F0A2
:1038D000222339F061E070E080E090E00E942F0D3B
:1038E0000FC081E0809372048093770407C0222385
:1038F00089F3109272041092770481E0809374042B
:1039000080E480937C0080917A00806480937A00C8
:1039100080917A0086FDFCCFA0917800809179009B
:10392000B0E0B82B23E630E00E94E91EA30192012B
:103930000E94D12130937604209375048091740401
:10394000882309F4D6C080917704882341F061E090
:1039500088E00E94B80C81E00E94970707C080E0D1
:103960000E94970760E088E00E94B80C10927404EF
:10397000C0C0CE0143960E943210282F1CA61DA65F
:103980001EA61FA666E373E08CE994E028AB0E94B4
:10399000AE1528A9622F8CE994E00E94A7156CE768
:1039A00073E08CE994E00E94AE1528A9293609F449
:1039B0003CC10CF0A6C0213609F039C1E090750475
:1039C000F090760467EF71E0CE0186960E9435157F
:1039D00019A218A21BA21AA21DA21CA24AE0B80199
:1039E000C7010E947A21F80101900020E9F7319780
:1039F000AF01401B510BB801CE0180960E94FD140F
:103A00008EA19FA1009709F083C088A199A19FA3CF
:103A10008EA38AA19BA199A788A78CA19DA19BA7F2
:103A20008AA719A218A21BA21AA21DA21CA288A1D1
:103A300099A10E948B1F8AA59BA5019709F47DC0BF
:103A40008AA59BA5029709F493C01A8219821C8249
:103A50001B821E821D82BE016A5D7F4FC8010E94CB
:103A60001E15ED80FE80FFEFEF1AFF0AB701C801B7
:103A70000E949614882309F4EBC029813A818D8134
:103A80009E8166EF71E0820F931F0E940821FE82E3
:103A9000ED82B801CE0186960E941E1589819A8119
:103AA0000E948B1FEAA4FBA4E114F10409F07BC07F
:103AB0001CA68EA19FA10E948B1FE0919705F091FB
:103AC00098050280F381E02D44E050E0BE01645D82
:103AD0007F4F87E995E0099564E873E08CE994E00D
:103AE0000E94AE15BE01645D7F4F8CE994E00E9498
:103AF0009315CE0143960E944C10892B09F039CFC3
:103B0000B9CE233709F465C0243709F478C08FC0D3
:103B100068A179A16115710509F497C048A559A557
:103B20002CA13DA14217530708F48FC00E94082121
:103B30008CA19DA19BA78AA778CF62E873E0C801FA
:103B40000E9435154AA55BA56EA17FA1C8010E9400
:103B5000BD14811103C0C8010E94EB14B801CE014D
:103B600086960E941E1589819A810E948B1F68CFBC
:103B700062E873E0C8010E9435154AA55BA56EA1F5
:103B80007FA1C8010E94BD14811103C0C8010E9419
:103B9000EB14B801CE0186960E941E1589819A8188
:103BA0000E948B1F52CF23E0E216F10418F083E04D
:103BB000E82EF12C6EA17FA1A701CE018C960E9468
:103BC0000F21ECE2F0E0EC0FFD1FEE0DFF1D108267
:103BD00070CF80917704882349F06DE873E087E91E
:103BE00095E00E941F0862E973E07FCF62EA73E00C
:103BF00087E995E00E941F0867EA73E076CF80911D
:103C00007704882329F01092770468EB73E005C0ED
:103C100081E0809377046FEC73E08CE994E00E947C
:103C2000931581E08093740464CF61E001C060E08B
:103C300089E00E94B80C5DCF65EE73E08CE994E0FA
:103C40000E9493150E94AF0B7DCC0E948B1FDDCE8E
:103C5000C8010E94EB141DCFE3EAF5E08CED91E082
:103C6000918380831282138214821582ECE9F4E03E
:103C70001382128248EE53E060E070E04483558383
:103C8000668377832AEA31E03183208325EC30E0B4
:103C90003587248724EC30E03787268720EC30E016
:103CA000318B208B21EC30E0338B228B22EC30E007
:103CB000358B248B26EC30E0378B268B118E128EC1
:103CC000138E148EE9E3F5E01682178210861186B2
:103CD000128613861486158616861786108A118A10
:103CE000128A138A148A158AE9EAF5E0918380839F
:103CF0001282138214821582EFEAF5E091838083A9
:103D00001282138214821582E5EBF5E091838083A1
:103D10001282138214821582EBEBF5E0918380838B
:103D20001282138214821582E1E8F5E09183808388
:103D30001282138214821582E9E8F5E09183808370
:103D40001282138214821582E1ECF5E09183808364
:103D50001282138214821582E7ECF5E0918380834E
:103D60001282138214821582EDE9F5E0918380833B
:103D700080EC828388EA838381E0848383E0858387
:103D8000E7E9F5E0138212828AEC91E09183808367
:103D900084EE9CE095838483EFE8F5E08AE193E28A
:103DA000A3E4B1E080839183A283B3838BE0848317
:103DB00084E091E09683858387E0878361E08BE0F0
:103DC0000C94E80C69279627692778278727782796
:103DD00008950E943A22B7FF0895821B930B08951D
:103DE000EE0FFF1F0590F491E02D0994CF93DF9320
:103DF0008230910510F482E090E0E091CF05F091DF
:103E0000D00520E030E0C0E0D0E0309711F14081F3
:103E1000518148175907C0F04817590761F482814A
:103E20009381209719F09B838A832BC09093D005B0
:103E30008093CF0526C02115310519F0421753078D
:103E400018F49A01BE01DF01EF010280F381E02D39
:103E5000DCCF2115310509F1281B390B2430310540
:103E600090F412968D919C9113976115710521F034
:103E7000FB019383828304C09093D0058093CF0588
:103E8000FD01329644C0FD01E20FF31F819391932F
:103E9000225031092D933C933AC02091CD053091A9
:103EA000CE05232B41F420910E0130910F01309368
:103EB000CE052093CD0520910C0130910D012115E7
:103EC000310541F42DB73EB74091100150911101D9
:103ED000241B350BE091CD05F091CE05E217F307D9
:103EE000A0F42E1B3F0B2817390778F0AC014E5F6A
:103EF0005F4F2417350748F04E0F5F1F5093CE05D4
:103F00004093CD058193919302C0E0E0F0E0CF01B2
:103F1000DF91CF9108950F931F93CF93DF93009775
:103F200009F48CC0FC013297138212820091CF05F4
:103F30001091D0050115110581F420813181820F86
:103F4000931F2091CD053091CE052817390779F5BB
:103F5000F093CE05E093CD0571C0D80140E050E06C
:103F6000AE17BF0750F412962D913C911397AD01F7
:103F70002115310509F1D901F3CF9D01DA01338310
:103F8000228360817181860F971F8217930769F4DE
:103F9000EC0128813981260F371F2E5F3F4F318377
:103FA00020838A819B8193838283452B29F4F0931C
:103FB000D005E093CF0542C01396FC93EE93129781
:103FC000ED01499159919E01240F351FE217F30726
:103FD00071F480819181840F951F029611969C93B4
:103FE0008E938281938113969C938E931297E0E037
:103FF000F0E0D80112968D919C911397009719F0DB
:10400000F8018C01F6CF8D919C9198012E5F3F4F66
:10401000820F931F2091CD053091CE0528173907C7
:1040200069F4309729F41092D0051092CF0502C0A0
:10403000138212821093CE050093CD05DF91CF91AC
:104040001F910F910895A0E0B0E0E9E2F0E20C9436
:104050000722EC01009721F4CB010E94F61EB8C0A4
:10406000FC01E60FF71F9C0122503109E217F3070C
:1040700008F4ACC0D9010D911C91119706171707D0
:10408000B0F00530110508F49FC0C80104978617E9
:10409000970708F499C002501109061B170B0193EA
:1040A00011936D937C93CF010E948B1F8DC05B0198
:1040B000A01AB10A4C01800E911EA091CF05B091BB
:1040C000D00540E050E0E12CF12C109709F44AC0F3
:1040D000A815B905D1F56D907C901197630182E028
:1040E000C80ED11CCA14DB0480F1A3014A195B0974
:1040F0006A0182E0C80ED11C1296BC9012971396EA
:10410000AC91B5E0CB16D10440F0B282A3835183C9
:104110004083D9016D937C930AC00E5F1F4FC3018A
:10412000800F911FF90191838083EB2DFA2FE11409
:10413000F10431F0D7011396FC93EE93129744C02B
:10414000F093D005E093CF053FC08D919C911197DE
:104150004817590708F4AC017D0112960D90BC91E7
:10416000A02DB3CF8091CD059091CE0588159905EE
:10417000E1F446175707C8F480910C0190910D01A6
:10418000009741F48DB79EB74091100150911101F5
:10419000841B950BE817F907C8F4F093CE05E0935C
:1041A000CD05F901718360830FC0CB010E94F61E1B
:1041B0007C01009759F0A801BE010E94FF20CE01AA
:1041C0000E948B1FC70104C0CE0102C080E090E0B6
:1041D000CDB7DEB7EEE00C94232281E090E0F894B6
:1041E0000C944922FB01DC0104C08D9101908019DF
:1041F00021F441505040C8F7881B990B0895FB01EA
:10420000DC0102C001900D9241505040D8F7089552
:10421000FB01DC0101900D920020E1F70895FB0104
:10422000DC014150504048F001900D920020C9F748
:1042300001C01D9241505040E0F708958F929F9227
:10424000AF92BF92CF92DF92EF92FF92CF93DF9324
:10425000EC01688179818A819B81611571058105F5
:10426000910521F464E279ED8BE597E02DE133EFE0
:1042700041E050E00E94D12149015A019B01AC016B
:10428000A7EAB1E40E94F0216B017C01ACEEB4EF2F
:10429000A50194010E94FE21DC01CB018C0D9D1D26
:1042A000AE1DBF1DB7FF03C00197A109B0488883A9
:1042B0009983AA83BB83BC01CD019F77DF91CF9106
:1042C000FF90EF90DF90CF90BF90AF909F908F9036
:1042D00008950E941E21089582E191E00E941E210E
:1042E00008956093120170931301809314019093C9
:1042F00015010895BB274A3031F4992322F4BDE219
:10430000909581959F4F0C948621BB27FB015527E3
:10431000AA27880F991FAA1FA41710F0A41B839522
:104320005051B9F7A05DAA3308F0A95DA193009799
:1043300079F7B111B1931192CB010C949F21DC015B
:10434000FC01672F71917723E1F7329704C07C91CC
:104350006D9370836291AE17BF07C8F30895A1E211
:104360001A2EAA1BBB1BFD010DC0AA1FBB1FEE1FEF
:10437000FF1FA217B307E407F50720F0A21BB30B3A
:10438000E40BF50B661F771F881F991F1A9469F7B6
:1043900060957095809590959B01AC01BD01CF0112
:1043A0000895052E97FB1EF400940E94E82157FD06
:1043B00007D00E94AF2107FC03D04EF40C94E821F3
:1043C00050954095309521953F4F4F4F5F4F089541
:1043D00090958095709561957F4F8F4F9F4F089571
:1043E0000E943A22A59F900DB49F900DA49F800D2E
:1043F000911D11240895B7FF0C94F0210E94F02123
:10440000821B930B08952F923F924F925F926F926F
:104410007F928F929F92AF92BF92CF92DF92EF9254
:10442000FF920F931F93CF93DF93CDB7DEB7CA1BD5
:10443000DB0B0FB6F894DEBF0FBECDBF09942A8800
:10444000398848885F846E847D848C849B84AA84A8
:10445000B984C884DF80EE80FD800C811B81AA8135
:10446000B981CE0FD11D0FB6F894DEBF0FBECDBF00
:10447000ED010895A29FB001B39FC001A39F700DED
:10448000811D1124911DB29F700D811D1124911D5C
:064490000895F894FFCF2F
:1044960000C0DE0BDE0B406C8F36848A0000D1052F
:1044A60080000100000000000000250C250C250CF2
:1044B600250C250C250C250C250C250C250C250C6E
:1044C600250C250C250C250C250C000000003508B4
:1044D6003A090D0F3E0A91093408DE0FC90F830809
:1044E600560F4B08670A1F0A250F150F110FC30831
:1044F60000000000250C250C250C250C250C250C90
:10450600250C250C250C250C250C250C000000007F
:104516008C00D1004C1032100B10550F4501500481
:104526002E102F110B114D0FAE00AC00420FA20042
:1045360001005E00000000000000460B64120F0B35
:10454600ED0A010B8D0B00000000250C6412250CF2
:10455600250C250C250C000000002C0FF2119E10D6
:1045660000000000250C641200000000DF0B0000B4
:104576000000250CE40C564D4450565F317C315FEB
:10458600564D4450560D0A00446F6D6F7469636151
:104596002070726F6A6563742C2041726475696E4F
:1045A6006F20446F6D6F7469636120536572766521
:1045B600720A00436F756C64206E6F74206F6274AC
:1045C60061696E2049502D6164647265737320665B
:1045D600726F6D2044484350202D3E20646F206E3C
:1045E6006F7468696E67004C45442028666F7220B8
:1045F600636F6E6E6563742D737461746520616E8E
:10460600642070696E2D737461746529206F6E2045
:1046160070696E2000496E707574207377697463D3
:1046260068206F6E2070696E200045746865726E32
:104636006574626F61726420636F6E6E6563746524
:1046460064202870696E732031302C2031312C2083
:1046560031322C20313320616E64205350492900B9
:10466600436F6E6E65637420746F20444843502018
:10467600736F7572636520696E206C6F63616C2061
:104686006E6574776F726B2028626C696E6B696EEB
:1046960067206C6564202D3E2077616974696E67BA
:1046A60020666F7220636F6E6E656374696F6E2924
:1046B600004C697374656E696E6720616464726527
:1046C60073733A2000205B005D200020205B546558
:1046D6007374636173653A2074656C6E657420004B
:1046E6005D00564D4450455F003A323A007C005F0B
:1046F600564D445045004170706C69636174696F32
:104706006E20636F6E6E6563746564005D202D3E7A
:104716002000300053656E736F723A2000204F4EB2
:104726000A0050696E207374617465206973204FA6
:104736004E004F46460A0050696E207374617465D8
:10474600206973204F4646005365742070696E20B9
:10475600737461746520746F20224F46462200539D
:1047660065742070696E20737461746520746F209F
:10477600224F4E22004170706C69636174696F6EDE
:10478600206469736F6E6E65637465640057495A79
:044796006E657400D8
:107E0000112484B714BE81FFF0D085E080938100F7
:107E100082E08093C00088E18093C10086E0809377
:107E2000C20080E18093C4008EE0C9D0259A86E02C
:107E300020E33CEF91E0309385002093840096BBD3
:107E4000B09BFECF1D9AA8958150A9F7CC24DD24C4
:107E500088248394B5E0AB2EA1E19A2EF3E0BF2EE7
:107E6000A2D0813461F49FD0082FAFD0023811F036
:107E7000013811F484E001C083E08DD089C08234E0
:107E800011F484E103C0853419F485E0A6D080C0E4
:107E9000853579F488D0E82EFF2485D0082F10E0AE
:107EA000102F00270E291F29000F111F8ED06801E7
:107EB0006FC0863521F484E090D080E0DECF843638
:107EC00009F040C070D06FD0082F6DD080E0C81688
:107ED00080E7D80618F4F601B7BEE895C0E0D1E017
:107EE00062D089930C17E1F7F0E0CF16F0E7DF06D8
:107EF00018F0F601B7BEE89568D007B600FCFDCFD4
:107F0000A601A0E0B1E02C9130E011968C91119780
:107F100090E0982F8827822B932B1296FA010C0160
:107F200087BEE89511244E5F5F4FF1E0A038BF0790
:107F300051F7F601A7BEE89507B600FCFDCF97BE46
:107F4000E89526C08437B1F42ED02DD0F82E2BD052
:107F50003CD0F601EF2C8F010F5F1F4F84911BD097
:107F6000EA94F801C1F70894C11CD11CFA94CF0C13
:107F7000D11C0EC0853739F428D08EE10CD085E9AC
:107F80000AD08FE07ACF813511F488E018D01DD067
:107F900080E101D065CF982F8091C00085FFFCCF94
:107FA0009093C60008958091C00087FFFCCF809118
:107FB000C00084FD01C0A8958091C6000895E0E648
:107FC000F0E098E1908380830895EDDF803219F02E
:107FD00088E0F5DFFFCF84E1DECF1F93182FE3DFCA
:107FE0001150E9F7F2DF1F91089580E0E8DFEE27F6
:047FF000FF270994CA
:027FFE00040479
:0400000300007E007B
:00000001FF