:100000000C9462000C94A10B0C947A0B0C948A0053
:100010000C948A000C948A000C948A000C948A0038
:100020000C948A000C948A000C948A000C948A0028
:100030000C948A000C948A000C948A000C948A0018
:100040000C94300B0C948A000C94180A0C94F2094E
:100050000C948A000C948A000C948A000C948A00F8
:100060000C948A000C948A000000000023002600F3
:10007000290000000008000201000003040700003E
:1000800000000000000000000000250028002B00F8
:1000900000000000240027002A00010204081020AC
:1000A000408001020408102001020408102004040A
:1000B0000404040404040202020202020303030310
:1000C0000303691E11241FBECFEFD8E0DEBFCDBFF2
:1000D00014E0A0E0B1E0E0E1F5E402C005900D928B
:1000E000AC30B107D9F725E0ACE0B4E001C01D9217
:1000F000A93DB207E1F710E0C2E6D0E004C02197C5
:10010000FE010E942D1FC136D107C9F70E94F816C3
:100110000C9486220C9400000895CF93DF931F92D5
:10012000CDB7DEB76983DC01ED91FC910280F381EC
:10013000E02D41E050E0BE016F5F7F4F09950F90C9
:10014000DF91CF910895DC01ED91FC91048CF58D48
:10015000E02D099591E089270895862F089581E083
:100160008627089580E3FB0180833296842F829551
:100170008F7090E1899F401911244A3014F4405D3A
:1001800001C0495C4293482F8111F0CF0895CF936D
:10019000DF93FC0124852430D1F0EC010E942E1461
:1001A000843181F0882371F0883161F08C3161F401
:1001B000E881F9810480F581E02DCE01099521E0E7
:1001C000892B19F420E001C021E0822F01C080E0DA
:1001D000DF91CF9108950F931F93CF93DF931F92D9
:1001E000CDB7DEB78C01DC01ED91FC910480F58187
:1001F000E02D0995892B51F0BE016F5F7F4FF8010B
:1002000084850E946C0C898190E002C08FEF9FEF83
:100210000F90DF91CF911F910F910895FC0184857C
:100220000C94AD0CCF93DF931F92CDB7DEB741E0B6
:1002300050E0BE016F5F7F4FFC0184850E94AD0CD2
:10024000181619061CF4898190E002C08FEF9FEF09
:100250000F90DF91CF910895FC018485843011F0D7
:100260000C948B0C80E090E0089544E050E0BC01D9
:100270008FE090E00C941B0C08958CBD9DBD0895FB
:10028000CF92DF92EF92FF921F93CF93DF93FC0107
:100290001485143099F1EC0180E590E00E943D0155
:1002A00068E070E0812F0E94A80E0E94240B6B0171
:1002B0007C01CE010E942E148823B1F061E070E031
:1002C00080E090E00E94EA0A0E94240BDC01CB014E
:1002D0008C199D09AE09BF09883E9340A105B1055F
:1002E00040F38C850E94000DEC85F0E0EE0FFF1FBF
:1002F000E45FFB4F1182108284E08C87DF91CF9105
:100300001F91FF90EF90DF90CF9008958F929F9272
:10031000AF92BF92CF92DF92EF92FF920F931F9313
:10032000CF936C015B017A01FC01C485C43041F4B8
:1003300081E090E0F6019383828380E090E04EC0FC
:100340008A014130584010F000E018E080E590E06C
:100350000E943D018C2F0E94DC104C0163E070E094
:100360008C2F0E940813873111F08C3121F48016F4
:10037000910660F302C000E010E080E590E00E948A
:100380003D019801A50160E070E08C2F0E9477107C
:1003900060E270E08C2F0E94A80E62E070E08C2F6B
:1003A0000E94081384FD10C063E070E08C2F0E944F
:1003B0000813811104C08C2F0E94000DB9CF80E575
:1003C00090E00E943D01E9CF40E162E070E08C2FB7
:1003D0000E94FE12012B09F4ABCFC701CF911F91F0
:1003E0000F91FF90EF90DF90CF90BF90AF909F90D4
:1003F0008F900895CF92DF92FF920F931F93CF9328
:10040000DF93FC012485243009F077C06A01EB01F9
:100410008C01F12C8F2D0E94580D811103C0F80121
:10042000F48607C08B7F8831D1F3F394F4E0FF1298
:10043000F1CFF8018485843009F45FC02091000178
:10044000309101012F5F3F4F11F420E030EC3093E9
:10045000010120930001409100015091010120E031
:1004600061E00E94140DF801F4848A818F3F51F4F9
:100470008B818F3F91F48C818F3F79F48D818F3FF9
:1004800061F438C0811109C08B81811106C08C8153
:10049000811103C08D81882369F1C114D10451F108
:1004A00080E590E00E943D01BE016E5F7F4F8F2D81
:1004B00090E0982F882744E050E0845F9B4F0E9493
:1004C0001B0CB6018F2D0E94661364E070E08F2D27
:1004D0000E94A80EC8010E942E14873189F061E0A5
:1004E00070E080E090E00E94EA0AC8010E942E14A9
:1004F0008111F0CF84E0F801848780E090E002C0B1
:1005000081E090E0DF91CF911F910F91FF90DF90FC
:10051000CF9008952F923F924F925F926F927F9269
:100520008F929F92AF92BF92CF92DF92EF92FF9203
:100530000F931F93CF93DF93CDB7DEB765970FB6B9
:10054000F894DEBF0FBECDBF7C016B013A01FB0109
:1005500020E080E090E06AE03191332309F140ED42
:10056000430F4A3080F4689FA001699F500D112409
:10057000CA01C097830F911D37FD9A958F3F910552
:1005800059F350F313C03E3289F4233079F0D3018C
:10059000A20FB11D12968C932F5F80E090E0DCCF0C
:1005A000233021F4F301858381E021C0F7014281EA
:1005B0005381648175818091920590919305A091FA
:1005C0009405B0919505481759076A077B0709F408
:1005D0009EC10E94240B8701085F1F4F6F70772711
:1005E0007C5FC8010E94D112813019F080E090E058
:1005F000F3C186ED91E09A838983F701828193812B
:10060000A481B5818B839C83AD83BE8345E350E099
:10061000BE016F5F7F4FC8010E94EE13892B19F452
:10062000C12CD12C6FC10E94240BF7017783668304
:100630007627672776277A83698342E050E0BE01F8
:100640006F5F7F4FC8010E94111281E090E09E878A
:100650008D8742E050E0BE01635F7F4FC8010E947A
:10066000111280E091E09E878D8742E050E0BE014C
:10067000635F7F4FC8010E9411121E861D8642E0F3
:1006800050E0BE01635F7F4FC8010E94111242E03B
:1006900050E0BE01635F7F4FC8010E94111242E02B
:1006A00050E0BE01635F7F4FC8010E9411125601E6
:1006B000F5018081882311F1F6015F01819181119B
:1006C00015C045018C189D081814190494F48F86E0
:1006D00041E050E0BE01615F7F4FC8010E941112EE
:1006E000A401B601C8010E94111203C08E3229F77D
:1006F000E8CF6501FFEFCF1ADF0ADACF1F8641E0AE
:1007000050E0BE01615F7F4FC8010E941112C12CF1
:10071000DD24D394DE86CD8642E050E0BE01635FE7
:100720007F4FC8010E941112DE86CD8642E050E064
:10073000BE01635F7F4FC8010E941112C8010E9471
:100740002E13892B09F46CCF63E0A62EB12CF2E0B6
:100750006F0E711C0E94240B1B012C01C8010E940A
:10076000B81118161906A4F00E94240BDC01CB0165
:1007700082199309A409B50989389341A105B105E6
:10078000D0F462E370E080E090E00E94EA0AE6CFF5
:10079000F7014281538164817581808D918DA28D95
:1007A000B38D481759076A077B0741F4848D958DEF
:1007B000C59721F406C02FEF3FEF9AC02EEF3FEF11
:1007C00097C0F70181A192A10C970CF4A6C04CE050
:1007D00050E0BE016F5F7F4FC8010E9470118B8196
:1007E00090E0982F88272C81822B9A8B898B2981E6
:1007F00030E0322F22274A81242BF701468157818E
:100800004217530709F086C097FF84C08F7092701B
:10081000892B09F0DEC0CF80D12CDC2CCC2488853C
:10082000C82AC114D10409F4D1C0812C912C8D8126
:1008300090E0982F88272E81822B8816990608F43D
:100840006FC0812C912C41E050E0BE016D5E7F4F66
:10085000C8010E9470118B89982F907C09F093C079
:10086000811186C08B898111EECF42E050E0BE013C
:10087000615F7F4FC8010E94701142E050E0BE01ED
:10088000635F7F4FC8010E947011C8010E948F11E1
:10089000C8010E948F11C8010E948F11C8010E94D7
:1008A0008F1142E050E0BE016F5E7F4FC8010E9491
:1008B00070118F8598898115914009F069C02D8547
:1008C0003E853227232732272130310509F060C0C9
:1008D00089899A898115944009F075C044E050E0F7
:1008E000B301C8012C8B3D8B0E9470112C893D896E
:1008F0006901F1E0AF1AB10829F02FEFC216D20654
:1009000009F428CFC8010E94BC12C60165C08EEF51
:100910009FEF62C02CEF3FEFEBCF2DEF3FEFE8CF23
:1009200041E050E0BE01635F7F4FC8010E9470113B
:100930008D85811113C08D858111F2CFC8010E9470
:100940008F11C8010E948F11C8010E948F11C80128
:100950000E948F11FFEF8F1A9F0A69CF8D859FEF3D
:10096000980F9D87882339F3C8010E948F11F6CF15
:100970008B899FEF980F9B8B882309F473CFC80155
:100980000E948F11F5CFC8010E948F111B8A6ACF78
:10099000412C512C89899A899827892798274816AC
:1009A000590638F4C8010E948F118FEF481A580A6F
:1009B000F1CFEFEF8E1A9E0A8C149D0409F043CFFD
:1009C00026EF3FEF95CF27EF3FEF92CF2AEF3FEF94
:1009D0008FCF2BEF3FEF8CCF65960FB6F894DEBF2D
:1009E0000FBECDBFDF91CF911F910F91FF90EF9080
:1009F000DF90CF90BF90AF909F908F907F906F903F
:100A00005F904F903F902F900895CF92DF92EF929A
:100A1000FF920F931F93CF93DF93CDB7DEB7AF97BE
:100A20000FB6F894DEBF0FBECDBF7C016A0106EDA4
:100A300011E01A8309831C861B8688EE93E0A0E0F0
:100A4000B0E08D879E87AF87B88B8EE391E09A8761
:100A50008987188F0F8B198E1A8E1B8E1C8E84E03F
:100A600089A31DA30CA31EA21FA218A619A68091DC
:100A70008A0590918B05A0918C05B0918D058CA76E
:100A80009DA7AEA7BFA78B839C83AD83BE8318862B
:100A90001F82AE014C5D5F4FCE0101960E948A021B
:100AA00081309105B1F4D701ED91FC910484F58575
:100AB000E02D1BA70AA78EA19FA1A8A5B9A58CA769
:100AC0009DA7AEA7BFA7A601BE01665D7F4FC70168
:100AD0000995AF960FB6F894DEBF0FBECDBFDF917C
:100AE000CF911F910F91FF90EF90DF90CF900895DD
:100AF0002F923F924F925F926F927F928F929F922E
:100B0000AF92BF92CF92DF92EF92FF920F931F931B
:100B1000CF93DF93CDB7DEB7E3970FB6F894DEBF80
:100B20000FBECDBF7C011A012B0139010E94240B9D
:100B30004B015C0187010D5B1F4FC8010E94B8117A
:100B400018161906A4F00E94240BDC01CB018819A9
:100B50009909AA09BB09281639064A065B06D8F086
:100B600062E370E080E090E00E94EA0AE6CF42E2B1
:100B700050E0BE016F5F7F4FC8010E9470118981F4
:100B8000823011F080E061C1F80184899589833455
:100B90009105C1F702C08FEF58C16D817E818F81B1
:100BA00098850E941F1F4B015C01F30160837183D4
:100BB0008283938346E050E0B701685F7F4FCE01A8
:100BC0004D960E942F21892BE9F6F70180819181B2
:100BD000A281B38188169906AA06BB0698F2848181
:100BE0009581A681B78188159905AA05BB0550F2A4
:100BF00089899A89AB89BC8986879787A08BB18BB5
:100C00008EECA82EB12CC8010E948F11F1E0AF1A12
:100C1000B108C9F719A6670182E2C80ED11CF70115
:100C2000B696FBA7EAA7C7018A969DA78CA73C9713
:100C30004F0189969FA78EA73897F9ABE8AB1701AC
:100C4000F6E12F0E311CC5979BAB8AABF801818D65
:100C5000928D181619060CF0F7C0C8010E948F116A
:100C60008333910509F4CBC0FCF481309105C9F1BF
:100C70001CF4892B59F3DCC083309105D1F1069720
:100C800009F0D6C0C8010E948F115C0144E050E019
:100C90006AA97BA9C8010E947011412C512CBB2468
:100CA000F4E0AF1AB10840C08A33910509F47BC063
:100CB0003CF48533910569F0C69709F440C0B8C08B
:100CC0008B33910509F485C08F3F910509F4BECFA0
:100CD000AFC0C8010E948F11C8010E948F1189A75F
:100CE000B5CFC8010E948F1144E050E068A979A9EE
:100CF0003AC0C8010E948F115C0144E050E0B1018C
:100D0000C8010E947011412C512CBB2494E0A91AF7
:100D1000B1084A145B040CF099CFC8010E948F11EE
:100D2000EFEF4E1A5E0AF5CF4A145B040CF08ECF3B
:100D3000C8010E948F118FEF481A580AF5CFC801D9
:100D40000E948F11B82EF701828D811110C0838D02
:100D500081110DC0848D81110AC0858D811107C05C
:100D600044E050E0B401C8010E9470116FCFEEA5BD
:100D7000FFA54080518062807380B401CE018396CC
:100D80000E94E2098DA19EA1AFA1B8A58415950589
:100D9000A605B70529F3BB2009F458CFC8010E9466
:100DA0008F11BA94F8CFC8010E948F1144E050E02F
:100DB0006AA57BA5C8010E947011F70166A177A101
:100DC00080A591A50E941F1F66A377A380A791A766
:100DD0003DCFC8010E948F1144E050E06CA57DA575
:100DE000C8010E947011F70162A573A584A595A59D
:100DF0000E941F1F62A773A784A795A727CFC801CA
:100E00000E948F1144E050E0B601C8010E947011A9
:100E1000F70162A173A184A195A10E941F1F62A383
:100E200073A384A395A366A777A780AB91AB0ECFDE
:100E3000C8010E948F11B82EBB2009F407CFC8014A
:100E40000E948F11BA94F8CF89A5E3960FB6F89453
:100E5000DEBF0FBECDBFDF91CF911F910F91FF90ED
:100E6000EF90DF90CF90BF90AF909F908F907F904A
:100E70006F905F904F903F902F9008957F928F9248
:100E80009F92AF92BF92CF92DF92EF92FF920F9319
:100E90001F93CF93DF93CDB7DEB7A6970FB6F89425
:100EA000DEBF0FBECDBF8C01762E942E852E20E2A4
:100EB000B22ECE0101967C01FC012B2D11922A95B8
:100EC000E9F786ED91E09AA389A38FEF8BA38CA31A
:100ED0008DA38EA3680183E4C80ED11C43E450E0C7
:100EE000BE016F5D7F4FC6010E94EE13019609F4AB
:100EF000BFC081E089838A8386E0A82EAB821C82F2
:100F0000F80164817581868197810E941F1F6D831E
:100F10007E838F83988789869A8680E890E09C8775
:100F20008B874CE150E0B701C6010E941112F70116
:100F30002B2D11922A95E9F7480188E0880E911C23
:100F4000F401D70101900D92AA94E1F740E150E03D
:100F5000B701C6010E941112F7011192BA94E9F784
:100F600096E0A92EB12C40E250E0B701C6010E94E4
:100F70001112F1E0AF1AB108B1F783E6898392E864
:100F80009A8393E59B838C8385E38D8381E08E83B5
:100F90007F829DE3988797E099878A8786E0F401AE
:100FA000DE011B9601900D928A95E1F78CE0898B0A
:100FB0008A8B66EE71E0CE0143960E944521F801CE
:100FC0004385BE01675E7F4FC8010E94B200F801F1
:100FD0004485BE01655E7F4FC8010E94B200F801E2
:100FE0004585BE01635E7F4FC8010E94B2004EE19D
:100FF00050E0B701C6010E941112F3E07F121EC03B
:1010000082E3898384E08A83F80196859B839785B0
:101010009C8390899D8391899E8396E39F83888793
:10102000828D8987838D8A87848D8B87858D8C8738
:101030004CE050E0B701C6010E94111287E389839A
:1010400086E08A8391E09B8393E09C838D838FE08D
:101050008E838AE38F838BE388878FEF898749E0CC
:1010600050E0B701C6010E941112C6010E942E1362
:10107000A6960FB6F894DEBF0FBECDBFDF91CF911D
:101080001F910F91FF90EF90DF90CF90BF90AF90A6
:101090009F908F907F900895CF93DF93D82FC0912A
:1010A0009D05C7FD1AC00E94350E0E94190E80E0F2
:1010B0000E94E30D8D2F0E94E30D80E00E94E30D5E
:1010C00080E00E94E30D80E00E94E30D80E00E943A
:1010D000E30D0E94990DC150E4CF64E670E080E01A
:1010E00090E00E94EA0A64E670E080E090E0DF9120
:1010F000CF910C94EA0A6115710579F0FB0101901A
:101100000020E9F73197AF01461B570BDC01ED9149
:10111000FC910280F381E02D099480E090E0089535
:10112000FC01918D828D981761F0828DDF01A80FEF
:10113000B11D5D968C91928D9F5F9F73928F90E011
:1011400008958FEF9FEF0895FC01918D828D981780
:1011500031F0828DE80FF11D858D90E008958FEFBD
:101160009FEF0895FC01918D228D892F90E0805C86
:101170009F4F821B91098F739927089583EA94E00A
:101180000E94B20821E0892B09F420E0822F089503
:10119000FC01848DDF01A80FB11DA35ABF4F2C9114
:1011A000848D90E001968F739927848FA689B789E3
:1011B0002C93A089B1898C9180648C93938D848DBC
:1011C000981306C00288F389E02D80818F7D80838B
:1011D0000895EF92FF920F931F93CF93DF93EC014B
:1011E00081E0888F9B8D8C8D981305C0E889F989E3
:1011F000808185FD24C0F62E0B8D10E00F5F1F4F00
:101200000F731127E02E8C8DE8120CC00FB607FC6F
:10121000FACFE889F989808185FFF5CFCE010E9458
:10122000C808F1CF8B8DFE01E80FF11DE35AFF4F87
:10123000F0820B8FEA89FB898081806207C0EE898A
:10124000FF896083E889F98980818064808381E0F7
:1012500090E0DF91CF911F910F91FF90EF90089553
:10126000CF93DF93EC01888D8823C9F0EA89FB894D
:10127000808185FD05C0A889B9898C9186FD0FC044
:101280000FB607FCF5CF808185FFF2CFA889B98919
:101290008C9185FFEDCFCE010E94C808E7CFDF918A
:1012A000CF91089580E090E0892B29F00E94BE083C
:1012B00081110C94000008953FB7F89480918F0439
:1012C00090919004A0919104B091920426B5A89BAE
:1012D00005C02F3F19F00196A11DB11D3FBFBA2FC8
:1012E000A92F982F8827820F911DA11DB11DBC0128
:1012F000CD0142E0660F771F881F991F4A95D1F7ED
:10130000089508958F929F92AF92BF92CF92DF92ED
:10131000EF92FF920F931F93CF93DF937C018B018A
:101320006C0182E0C80ED11C4701E5E08E0E911CD5
:10133000C0E0D0E0F60141916F0150E060E070E064
:101340002AE0C8010E9492165C016EE2C8010E9468
:10135000EF168A0D9B1DC80FD91FC814D90451F769
:10136000F701458150E060E070E02AE0C8010E948A
:1013700092168C0F9D1FDF91CF911F910F91FF90BF
:10138000EF90DF90CF90BF90AF909F908F90089597
:101390000E942A211F93CF93DF93182F66E270E0FB
:1013A0000E940813C82FD0E067E270E0812F0E94EE
:1013B0000813DC2FCC279E01282BC901DF91CF9188
:1013C0001F91089526ED31E0FC0131832083FB015C
:1013D0004081518162817381FC0142835383648324
:1013E000758308951F920F920FB60F9211242F93B9
:1013F0003F934F935F936F937F938F939F93AF939D
:10140000BF93EF93FF9383EA94E00E94C808FF9193
:10141000EF91BF91AF919F918F917F916F915F916C
:101420004F913F912F910F900FBE0F901F901895E5
:101430001F920F920FB60F9211242F938F939F93A9
:10144000EF93FF93E091B304F091B4048081E091B5
:10145000B904F091BA0482FD12C090818091BC045D
:101460008F5F8F732091BD04821751F0E091BC040F
:10147000F0E0ED55FB4F958F8093BC0401C0808157
:10148000FF91EF919F918F912F910F900FBE0F9031
:101490001F901895833081F028F4813099F08230C4
:1014A000A1F008958730A9F08830B9F08430D1F4E4
:1014B000809180008F7D03C0809180008F77809322
:1014C0008000089584B58F7702C084B58F7D84BD78
:1014D00008958091B0008F7703C08091B0008F7D18
:1014E0008093B00008951F93CF93DF93282F30E0AF
:1014F000F901EE58FF4F8491F901E656FF4FD49160
:10150000F901E255FF4FC491CC23C9F0162F811188
:101510000E944A0AEC2FF0E0EE0FFF1FEA57FF4F40
:10152000A591B4918FB7F894111105C09C91ED2F3E
:10153000E095E92302C0EC91ED2BEC938FBFDF9196
:10154000CF911F910895CF93DF9390E0FC01E65671
:10155000FF4F2491FC01E255FF4F8491882361F1F4
:1015600090E0880F991FFC01E057FF4FC591D4917F
:10157000FC01EA57FF4FA591B491611109C09FB7D3
:10158000F8948881209582238883EC912E230BC0C8
:10159000623061F49FB7F8943881822F809583235D
:1015A0008883EC912E2B2C939FBF06C08FB7F894A5
:1015B000E8812E2B28838FBFDF91CF910895823051
:1015C000910538F0880F991F880F991F059701978B
:1015D000F1F708958F929F92AF92BF92CF92DF92D0
:1015E000EF92FF926B017C010E945C094B015C0150
:1015F000C114D104E104F104F1F00E945C09DC01A2
:10160000CB0188199909AA09BB09883E9340A10515
:10161000B10570F321E0C21AD108E108F10888EEA3
:10162000880E83E0981EA11CB11CC114D104E104F2
:10163000F10419F7DDCFFF90EF90DF90CF90BF90CE
:10164000AF909F908F9008952FB7F89460918B047E
:1016500070918C0480918D0490918E042FBF089519
:101660001F920F920FB60F9211242F933F938F93D7
:101670009F93AF93BF9380918B0490918C04A09122
:101680008D04B0918E0430918A0423E0230F2D370E
:1016900020F40196A11DB11D05C026E8230F029676
:1016A000A11DB11D20938A0480938B0490938C0418
:1016B000A0938D04B0938E0480918F049091900438
:1016C000A0919104B09192040196A11DB11D809347
:1016D0008F0490939004A0939104B0939204BF91CF
:1016E000AF919F918F913F912F910F900FBE0F90CF
:1016F0001F9018951F920F920FB60F9211242F93DF
:101700003F934F935F936F937F938F939F93AF9389
:10171000BF93EF93FF93E0910401F09105010995C8
:10172000FF91EF91BF91AF919F918F917F916F91B9
:101730005F914F913F912F910F900FBE0F901F908F
:1017400018951F920F920FB60F9211242F933F936B
:101750004F935F936F937F938F939F93AF93BF93B9
:10176000EF93FF93E0910201F09103010995FF913E
:10177000EF91BF91AF919F918F917F916F915F9109
:101780004F913F912F910F900FBE0F901F90189582
:101790002A9A08952A9808951F93CF93DF93182FBC
:1017A00060E270E00E940813C82FD0E061E270E0B0
:1017B000812F0E940813DC2FCC279E01282BC90102
:1017C000DF91CF911F9108958EBD00000DB407FEEB
:1017D000FDCF8EB50895CF92DF92EF92FF920F93D7
:1017E0001F93CF93DF93EC017A018B016C01C40E40
:1017F000D51ECC15DD05A9F00E94CA0B8FE00E9412
:10180000E40B8D2F0E94E40B8C2F0E94E40B219699
:1018100080E00E94E40BF80181938F010E94C80BC5
:10182000E8CFC701DF91CF911F910F91FF90EF900B
:10183000DF90CF900895CF92DF92EF92FF920F93B7
:101840001F93CF93DF93EC017A018B016C01C40EDF
:10185000D51ECC15DD05A1F00E94CA0B80EF0E94B9
:10186000E40B8D2F0E94E40B8C2F0E94E40B219639
:10187000F80181918F010E94E40B0E94C80BE9CF0F
:10188000C701DF91CF911F910F91FF90EF90DF90F3
:10189000CF9008951F93CF93DF9300D0CDB7DEB7DD
:1018A000182F6A8399830E94CA0B80EF0E94E40B71
:1018B0009981892F0E94E40B812F0E94E40B6A8199
:1018C000862F0E94E40B0E94C80B81E00F900F90BE
:1018D000DF91CF911F9108951F93CF93DF9300D095
:1018E000CDB7DEB7182F80E590E069837A830E9438
:1018F0003D0121E041E050E069817A81812F0E9421
:101900000F100E943C0181E090E00F900F90DF915A
:10191000CF911F910895FF920F931F93CF93DF9361
:10192000F82E80E590E00E943D01C0E0D0E08F2DD0
:101930000E94CA098C01892B21F08F2D0E94CA09AF
:10194000EC01C017D10799F70E943C01CE01DF914D
:10195000CF911F910F91FF900895AF92BF92CF92B8
:10196000DF92EF92FF921F93CF93DF93182F5B01CB
:101970007A0180E590E00E943D01C0E0D0E0812F37
:101980000E94CA096C01892B21F0812F0E94CA098B
:10199000EC01CC15DD0599F7209799F463E070E030
:1019A000812F0E9408138431F1F08823E1F0C1E017
:1019B000D0E08C3111F4C0E0D0E0D195C195D109CF
:1019C00012C0EC16FD060CF4E7011C161D065CF4B3
:1019D00020E0AE01B501812F0E940F1060E470E09D
:1019E000812F0E94A80E0E943C01CE01DF91CF9171
:1019F0001F91FF90EF90DF90CF90BF90AF90089530
:101A0000CF93C82F80E590E00E943D0160E170E037
:101A10008C2F0E94A80E4FEF62E070E08C2F0E9486
:101A2000FE12CF910C943C01FF920F931F93CF9322
:101A3000DF9300D0CDB7DEB7F82E8A012A83698301
:101A40000E94000D80E590E00E943D012A8169819D
:101A5000462F422B60E070E08F2D0E94FE12011590
:101A6000110551F400918804109189040F5F1F4FF4
:101A70001093890400938804412F64E070E08F2D57
:101A80000E94FE12402F65E070E08F2D0E94FE1232
:101A900061E070E08F2D0E94A80E0E943C0181E061
:101AA0000F900F90DF91CF911F910F91FF900895AC
:101AB0001F93CF93DF931F92CDB7DEB7182F80E52A
:101AC00090E00E943D0163E070E0812F0E940813C6
:101AD00089830E943C0189810F90DF91CF911F91F2
:101AE0000895E3EAF4E0A089B18982E08C93A485AB
:101AF000B5851C92A685B7858FEC8C93108EA48932
:101B0000B58986E08C93A289B3898C9180618C938E
:101B1000A289B3898C9188608C93A289B3898C91B6
:101B200080688C930288F389E02D80818F7D80838B
:101B30000895CF93DF93C6E9D5E061E08C810E94E0
:101B4000730A8D819E810E94DF0A60E08C810E9471
:101B5000730A8D819E8128E2AC01249FC001259FDC
:101B6000900D1124DF91CF910C94DF0ACF93DF9376
:101B7000C6E9D5E061E08C810E94730A8D819E8167
:101B80000E94DF0A60E08C810E94730A8D819E8131
:101B900025E0AC01249FC001259F900D11240E94D7
:101BA000DF0A61E08C810E94730A8D819E810E9410
:101BB000DF0A60E08C810E94730A8D819E81DF9133
:101BC000CF910C94DF0A81110C94B60D61E08091E5
:101BD0009A050E94730A80919B0590919C050E9432
:101BE000DF0A60E080919A050E94730A80919B054C
:101BF00090919C050E94DF0A61E080919A050E9405
:101C0000730A80919B0590919C050E94DF0A60E019
:101C100080919A050E94730A80919B0590919C0582
:101C200025E0AC01249FC001259F900D11240C9448
:101C3000DF0ACF93DF93C9E1D0E0809196059091C0
:101C40009705A0919805B09199050C2E04C0B69502
:101C5000A795979587950A94D2F781700E94E30D16
:101C6000219758F7DF91CF910895CF93DF93C6E97D
:101C7000D5E061E08C810E94730A8D819E810E9473
:101C8000DF0A60E08C810E94730A2D813E81A901E8
:101C9000569547956AE0629FC001639F900D11249D
:101CA000840F951FDF91CF910C94DF0ACF92DF92C2
:101CB000EF92FF92CF93DF936C01990FEE08FF082C
:101CC000F7FE1BC06DE283EA94E00E94EF16EC0180
:101CD00044275527BA014C195D096E097F092AE08E
:101CE00083EA94E00E9492168C0F9D1FDF91CF91A2
:101CF000FF90EF90DF90CF9008952AE0B701A60102
:101D000083EA94E0DF91CF91FF90EF90DF90CF9046
:101D10000C949216CF93DF93EC0186ED91E09983BA
:101D200088831A821B821C821D8280E590E00E94BB
:101D30003D01BE016E5F7F4F44E050E08FE090E0D8
:101D40000E94EB0B0E943C01CE01DF91CF910895E0
:101D5000CF93C82F462F61E070E00E94FE1261E031
:101D600070E08C2F0E9408138111F9CFCF91089554
:101D7000CF92DF92EF92FF92CF93DF936C01990F96
:101D8000EE08FF08F7FE16C06DE283EA94E00E94B9
:101D9000EF16EC0144275527BA014C195D096E096D
:101DA0007F092AE083EA94E00E9492167C01EC0EFF
:101DB000FD1E08C02AE0B701A60183EA94E00E9454
:101DC00092167C016CEF71E083EA94E00E947B083C
:101DD0008E0D9F1DDF91CF91FF90EF90DF90CF9000
:101DE0000895CF936CE271E080E090E00E94EA0AEF
:101DF000CFB7F8948091AA05811127C0E8EBF0E0F5
:101E00008491E4EAF0E09491E82FF0E0EE0FFF1FF8
:101E1000E057FF4FA591B491EC91E92321F461E0E3
:101E20008AE00E94730A61E08AE00E94A30A8CB5EE
:101E300080618CBD8CB580648CBD61E08DE00E94BA
:101E4000A30A61E08BE00E94A30A8091AA058F5F3C
:101E50008093AA05CFBF229A80E590E00E943D01C1
:101E600060E880E090E00E944A0C65E58BE190E03C
:101E70000E944A0C65E58AE190E00E944A0C0E94AB
:101E80003C0180E090E4909394048093930480E07C
:101E900090E690939C0480939B0480E098E4909358
:101EA00096048093950480E098E690939E04809336
:101EB0009D0480E090E5909398048093970480E0DF
:101EC00090E79093A00480939F0480E098E590931E
:101ED0009A048093990480E098E79093A2048093F9
:101EE000A104CF9108951F93CF93DF93CDB7DEB7B1
:101EF000C254D1090FB6F894DEBF0FBECDBFFC01AE
:101F000082819381A481B58123968CAF9DAFAEAFC2
:101F1000BFAF239711E023961FAF239723964CADB5
:101F20005DAD6EAD7FAD23974BAB5CAB6DAB7EAB68
:101F30008DA79EA7AFA7B8AB18AB4DA55EA56FA5A3
:101F400078A94FA358A769A77AA71EAB4BA95CA98C
:101F50006DA97EA949A35AA36BA37CA326ED31E00A
:101F60003C8B2B8B4FEF4D8B4E8B4F8B188E3E87C0
:101F70002D871AA74FA158A569A57AA54F87588B19
:101F8000698B7A8B1CA349A15AA16BA17CA14987BB
:101F90005A876B877C873A8329838B839C83AD83A5
:101FA000BE830E94F10E80E590E00E943D0146E074
:101FB00050E066E071E089E090E00E941B0CCE01E9
:101FC00003960E94350144E050E0BE01615F7F4FFF
:101FD00081E090E00E941B0C44E050E0BE016B5E8B
:101FE0007F4F85E090E00E941B0C0E943C011C8703
:101FF00089859A85AB85BC8580938A0590938B05EE
:10200000A0938C05B0938D05CE5BDF4F0FB6F8948F
:10201000DEBF0FBECDBFDF91CF911F9108958F928C
:102020009F92AF92BF92CF92DF92EF92FF920F9367
:102030001F93CF93DF93B82E4B018A01A22E68E243
:1020400070E00E940813C82FD0E069E270E08B2D89
:102050000E940813DC2FCC27C82B9E013770CB2C95
:10206000D12CC601880F991FAC0145565B4F6A0100
:10207000FA0180819181820F931FA801420F531FA3
:102080004130584098F060E078E07B01E21AF30AB2
:10209000A701B4010E94EB0BA8014E195F09B4011E
:1020A0006E0D7F1DF6018081918102C0A801B401EF
:1020B0000E94EB0BA1100EC0C00FD11F4D2F68E284
:1020C00070E08B2D0E94FE124C2F69E270E08B2D88
:1020D0000E94FE12DF91CF911F910F91FF90EF9020
:1020E000DF90CF90BF90AF909F908F9008959F9278
:1020F000AF92BF92CF92DF92EF92FF920F931F9316
:10210000CF93DF93982E8B015A01690164E270E04E
:102110000E940813E82EF12C65E270E0892D0E94E0
:102120000813FE2CEE24E82AE701C00FD11F9E0100
:102130003770E92CF12CC701880F991FAC014D565F
:102140005B4F7A01FA0180819181820F931FA9016F
:102150004C0D5D1D4130584090F000E018E0021B2E
:10216000130BA801B5010E941B0CA601401B510BCB
:10217000B501600F711FF7018081918102C0A60136
:10218000B5010E941B0CCC0DDD1D4D2F64E270E0EB
:10219000892D0E94FE124C2F65E270E0892DDF919F
:1021A000CF911F910F91FF90EF90DF90CF90BF9054
:1021B000AF909F900C94FE12FF920F931F93CF93BA
:1021C000DF93F82EC0E0D0E08F2D0E94CC0B8C0165
:1021D000892B21F08F2D0E94CC0BEC01C017D10769
:1021E00099F7CE01DF91CF911F910F91FF90089544
:1021F0000895CF93DF931F92CDB7DEB76983DC01DB
:10220000ED91FC910280F381E02D41E050E0BE01B0
:102210006F5F7F4F09950F90DF91CF910895FC017B
:10222000818D928D0895FC0184899589089526ED0C
:1022300031E0FC0131832083FB01408951896289AF
:102240007389FC0142835383648375830895DC01A1
:10225000ED91FC91008CF18DE02D0994CF93DF93EB
:102260001F92CDB7DEB76983DC01ED91FC9102804E
:10227000F381E02D41E050E0BE016F5F7F4F099593
:102280000F90DF91CF910895FC019485FB01848527
:10229000981303C081E0943009F480E0089521E0B0
:1022A000FC018485843009F420E0822F0895CF93C7
:1022B000DF931F92CDB7DEB7FC01218D328D232B2A
:1022C00049F0BE016F5F7F4F808D0E946C0C898149
:1022D00090E002C08FEF9FEF0F90DF91CF910895B4
:1022E000CF93DF93FC01218D328D2115310519F437
:1022F0008FEF9FEF11C0EC014217530708F0A901BF
:10230000888D0E94AD0C1816190694F7298D3A8D08
:10231000281B390B3A8F298FDF91CF9108950F93A6
:102320001F93CF93DF931F92CDB7DEB7FC01218DB2
:10233000328D232B61F08C0141E050E0BE016F5FD4
:102340007F4F808D0E94AD0C181619061CF08FEF80
:102350009FEF08C0F801818D928D0197928F818F38
:10236000898190E00F90DF91CF911F910F91089597
:102370000F931F93CF93DF93CDB7DEB728970FB698
:10238000F894DEBF0FBECDBF8C01F801818D928D18
:10239000892B49F0D801ED91FC910680F781E02D61
:1023A000C8010995F2CF808D0E948B0C1816190672
:1023B0005CF548E050E0BE016F5F7F4FD801589652
:1023C0008C910E94AD0C9C0118161906DCF48981D1
:1023D0009A81AB81BC81F801808B918BA28BB38BEE
:1023E0008D8190E0982F88272E81820F911D958BEB
:1023F000848B2F8130E0322F22278885280F311DD2
:10240000328F218FC90102C080E090E028960FB67C
:10241000F894DEBF0FBECDBFDF91CF911F910F911A
:102420000895AF92BF92CF92DF92FF920F931F93C6
:10243000CF93DF938C015B01EA01FC01C688D7884A
:10244000F08C80E590E00E943D018F2D0E94DC1011
:102450008C179D0720F48F2D0E94DC10EC019E014B
:10246000A501B6018F2D0E9477100E943C01F80152
:10247000868997898C0F9D1F978B868BCE01DF9164
:10248000CF911F910F91FF90DF90CF90BF90AF90B1
:102490000895CF92DF92EF92FF920F931F93CF9305
:1024A000DF93CDB7DEB7AF970FB6F894DEBF0FBEA0
:1024B000CDBF7C016A0106ED11E01A8309831C86F9
:1024C0001B8688EE93E0A0E0B0E08D879E87AF8703
:1024D000B88B8EE391E09A878987188F0F8B198EBE
:1024E0001A8E1B8E1C8E84E089A31DA30CA31EA232
:1024F0001FA218A619A680918A0590918B05A0911C
:102500008C05B0918D058CA79DA7AEA7BFA78B8327
:102510009C83AD83BE8318861F82AE014C5D5F4FE6
:10252000CE0101960E948A0281309105B1F4D70153
:10253000ED91FC910088F189E02D1BA70AA78EA1DF
:102540009FA1A8A5B9A58CA79DA7AEA7BFA7A601C7
:10255000BE01665D7F4FC7010995AF960FB6F8942F
:10256000DEBF0FBECDBFDF91CF911F910F91FF90C6
:10257000EF90DF90CF900895CF93DF93EC01888D9B
:10258000843061F00E94000DE88DF0E0EE0FFF1F37
:10259000E45FFB4F1182108284E0888FDF91CF913E
:1025A0000895EF92FF921F93CF93DF93FC01208D4C
:1025B000243011F080E01CC07B01EC0110E0812F81
:1025C0000E94580D811102C0188F05C08831E1F3B7
:1025D0001F5F1430A1F7888D843061F3FD86EC868F
:1025E0001A8E198E20E0A70162E00E94140D81E08E
:1025F000DF91CF911F91FF90EF9008959B0190E0A4
:102600000496982F8827642F820F931F0C944A0CEE
:102610000F931F93CF93DF931F92CDB7DEB790E058
:102620000496982F88278C01060F171F0E94CA0B4B
:102630008FE00E94E40B812F0E94E40B802F0E9408
:10264000E40B80E00E94E40B89830E94C80B89811F
:102650000F90DF91CF911F910F910895CF93FC01BF
:10266000C08D80E590E00E943D0160E270E08C2F1B
:102670000E94A80E62E070E08C2F0E94081384FD77
:1026800019C062E070E08C2F0E94081383FF0BC01A
:1026900048E162E070E08C2F0E94FE120E943C0133
:1026A00080E090E011C00E943C0180E590E00E9433
:1026B0003D01E0CF40E162E070E08C2F0E94FE120D
:1026C0000E943C0181E090E0CF910895CF93DF9389
:1026D000C82FD62F472F60E170E00E94FE124D2FC9
:1026E00061E170E08C2FDF91CF910C94FE12BF92CC
:1026F000CF92DF92EF92FF920F931F93CF93DF93CE
:1027000000D000D000D0CDB7DEB7FC01208D243042
:1027100009F053C06A017B018C01B12C63E070E0C9
:102720008B2D0E940813811103C0F801B08E06C0E2
:102730008831D9F3B394F4E0BF12F0CFF801808D63
:102740008430D9F196E0E0EEF1E0DE0111960190DF
:102750000D929A95E1F7F70193819F779C8394817D
:102760009D8395819E83B7016E5F7F4F90E0982F88
:10277000882744E050E0845F9B4F0E941B0CB60109
:10278000F801808D0E946613F801808D90E0982FEB
:10279000882746E050E0BE016F5F7F4F8A5F9B4F06
:1027A0000E941B0CF801128E118E20E8A60162E037
:1027B000808D0E94140D81E001C080E026960FB646
:1027C000F894DEBF0FBECDBFDF91CF911F910F9167
:1027D000FF90EF90DF90CF90BF900895FF920F93FE
:1027E0001F93CF93DF93FB01DC0157961C921E923F
:1027F00056975896FC908281811109C0838181117E
:1028000006C08481811103C085818823F9F04115B8
:102810005105E1F08A01EF0180E590E00E943D0161
:10282000BE016E5F7F4F2F2D30E0922F882744E04E
:1028300050E0845F9B4F0E941B0CB8018F2D0E94BB
:1028400066130E943C0181E090E002C080E090E0CD
:10285000DF91CF911F910F91FF900895FC01848526
:10286000843011F00C94580D80E008954F925F92DF
:102870006F927F928F929F92AF92BF92CF92DF9290
:10288000EF92FF921F93CF93DF93CDB7DEB72D97D3
:102890000FB6F894DEBF0FBECDBF7C019CE0A92E21
:1028A00094E0B92E10E0C12CD12C28EE422E23E06A
:1028B000522E612C712C30E8832E31E0932E1C8235
:1028C0001B824D825E826F8278869A8289821D8702
:1028D000D5012D913D915D01F701848195812817E6
:1028E0003907B1F4CE0101960E942E14843169F0AB
:1028F000CE0101960E942E148C3151F4CE01019626
:102900000E942C01892B91F003C0CC24C394D12CBC
:102910001F5F1430A1F6CD2871F4D701ED91FC9121
:102920000480F581E02DC701099505C0CE0101960F
:102930000E944001EDCF2D960FB6F894DEBF0FBE7A
:10294000CDBFDF91CF911F91FF90EF90DF90CF909F
:10295000BF90AF909F908F907F906F905F904F90BF
:1029600008952F923F924F925F926F927F928F9233
:102970009F92AF92BF92CF92DF92EF92FF920F930E
:102980001F93CF93DF93CDB7DEB72E970FB6F89492
:10299000DEBF0FBECDBF7C016B015A010E94361411
:1029A0000CE014E020E0612C712C88EE282E83E0EE
:1029B000382E412C512C90E8892E91E0992E1C82C2
:1029C0001B822D823E824F8258869A8289822D8771
:1029D000F801419151918F01F70184819581481748
:1029E000590741F4CE0101962E870E942E142E85A0
:1029F0008731E9F02F5F243011F7C3012E960FB60F
:102A0000F894DEBF0FBECDBFDF91CF911F910F9124
:102A1000FF90EF90DF90CF90BF90AF909F908F90FE
:102A20007F906F905F904F903F902F900895A501F9
:102A3000B601CE0101962E870E948601680E791E8E
:102A40002E85D8CF8F929F92AF92BF92CF92DF9276
:102A5000EF92FF920F931F93CF93DF93CDB7DEB723
:102A60002D970FB6F894DEBF0FBECDBF7C0100E0FE
:102A700010E038EE832E33E0932EA12CB12C40E8E9
:102A8000C42E41E0D42E1C821B828D829E82AF8296
:102A9000B886DA82C9820D87CE0101960E942E1473
:102AA000811125C0F7014481558120E061E0802F2C
:102AB0000E94140D80E590E00E943D0163E070E00B
:102AC000802F0E940813833129F462E070E0802F88
:102AD0000E94A80E0E943C01F70184819581000F9D
:102AE000111FF801E45FFB4F9183808305C00F5FE6
:102AF0001F4F0430110539F62D960FB6F894DEBF3E
:102B00000FBECDBFDF91CF911F910F91FF90EF903E
:102B1000DF90CF90BF90AF909F908F9008950895D1
:102B2000CF92DF92EF92FF920F931F93CF93DF9399
:102B30006C017A018B01C0E0D0E0CE15DF0589F091
:102B4000D8016D918D01D601ED91FC910190F0813C
:102B5000E02DC6010995892B11F47E0102C0219652
:102B6000ECCFC701DF91CF911F910F91FF90EF90B4
:102B7000DF90CF900895CF93DF93D82FC0919D051C
:102B8000C7FD19C00E94350E0E94190E0E94B60D95
:102B90008D2F0E94E30D80E00E94E30D80E00E94F3
:102BA000E30D80E00E94E30D80E00E94E30D0E94AF
:102BB000990DC150E5CFDF91CF9108950F931F93E9
:102BC000CF93DF93EC0188819981009729F02A81C6
:102BD0003B812617370788F48B016F5F7F4F0E9478
:102BE0006020009761F0998388831B830A832C817E
:102BF0003D81232B11F4FC01108281E001C080E0B3
:102C0000DF91CF911F910F910895EF92FF920F9353
:102C10001F93CF93DF93FC012481358161157105EA
:102C200011F480E019C041155105A9F07B01EC01B8
:102C30008A01020F131FB8010E94DE15882389F351
:102C4000288139818C819D81B701820F931F0E9459
:102C500045211D830C8381E0DF91CF911F910F915E
:102C6000FF90EF900895CF93DF93EC0188819981D5
:102C7000009711F00E94C81F198218821D821C82C1
:102C80001B821A82DF91CF910895EF92FF920F93EA
:102C90001F93CF93DF93EC017B018A01BA010E945D
:102CA000DE15811104C0CE010E94331607C01D83BA
:102CB0000C83B701888199810E944521CE01DF9163
:102CC000CF911F910F91FF90EF900895CF93DF93D5
:102CD000EC01FB018617970761F060817181611536
:102CE000710529F0448155810E94451602C00E9459
:102CF0003316CE01DF91CF910895FC01118210822D
:102D000013821282158214826115710551F0FB0144
:102D100001900020E9F73197AF01461B570B0C9447
:102D2000451608954F925F926F927F92EF92FF92B5
:102D30000F931F93CF93DF93CDB7DEB7A1970FB655
:102D4000F894DEBF0FBECDBF7C01FA01CB0119A202
:102D5000223008F42AE08E010F5D1F4F422E512CC5
:102D6000612C712CBF01A30192010E94EC21F90199
:102D7000CA01015011096A3014F4605D01C0695C38
:102D8000D8016C93232B242B252B61F7B801C701A5
:102D90000E947B08A1960FB6F894DEBF0FBECDBF90
:102DA000DF91CF911F910F91FF90EF907F906F90E7
:102DB0005F904F9008950F931F93CF93DF93EC0193
:102DC0000E947B088C016CEF71E0CE010E947B08B1
:102DD000800F911FDF91CF911F910F910895DC011A
:102DE000ED91FC910190F081E02D09940C947B0809
:102DF000CF93DF93CDB7DEB7E0970FB6F894DEBF81
:102E00000FBECDBF789484B5826084BD84B58160E7
:102E100084BD85B5826085BD85B5816085BD8091A5
:102E20006E00816080936E0010928100809181001D
:102E30008260809381008091810081608093810015
:102E4000809180008160809380008091B1008460D7
:102E50008093B1008091B00081608093B000809138
:102E60007A00846080937A0080917A0082608093F7
:102E70007A0080917A00816080937A0080917A0054
:102E8000806880937A001092C1001092840510929D
:102E900085051092860510928705109242051092C2
:102EA0004305109244051092450560ED77E080E0FF
:102EB00090E00E94EA0A83EA94E09093830580936D
:102EC00082050E94710D0E94240B6093420570934D
:102ED000430580934405909345056DEE71E0809124
:102EE0008205909183050E94F6166AE070E080E00A
:102EF00090E00E94EA0A11E0109356050E94710DBD
:102F00006FEF71E083EA94E00E94DB1660E087E0F7
:102F10000E94A30A61E085E00E94A30A61E086E0C6
:102F20000E94A30A61E08BE00E94A30A61E088E0AE
:102F30000E94A30A61E089E00E94A30A61E087E0A1
:102F40000E94730A60E085E00E94730A61E086E0F7
:102F50000E94730A61E08BE00E94730A60E088E0DF
:102F60000E94730A60E089E00E94730A80917204F3
:102F7000811129C010925A041092590488EE93E0EE
:102F8000A0E0B0E080935B0490935C04A0935D04A8
:102F9000B0935E048EE391E09093580480935704BD
:102FA00086ED91E090936604809365041092670427
:102FB000109268041092690410926A0484E080936D
:102FC0006F041093720484E194E090938F058093D2
:102FD0008E050E94F10E80E590E00E943D0146E0E2
:102FE00050E066E071E089E090E00E941B0C86ED05
:102FF00091E09A8389831B821C821D821E82CE01EE
:1030000003960E9435010E943C0100918E051091AB
:103010008F05D80192961D921D921D921C92959734
:10302000F80116A217A210A611A69A961D921D923B
:103030001D921C929D9780E69AEEA0E0B0E086ABD0
:1030400097ABA0AFB1AF80EA9FE0A0E0B0E082AF65
:1030500093AFA4AFB5AFD801189686E0FD01282F35
:1030600011922A95E9F79801225F3F4F94E1F90107
:1030700011929A95E9F7E6E0F1E001900D928A95B8
:10308000E1F77801F2E4EF0EF11CD7011C920E94E7
:10309000A9212FEC37E040E050E00E940E22DC0135
:1030A000CB010196A11DB11DF80184839583A683F0
:1030B000B78380839183A283B3835801F3E4AF0E77
:1030C000B11CC5010E94BC1264E470E0C5010E94FD
:1030D000D11281111BC06AE272E083EA94E00E947F
:1030E000DB1686ED91E09A8389838091A605909105
:1030F000A705A091A805B091A9058B839C83AD83FA
:10310000BE83CE0101960E94730F84C10E94240BDE
:103110002B013C01812C912CD12C43E0342E52E028
:10312000C52ED7018C91833009F404C1811121C0CF
:10313000F80184819581A681B7810196A11DB11DF9
:1031400084839583A683B7830E94240B6419750931
:103150008609970928EE33E040E050E00E94EC2118
:10316000A90161E0C8010E943E0781E0D7018C936C
:10317000C3C0843001F5F80184819581A681B781AF
:103180000196A11DB11D84839583A683B7830E94F8
:10319000240B641975098609970928EE33E040E08D
:1031A00050E00E94EC21A90163E0C8010E943E07A3
:1031B000D701CC92A1C0813061F5F80142AD53AD89
:1031C00064AD75AD9E012F5F3F4FC8010E94780529
:1031D000D82EF2E08F1390C089819A81AB81BC8197
:1031E000F80184839583A683B7830E94240B641916
:1031F00075098609970928EE33E040E050E00E9407
:10320000EC21A90163E0C8010E943E07D701DC92CE
:1032100079C0823009F070C0F80142AD53AD64ADA1
:1032200075AD9E012F5F3F4FC8010E947805D82ED3
:10323000F5E08F135BC0D7013C92F80182A193A106
:10324000A4A1B5A1892B8A2B8B2B41F424E833E070
:1032500040E050E022A333A344A355A3F80186A184
:1032600097A1A0A5B1A5892B8A2B8B2B61F482A1F4
:1032700093A1A4A1B5A1B695A7959795879586A387
:1032800097A3A0A7B1A7F80182A593A5A4A5B5A56A
:10329000892B8A2B8B2BA9F482A193A1A4A1B5A180
:1032A000AC01BD0123E076956795579547952A9522
:1032B000D1F7841B950BA60BB70B82A793A7A4A7E6
:1032C000B5A7F80186A197A1A0A5B1A586A797A744
:1032D000A0ABB1AB82A593A5A4A5B5A582AB93ABDA
:1032E000A4ABB5AB88248394912C0CC0F6E08F136B
:1032F00003C0D7011C9206C0BFEFDB1203C0F70169
:103300001082D12CF1E08F16910409F40ACF0E94AB
:10331000240BDC01CB0184199509A609B709F80132
:1033200026A937A940AD51AD281739074A075B07D1
:1033300008F0F7CEC5010E94BC12F8018481958186
:10334000A681B7810196A11DB11D84839583A683B3
:10335000B7830E94240BF801FE96608371838283F9
:103360009383F1E08F16910409F051C080E590E05D
:103370000E943D0160918E0570918F05625F7F4FC5
:10338000CE0101960E94E209CE0103960E9435010A
:1033900060918E0570918F056A5E7F4FCE01019618
:1033A0000E94E20944E050E0BE016D5F7F4F81E082
:1033B00090E00E941B0C60918E0570918F056E5EEF
:1033C0007F4FCE0101960E94E20944E050E0BE0129
:1033D0006D5F7F4F85E090E00E941B0C0E943C01D6
:1033E00060918E0570918F05625E7F4FCE010196D0
:1033F0000E94E2098B819C81AD81BE8180938A0508
:1034000090938B05A0938C05B0938D0503C08928FC
:1034100009F461CE6EE572E083EA94E00E94F6164C
:1034200088E090E00E94B80E6CE872E083EA94E0D5
:103430000E94F61687E090E00E94B80E61EA72E002
:1034400083EA94E00E94DB1667ED72E083EA94E081
:103450000E94DB168EE995E00E94221568E273E077
:1034600083EA94E00E94F6168E010F5F1F4FC80199
:103470000E948A0E63EA74E0C8010E948209C801B2
:103480000E948A0EEE80F12C6CE373E083EA94E0F4
:103490000E94F616C7010E94560E6FE373E083EA9E
:1034A00094E00E94F61662E473E083EA94E00E94DE
:1034B000F616C8010E948A0E63EA74E0C8010E94F1
:1034C00082096AE973E083EA94E00E94F61684EECA
:1034D0009CE00E94560E67E573E083EA94E00E9448
:1034E000DB16EEE1CE2ED12C61E088E00E94730A5B
:1034F00064E170E080E090E00E94EA0A60E088E029
:103500000E94730A64E170E080E090E00E94EA0AA1
:1035100021E0C21AD10841F768EE73E080E090E044
:103520000E94EA0AC12CD12CCE14DF04C4F461E05D
:1035300088E00E94730A6CE271E080E090E00E94F3
:10354000EA0A60E088E00E94730A6CE271E080E0C1
:1035500090E00E94EA0A3FEFC31AD30AE5CF68EE73
:1035600073E080E090E00E94EA0A68EE862E63E055
:10357000962EA12CB12C44244A9473E0572E612C32
:10358000712C0E94240B672B682B692B41F40E943D
:10359000240B623071058105910508F409C10E9470
:1035A000240B609384047093850480938604909325
:1035B0008704C0908004D0908104E0908204F09051
:1035C00083046C157D058E059F0540F4609380048F
:1035D000709381048093820490938304C09080044C
:1035E000D0908104E0908204F09083049B01AC01B0
:1035F0002C193D094E095F0969017A013AEFC3169A
:10360000D104E104F10408F4D3C060938004709302
:103610008104809382049093830484EF91E0A0E07E
:10362000B0E080934E0590934F05A0935005B09362
:1036300051051092520510925305109254051092A4
:1036400055058091460590914705A0914805B09198
:10365000490580934A0590934B05A0934C05B09380
:103660004D050E94240B6093460570934705809397
:103670004805909349050E94240B6093420570937E
:10368000430580934405909345050E94240B6B01EC
:103690007C0169E573E080918205909183050E9429
:1036A000F6162AE041E050E060E070E0809182058B
:1036B000909183050E94921660E673E080918205E6
:1036C000909183050E94F6162AE0B701A601809129
:1036D0008205909183050E94921662E673E08091C4
:1036E0008205909183050E94F6168091460590917F
:1036F0004705A0914805B0914905B701A601481BAF
:10370000590B6A0B7B0B2AE080918205909183050F
:103710000E94921662E673E0809182059091830583
:103720000E94F61640914605509147056091480564
:103730007091490580914A0590914B05A0914C05E7
:10374000B0914D05481B590B6A0B7B0B2AE0809109
:103750008205909183050E94921664E673E0809141
:103760008205909183050E94F6160E94240BAB01FE
:10377000BC012AE080918205909183050E949216F7
:1037800066E673E080918205909183050E94DB16C6
:1037900065E070E080E090E00E94EA0A0E94240B5D
:1037A00060934605709347058093480590934905BB
:1037B00081E00E94BB156DE673E083EA94E00E940D
:1037C000DB1660ED77E080E090E00E94EA0A80E09E
:1037D0000E94BB1561E773E083EA94E00E94DB1668
:1037E00060ED77E080E090E00E94EA0A8EE995E0E3
:1037F0000E9436144CE0C42E44E0D42E312C50E804
:10380000E52E51E0F52E1C821B828D829E82AF82B6
:10381000B886FA82E9823D86D6012D913D916D01EF
:103820008091A2059091A3052817390739F5C801A1
:103830000E942E14873111F08C3101F5C8010E94CD
:103840002C01892BD9F08B819C819E8B8D8B8D8156
:103850009E81AF81B8858F8B988FA98FBA8F89850C
:103860009A85AB85BC858B8F9C8FAD8FBE8F80E892
:1038700091E09C8B8B8B8D858F8F0FC03394B4E040
:103880003B12C1CF1E8A1D8A8F8A988EA98EBA8E4E
:1038900080E891E09C8B8B8B3F8E8F8D8430A9F4D8
:1038A00061E088E00E94730A64E670E080E090E0E6
:1038B0000E94EA0A60E088E00E94730A64E670E011
:1038C00080E090E00E94EA0AFAC165E773E083EACB
:1038D00094E00E94DB1660E088E00E94730A21EA0F
:1038E000222E20E0322E35EBC32E30E0D32ECE0137
:1038F00043960E94C700882309F4DBC1E9E7F0E0A2
:103900008491F101F490F601E490EE20A1F0811190
:103910000E944A0AEE2DF0E0EE0FFF1FE859FF4F1C
:10392000A591B4918C91F82231E020E009F430E0C7
:10393000832F922F02C080E090E0282F21702093E7
:103940007B0420917A04892B79F0222339F061E0FD
:1039500070E080E090E00E94EA0A0FC081E080936E
:103960007A0480937F0407C0222389F310927A049B
:1039700010927F0481E080937C0480E480937C003B
:1039800080917A00806480937A0080917A0086FD2D
:10399000FCCFA091780080917900B0E0B82B23E6AD
:1039A00030E00E94261FA30192010E940E22309354
:1039B0007E0420937D0480917C04882309F4D6C082
:1039C00080917F04882341F061E088E00E94730ABF
:1039D00081E00E944C0807C080E00E944C0860E033
:1039E00088E00E94730A10927C04C0C0CE01439606
:1039F0000E941201282F1CA61DA61EA61FA66DE35D
:103A000073E083EA94E028AB0E94F61628A9622F9F
:103A100083EA94E00E94EF166BE873E083EA94E097
:103A20000E94F61628A9293609F43CC10CF0A6C05C
:103A3000213609F039C1E0907D04F0907E046EEFEC
:103A400071E0CE0186960E947D1619A218A21BA2D3
:103A50001AA21DA21CA24AE0B801C7010E94B72108
:103A6000F80101900020E9F73197AF01401B510B9D
:103A7000B801CE0180960E9445168EA19FA10097A5
:103A800009F083C088A199A19FA38EA38AA19BA1BD
:103A900099A788A78CA19DA19BA78AA719A218A264
:103AA0001BA21AA21DA21CA288A199A10E94C81F34
:103AB0008AA59BA5019709F47DC08AA59BA50297BD
:103AC00009F493C01A8219821C821B821E821D82F5
:103AD000BE016A5D7F4FC8010E946616ED80FE80C0
:103AE000FFEFEF1AFF0AB701C8010E94DE15882315
:103AF00009F4EBC029813A818D819E816DEF71E0DF
:103B0000820F931F0E944521FE82ED82B801CE01F3
:103B100086960E94661689819A810E94C81FEAA42F
:103B2000FBA4E114F10409F07BC01CA68EA19FA1A7
:103B30000E94C81FE0919E05F0919F050280F381CD
:103B4000E02D44E050E0BE01645D7F4F8EE995E0DA
:103B5000099563E973E083EA94E00E94F616BE01DA
:103B6000645D7F4F83EA94E00E94DB16CE014396AA
:103B70000E942C01892B09F039CFB9CE233709F4E3
:103B800065C0243709F478C08FC068A179A1611598
:103B9000710509F497C048A559A52CA13DA142176C
:103BA000530708F48FC00E9445218CA19DA19BA7BB
:103BB0008AA778CF61E973E0C8010E947D164AA503
:103BC0005BA56EA17FA1C8010E940516811103C0EB
:103BD000C8010E943316B801CE0186960E9466166F
:103BE00089819A810E94C81F68CF61E973E0C8018A
:103BF0000E947D164AA55BA56EA17FA1C8010E9407
:103C00000516811103C0C8010E943316B801CE0108
:103C100086960E94661689819A810E94C81F52CF9B
:103C200023E0E216F10418F083E0E82EF12C6EA1F7
:103C30007FA1A701CE018C960E944C21ECE2F0E01E
:103C4000EC0FFD1FEE0DFF1D108270CF80917F04E1
:103C5000882349F06CE973E08EE995E00E947B08C7
:103C600061EA73E07FCF61EB73E08EE995E00E943B
:103C70007B0866EB73E076CF80917F04882329F080
:103C800010927F0467EC73E005C081E080937F04AD
:103C90006EED73E083EA94E00E94DB1681E080938E
:103CA0007C0464CF61E001C060E089E00E94730A97
:103CB0005DCF64EF73E083EA94E00E94DB160E941C
:103CC00052095FCC0E94C81FDDCEC8010E94331686
:103CD0001DCFEBEAF5E086ED91E0918380831282BF
:103CE000138214821582E3EAF4E01382128248EE12
:103CF00053E060E070E0448355836683778324EA71
:103D000031E03183208325EC30E03587248724ECB3
:103D100030E03787268720EC30E0318B208B21EC98
:103D200030E0338B228B22EC30E0358B248B26EC79
:103D300030E0378B268B118E128E138E148EE0E4BA
:103D4000F5E0168217821086118612861386148675
:103D5000158616861786108A118A128A138A148A83
:103D6000158AE1EBF5E0918380831282138214823D
:103D70001582E7EBF5E0918380831282138214822F
:103D80001582EDEBF5E09183808312821382148219
:103D90001582E3ECF5E09183808312821382148212
:103DA0001582E8E8F5E09183808312821382148201
:103DB0001582E0E9F5E091838083128213821482F8
:103DC0001582E9ECF5E091838083128213821482DC
:103DD0001582EFECF5E091838083128213821482C6
:103DE0001582E4EAF5E09183808380EC828388EA9F
:103DF000838381E0848383E08583EEE9F5E01382A9
:103E0000128284EC91E09183808384EE9CE0958320
:103E10008483E6E9F5E082ED91E8AAE5B1E08083EC
:103E20009183A283B3838BE0848389E091E09683BE
:103E3000858387E0878361E08BE00C94A30A692780
:103E40009627692778278727782708950E94772261
:103E5000B7FF0895821B930B0895EE0FFF1F059087
:103E6000F491E02D0994CF93DF938230910510F403
:103E700082E090E0E091D705F091D80520E030E0B5
:103E8000C0E0D0E0309711F14081518148175907C7
:103E9000C0F04817590761F482819381209719F087
:103EA0009B838A832BC09093D8058093D70526C027
:103EB0002115310519F04217530718F49A01BE0174
:103EC000DF01EF010280F381E02DDCCF2115310508
:103ED00009F1281B390B2430310590F412968D918D
:103EE0009C9113976115710521F0FB0193838283E7
:103EF00004C09093D8058093D705FD01329644C045
:103F0000FD01E20FF31F81939193225031092D930C
:103F10003C933AC02091D5053091D605232B41F42E
:103F200020910E0130910F013093D6052093D505D5
:103F300020910C0130910D012115310541F42DB76F
:103F40003EB74091100150911101241B350BE091B7
:103F5000D505F091D605E217F307A0F42E1B3F0B11
:103F60002817390778F0AC014E5F5F4F24173507EB
:103F700048F04E0F5F1F5093D6054093D5058193AF
:103F8000919302C0E0E0F0E0CF01DF91CF9108957E
:103F90000F931F93CF93DF93009709F48CC0FC011C
:103FA0003297138212820091D7051091D80501151E
:103FB000110581F420813181820F931F2091D50555
:103FC0003091D6052817390779F5F093D605E09397
:103FD000D50571C0D80140E050E0AE17BF0750F4DE
:103FE00012962D913C911397AD012115310509F1E0
:103FF000D901F3CF9D01DA0133832283608171817E
:10400000860F971F8217930769F4EC012881398185
:10401000260F371F2E5F3F4F318320838A819B817C
:1040200093838283452B29F4F093D805E093D70539
:1040300042C01396FC93EE931297ED01499159916A
:104040009E01240F351FE217F30771F480819181DF
:10405000840F951F029611969C938E938281938173
:1040600013969C938E931297E0E0F0E0D80112969D
:104070008D919C911397009719F0F8018C01F6CF60
:104080008D919C9198012E5F3F4F820F931F20913D
:10409000D5053091D6052817390769F4309729F4EA
:1040A0001092D8051092D70502C013821282109385
:1040B000D6050093D505DF91CF911F910F910895FB
:1040C000A0E0B0E0E6E6F0E20C944422EC010097B8
:1040D00021F4CB010E94331FB8C0FC01E60FF71F8B
:1040E0009C0122503109E217F30708F4ACC0D90152
:1040F0000D911C91119706171707B0F005301105A7
:1041000008F49FC0C80104978617970708F499C060
:1041100002501109061B170B019311936D937C93A9
:10412000CF010E94C81F8DC05B01A01AB10A4C01CB
:10413000800E911EA091D705B091D80540E050E0C7
:10414000E12CF12C109709F44AC0A815B905D1F556
:104150006D907C901197630182E0C80ED11CCA1447
:10416000DB0480F1A3014A195B096A0182E0C80EF1
:10417000D11C1296BC9012971396AC91B5E0CB1659
:10418000D10440F0B282A38351834083D9016D935F
:104190007C930AC00E5F1F4FC301800F911FF9016E
:1041A00091838083EB2DFA2FE114F10431F0D701D4
:1041B0001396FC93EE93129744C0F093D805E093C6
:1041C000D7053FC08D919C9111974817590708F466
:1041D000AC017D0112960D90BC91A02DB3CF8091C2
:1041E000D5059091D60588159905E1F4461757072E
:1041F000C8F480910C0190910D01009741F48DB7A6
:104200009EB74091100150911101841B950BE81746
:10421000F907C8F4F093D605E093D505F901718349
:1042200060830FC0CB010E94331F7C01009759F0BF
:10423000A801BE010E943C21CE010E94C81FC701F7
:1042400004C0CE0102C080E090E0CDB7DEB7EEE062
:104250000C94602281E090E0F8940C948622FB019B
:10426000DC0104C08D910190801921F4415050402F
:10427000C8F7881B990B0895FB01DC0102C001906F
:104280000D9241505040D8F70895FB01DC01019098
:104290000D920020E1F70895FB01DC0141505040F0
:1042A00048F001900D920020C9F701C01D924150C5
:1042B0005040E0F708958F929F92AF92BF92CF92B5
:1042C000DF92EF92FF92CF93DF93EC0168817981C7
:1042D0008A819B81611571058105910521F464E254
:1042E00079ED8BE597E02DE133EF41E050E00E945E
:1042F0000E2249015A019B01AC01A7EAB1E40E94D8
:104300002D226B017C01ACEEB4EFA50194010E945B
:104310003B22DC01CB018C0D9D1DAE1DBF1DB7FFE7
:1043200003C00197A109B04888839983AA83BB83FE
:10433000BC01CD019F77DF91CF91FF90EF90DF908F
:10434000CF90BF90AF909F908F9008950E945B2177
:10435000089582E191E00E945B210895609312012B
:104360007093130180931401909315010895BB2756
:104370004A3031F4992322F4BDE2909581959F4F04
:104380000C94C321BB27FB015527AA27880F991F2F
:10439000AA1FA41710F0A41B83955051B9F7A05D74
:1043A000AA3308F0A95DA193009779F7B111B193F1
:1043B0001192CB010C94DC21DC01FC01672F71917F
:1043C0007723E1F7329704C07C916D9370836291FB
:1043D000AE17BF07C8F30895A1E21A2EAA1BBB1B94
:1043E000FD010DC0AA1FBB1FEE1FFF1FA217B307C1
:1043F000E407F50720F0A21BB30BE40BF50B661FD7
:10440000771F881F991F1A9469F76095709580959A
:1044100090959B01AC01BD01CF010895052E97FB3E
:104420001EF400940E94252257FD07D00E94EC2123
:1044300007FC03D04EF40C942522509540953095FE
:1044400021953F4F4F4F5F4F089590958095709500
:1044500061957F4F8F4F9F4F08950E947722A59FB0
:10446000900DB49F900DA49F800D911D112408956F
:10447000B7FF0C942D220E942D22821B930B0895CE
:104480002F923F924F925F926F927F928F929F9264
:10449000AF92BF92CF92DF92EF92FF920F931F9352
:1044A000CF93DF93CDB7DEB7CA1BDB0B0FB6F89403
:1044B000DEBF0FBECDBF09942A88398848885F8443
:1044C0006E847D848C849B84AA84B984C884DF80B4
:1044D000EE80FD800C811B81AA81B981CE0FD11D98
:1044E0000FB6F894DEBF0FBECDBFED010895A29FB9
:1044F000B001B39FC001A39F700D811D1124911DB8
:10450000B29F700D811D1124911D0895F894FFCF65
:1045100000C081098109406C8F36848A0000D9056A
:1045200080000100000000000000C809C809C80997
:10453000C809C809C809C809C809C809C809C809F3
:10454000C809C809C809C809C80900000000F9104D
:1045500011120F118F115711F810D112BC12EE1356
:1045600049122E13B8117011271117111311771357
:1045700000000000C809C809C809C809C809C80955
:10458000C809C809C809C809C809C8090000000045
:104590008D0086012C011201EB008C00FA0105054B
:1045A0000E014001C7004F11AF00AD004411A30040
:1045B00000000000E9089015B2089008A40830092E
:1045C00000000000C8099015C809C809C809C80931
:1045D000000000002E11B114221500000000C809CF
:1045E000901500000000820900000000C809E40CDA
:1045F00001005E00000057495A6E657400564D4434
:1046000050565F317C315F564D4450560D0A004480
:104610006F6D6F746963612070726F6A6563742C6B
:104620002041726475696E6F20446F6D6F746963A9
:1046300061205365727665720A00436F756C642061
:104640006E6F74206F627461696E2049502D6164D1
:1046500064726573732066726F6D20444843502006
:104660002D3E20646F206E6F7468696E67004C4544
:10467000442028666F7220636F6E6E6563742D73BD
:104680007461746520616E642070696E2D7374614D
:10469000746529206F6E2070696E2000496E7075F8
:1046A0007420737769746368206F6E2070696E2060
:1046B0000045746865726E6574626F617264206330
:1046C0006F6E6E6563746564202870696E73203147
:1046D000302C2031312C2031322C20313320616EAE
:1046E00064205350492900436F6E6E6563742074D3
:1046F0006F204448435020736F7572636520696E64
:10470000206C6F63616C206E6574776F726B20280C
:10471000626C696E6B696E67206C6564202D3E204B
:1047200077616974696E6720666F7220636F6E6E61
:10473000656374696F6E29004C697374656E696E88
:104740006720616464726573733A2000205B005DCA
:10475000200020205B54657374636173653A207494
:10476000656C6E657420005D00564D4450455F00D9
:104770003A323A007C005F564D4450450041616E2C
:1047800000556974004170706C69636174696F6E83
:1047900020636F6E6E6563746564005D202D3E203E
:1047A00000300053656E736F723A2000204F4E0A3E
:1047B0000050696E207374617465206973204F4ED8
:1047C000004F46460A0050696E207374617465207C
:1047D0006973204F4646005365742070696E2073DC
:1047E0007461746520746F20224F46462200536521
:1047F000742070696E20737461746520746F202258
:104800004F4E22004170706C69636174696F6E2055
:0C4810006469736F6E6E6563746564000C
:107E0000112484B714BE81FFF0D085E080938100F7
:107E100082E08093C00088E18093C10086E0809377
:107E2000C20080E18093C4008EE0C9D0259A86E02C
:107E300020E33CEF91E0309385002093840096BBD3
:107E4000B09BFECF1D9AA8958150A9F7CC24DD24C4
:107E500088248394B5E0AB2EA1E19A2EF3E0BF2EE7
:107E6000A2D0813461F49FD0082FAFD0023811F036
:107E7000013811F484E001C083E08DD089C08234E0
:107E800011F484E103C0853419F485E0A6D080C0E4
:107E9000853579F488D0E82EFF2485D0082F10E0AE
:107EA000102F00270E291F29000F111F8ED06801E7
:107EB0006FC0863521F484E090D080E0DECF843638
:107EC00009F040C070D06FD0082F6DD080E0C81688
:107ED00080E7D80618F4F601B7BEE895C0E0D1E017
:107EE00062D089930C17E1F7F0E0CF16F0E7DF06D8
:107EF00018F0F601B7BEE89568D007B600FCFDCFD4
:107F0000A601A0E0B1E02C9130E011968C91119780
:107F100090E0982F8827822B932B1296FA010C0160
:107F200087BEE89511244E5F5F4FF1E0A038BF0790
:107F300051F7F601A7BEE89507B600FCFDCF97BE46
:107F4000E89526C08437B1F42ED02DD0F82E2BD052
:107F50003CD0F601EF2C8F010F5F1F4F84911BD097
:107F6000EA94F801C1F70894C11CD11CFA94CF0C13
:107F7000D11C0EC0853739F428D08EE10CD085E9AC
:107F80000AD08FE07ACF813511F488E018D01DD067
:107F900080E101D065CF982F8091C00085FFFCCF94
:107FA0009093C60008958091C00087FFFCCF809118
:107FB000C00084FD01C0A8958091C6000895E0E648
:107FC000F0E098E1908380830895EDDF803219F02E
:107FD00088E0F5DFFFCF84E1DECF1F93182FE3DFCA
:107FE0001150E9F7F2DF1F91089580E0E8DFEE27F6
:047FF000FF270994CA
:027FFE00040479
:0400000300007E007B
:00000001FF