:100000000C94E2000C9458150C9431150C940A01D0
:100010000C940A010C940A010C940A010C940A0134
:100020000C940A010C940A010C940A010C940A0124
:100030000C940A010C940A010C940A010C940A0114
:100040000C94E7140C940A010C94CF130C94A9138C
:100050000C940A010C940A010C940A010C940A01F4
:100060000C940A010C940A0100000008000201002F
:100070000003040700000000000000000000000072
:10008000240027002A000000000023002600290089
:10009000040404040404040402020202020203032E
:1000A0000303030301020408102040800102040836
:1000B0001020010204081020005EBCE2613FDD83D5
:1000C000C29C7E20A3FD1F419DC3217FFCA2401E38
:1000D0005F01E3BD3E6082DC237D9FC1421CFEA028
:1000E000E1BF5D0380DE3C62BEE0025CDF81633D18
:1000F0007C22C09E1D43A1FF4618FAA427799BC508
:1001000084DA3866E5BB5907DB856739BAE40658F7
:100110001947A5FB7826C49A653BD987045AB8E6E7
:10012000A7F91B45C6987A24F8A6441A99C7257BD7
:100130003A6486D85B05E7B98CD2306EEDB3510FC7
:100140004E10F2AC2F7193CD114FADF3702ECC92B7
:10015000D38D6F31B2EC0E50AFF1134DCE90722CA7
:100160006D33D18F0C52B0EE326C8ED0530DEFB197
:10017000F0AE4C1291CF2D73CA947628ABF5174987
:100180000856B4EA6937D58B5709EBB536688AD477
:1001900095CB2977F4AA4816E9B7550B88D6346A67
:1001A0002B7597C94A14F6A8742AC896154BA9F757
:1001B000B6E80A54D7896B350000000025002800F6
:1001C0002B009B2211241FBECFEFD8E0DEBFCDBF96
:1001D00014E0A0E0B1E0EAE7F2E502C005900D927C
:1001E000AE36B107D9F726E0AEE6B4E001C01D9205
:1001F000AE35B207E1F710E0C2EED0E004C02197BF
:10020000FE010E941124C13ED107C9F70E94071ABE
:100210000C943B290C9400000895CF93DF931F9218
:10022000CDB7DEB76983DC01ED91FC910280F381EB
:10023000E02D41E050E0BE016F5F7F4F09950F90C8
:10024000DF91CF910895DC01ED91FC91048CF58D47
:10025000E02D099591E089270895862F089581E082
:100260008627089580E3FB0180833296842F829550
:100270008F7090E1899F401911244A3014F4405D39
:1002800001C0495C4293482F8111F0CF0895CF936C
:10029000DF93FC0124852430D1F0EC010E94170C7F
:1002A000843181F0882371F0883161F08C3161F400
:1002B000E881F9810480F581E02DCE01099521E0E6
:1002C000892B19F420E001C021E0822F01C080E0D9
:1002D000DF91CF9108950F931F93CF93DF931F92D8
:1002E000CDB7DEB78C01DC01ED91FC910480F58186
:1002F000E02D0995892B51F0BE016F5F7F4FF8010A
:1003000084850E942B11898190E002C08FEF9FEFBE
:100310000F90DF91CF911F910F910895FC0184857B
:100320000C946C11CF93DF931F92CDB7DEB741E0F1
:1003300050E0BE016F5F7F4FFC0184850E946C110D
:10034000181619061CF4898190E002C08FEF9FEF08
:100350000F90DF91CF910895FC018485843011F0D6
:100360000C944A1180E090E0089544E050E0BC0114
:100370008FE090E00C94DA1008958CBD9DBD089537
:10038000CF92DF92EF92FF921F93CF93DF93FC0106
:100390001485143099F1EC0180E590E00E94BD01D4
:1003A00068E070E0812F0E94D10E0E94DB146B0187
:1003B0007C01CE010E94170C8823B1F061E070E04F
:1003C00080E090E00E94A1140E94DB14DC01CB01CC
:1003D0008C199D09AE09BF09883E9340A105B1055E
:1003E00040F38C850E94BF11EC85F0E0EE0FFF1FFB
:1003F000E259FB4F1182108284E08C87DF91CF910C
:100400001F91FF90EF90DF90CF9008958F929F9271
:10041000AF92BF92CF92DF92EF92FF920F931F9312
:10042000CF936C015B017A01FC01C485C43041F4B7
:1004300081E090E0F6019383828380E090E04EC0FB
:100440008A014130584010F000E018E080E590E06B
:100450000E94BD018C2F0E94F9174C0163E070E0EF
:100460008C2F0E94F10A873111F08C3121F4801613
:10047000910660F302C000E010E080E590E00E9489
:10048000BD019801A50160E070E08C2F0E949417D7
:1004900060E270E08C2F0E94D10E62E070E08C2F41
:1004A0000E94F10A84FD10C063E070E08C2F0E946E
:1004B000F10A811104C08C2F0E94BF11B9CF80E5D1
:1004C00090E00E94BD01E9CF40E162E070E08C2F36
:1004D0000E94E70A012B09F4ABCFC701CF911F910E
:1004E0000F91FF90EF90DF90CF90BF90AF909F90D3
:1004F0008F900895CF92DF92FF920F931F93CF9327
:10050000DF93FC012485243009F077C06A01EB01F8
:100510008C01F12C8F2D0E941712811103C0F8015C
:10052000F48607C08B7F8831D1F3F394F4E0FF1297
:10053000F1CFF8018485843009F45FC02091000177
:10054000309101012F5F3F4F11F420E030EC3093E8
:10055000010120930001409100015091010120E030
:1005600061E00E94D311F801F4848A818F3F51F435
:100570008B818F3F91F48C818F3F79F48D818F3FF8
:1005800061F438C0811109C08B81811106C08C8152
:10059000811103C08D81882369F1C114D10451F107
:1005A00080E590E00E94BD01BE016E5F7F4F8F2D00
:1005B00090E0982F882744E050E0845F9B4F0E9492
:1005C000DA10B6018F2D0E944F0B64E070E08F2D82
:1005D0000E94D10EC8010E94170C873189F061E09A
:1005E00070E080E090E00E94A114C8010E94170C06
:1005F0008111F0CF84E0F801848780E090E002C0B0
:1006000081E090E0DF91CF911F910F91FF90DF90FB
:10061000CF9008952F923F924F925F926F927F9268
:100620008F929F92AF92BF92CF92DF92EF92FF9202
:100630000F931F93CF93DF93CDB7DEB765970FB6B8
:10064000F894DEBF0FBECDBF7C016B013A01FB0108
:1006500020E080E090E06AE03191332309F140ED41
:10066000430F4A3080F4689FA001699F500D112408
:10067000CA01C097830F911D37FD9A958F3F910551
:1006800059F350F313C03E3289F4233079F0D3018B
:10069000A20FB11D12968C932F5F80E090E0DCCF0B
:1006A000233021F4F301858381E021C0F7014281E9
:1006B0005381648175818091EB059091EC05A09147
:1006C000ED05B091EE05481759076A077B0709F455
:1006D0009EC10E94DB148701085F1F4F6F70772750
:1006E0007C5FC8010E94BA0A813019F080E090E076
:1006F000F3C182EE91E09A838983F701828193812D
:10070000A481B5818B839C83AD83BE8345E350E098
:10071000BE016F5F7F4FC8010E94D70B892B19F470
:10072000C12CD12C6FC10E94DB14F7017783668343
:100730007627672776277A83698342E050E0BE01F7
:100740006F5F7F4FC8010E94FA0981E090E09E87A9
:100750008D8742E050E0BE01635F7F4FC8010E9479
:10076000FA0980E091E09E878D8742E050E0BE016B
:10077000635F7F4FC8010E94FA091E861D8642E012
:1007800050E0BE01635F7F4FC8010E94FA0942E05A
:1007900050E0BE01635F7F4FC8010E94FA0942E04A
:1007A00050E0BE01635F7F4FC8010E94FA09560105
:1007B000F5018081882311F1F6015F01819181119A
:1007C00015C045018C189D081814190494F48F86DF
:1007D00041E050E0BE01615F7F4FC8010E94FA090D
:1007E000A401B601C8010E94FA0903C08E3229F79C
:1007F000E8CF6501FFEFCF1ADF0ADACF1F8641E0AD
:1008000050E0BE01615F7F4FC8010E94FA09C12C10
:10081000DD24D394DE86CD8642E050E0BE01635FE6
:100820007F4FC8010E94FA09DE86CD8642E050E083
:10083000BE01635F7F4FC8010E94FA09C8010E9490
:10084000170B892B09F46CCF63E0A62EB12CF2E0D4
:100850006F0E711C0E94DB141B012C01C8010E9449
:10086000A10918161906A4F00E94DB14DC01CB01C3
:1008700082199309A409B50989389341A105B105E5
:10088000D0F462E370E080E090E00E94A114E6CF33
:10089000F7014281538164817581808D918DA28D94
:1008A000B38D481759076A077B0741F4848D958DEE
:1008B000C59721F406C02FEF3FEF9AC02EEF3FEF10
:1008C00097C0F70181A192A10C970CF4A6C04CE04F
:1008D00050E0BE016F5F7F4FC8010E9459098B81B4
:1008E00090E0982F88272C81822B9A8B898B2981E5
:1008F00030E0322F22274A81242BF701468157818D
:100900004217530709F086C097FF84C08F7092701A
:10091000892B09F0DEC0CF80D12CDC2CCC2488853B
:10092000C82AC114D10409F4D1C0812C912C8D8125
:1009300090E0982F88272E81822B8816990608F43C
:100940006FC0812C912C41E050E0BE016D5E7F4F65
:10095000C8010E9459098B89982F907C09F093C097
:10096000811186C08B898111EECF42E050E0BE013B
:10097000615F7F4FC8010E94590942E050E0BE010B
:10098000635F7F4FC8010E945909C8010E9478091E
:10099000C8010E947809C8010E947809C8010E9414
:1009A000780942E050E0BE016F5E7F4FC8010E94AF
:1009B00059098F8598898115914009F069C02D8565
:1009C0003E853227232732272130310509F060C0C8
:1009D00089899A898115944009F075C044E050E0F6
:1009E000B301C8012C8B3D8B0E9459092C893D898C
:1009F0006901F1E0AF1AB10829F02FEFC216D20653
:100A000009F428CFC8010E94A50AC60165C08EEF6F
:100A10009FEF62C02CEF3FEFEBCF2DEF3FEFE8CF22
:100A200041E050E0BE01635F7F4FC8010E94590959
:100A30008D85811113C08D858111F2CFC8010E946F
:100A40007809C8010E947809C8010E947809C80184
:100A50000E947809FFEF8F1A9F0A69CF8D859FEF5B
:100A6000980F9D87882339F3C8010E947809F6CF33
:100A70008B899FEF980F9B8B882309F473CFC80154
:100A80000E947809F5CFC8010E9478091B8A6ACFB5
:100A9000412C512C89899A899827892798274816AB
:100AA000590638F4C8010E9478098FEF481A580A8D
:100AB000F1CFEFEF8E1A9E0A8C149D0409F043CFFC
:100AC00026EF3FEF95CF27EF3FEF92CF2AEF3FEF93
:100AD0008FCF2BEF3FEF8CCF65960FB6F894DEBF2C
:100AE0000FBECDBFDF91CF911F910F91FF90EF907F
:100AF000DF90CF90BF90AF909F908F907F906F903E
:100B00005F904F903F902F900895CF92DF92EF9299
:100B1000FF920F931F93CF93DF93CDB7DEB7AF97BD
:100B20000FB6F894DEBF0FBECDBF7C016A0102EEA6
:100B300011E01A8309831C861B8688EE93E0A0E0EF
:100B4000B0E08D879E87AF87B88B8EE391E09A8760
:100B50008987188F0F8B198E1A8E1B8E1C8E84E03E
:100B600089A31DA30CA31EA21FA218A619A68091DB
:100B7000E3059091E405A091E505B091E6058CA709
:100B80009DA7AEA7BFA78B839C83AD83BE8318862A
:100B90001F82AE014C5D5F4FCE0101960E940A0399
:100BA00081309105B1F4D701ED91FC910484F58574
:100BB000E02D1BA70AA78EA19FA1A8A5B9A58CA768
:100BC0009DA7AEA7BFA7A601BE01665D7F4FC70167
:100BD0000995AF960FB6F894DEBF0FBECDBFDF917B
:100BE000CF911F910F91FF90EF90DF90CF900895DC
:100BF0002F923F924F925F926F927F928F929F922D
:100C0000AF92BF92CF92DF92EF92FF920F931F931A
:100C1000CF93DF93CDB7DEB7E3970FB6F894DEBF7F
:100C20000FBECDBF7C011A012B0139010E94DB14DC
:100C30004B015C0187010D5B1F4FC8010E94A10998
:100C400018161906A4F00E94DB14DC01CB018819E8
:100C50009909AA09BB09281639064A065B06D8F085
:100C600062E370E080E090E00E94A114E6CF42E2EF
:100C700050E0BE016F5F7F4FC8010E945909898112
:100C8000823011F080E061C1F80184899589833454
:100C90009105C1F702C08FEF58C16D817E818F81B0
:100CA00098850E94F6234B015C01F30160837183F8
:100CB0008283938346E050E0B701685F7F4FCE01A7
:100CC0004D960E94C026892BE9F6F701808191811B
:100CD000A281B38188169906AA06BB0698F2848180
:100CE0009581A681B78188159905AA05BB0550F2A3
:100CF00089899A89AB89BC8986879787A08BB18BB4
:100D00008EECA82EB12CC8010E947809F1E0AF1A30
:100D1000B108C9F719A6670182E2C80ED11CF70114
:100D2000B696FBA7EAA7C7018A969DA78CA73C9712
:100D30004F0189969FA78EA73897F9ABE8AB1701AB
:100D4000F6E12F0E311CC5979BAB8AABF801818D64
:100D5000928D181619060CF0F7C0C8010E94780988
:100D60008333910509F4CBC0FCF481309105C9F1BE
:100D70001CF4892B59F3DCC083309105D1F106971F
:100D800009F0D6C0C8010E9478095C0144E050E037
:100D90006AA97BA9C8010E945909412C512CBB2486
:100DA000F4E0AF1AB10840C08A33910509F47BC062
:100DB0003CF48533910569F0C69709F440C0B8C08A
:100DC0008B33910509F485C08F3F910509F4BECF9F
:100DD000AFC0C8010E947809C8010E94780989A79C
:100DE000B5CFC8010E94780944E050E068A979A90C
:100DF0003AC0C8010E9478095C0144E050E0B101AA
:100E0000C8010E945909412C512CBB2494E0A91A15
:100E1000B1084A145B040CF099CFC8010E9478090C
:100E2000EFEF4E1A5E0AF5CF4A145B040CF08ECF3A
:100E3000C8010E9478098FEF481A580AF5CFC801F7
:100E40000E947809B82EF701828D811110C0838D20
:100E500081110DC0848D81110AC0858D811107C05B
:100E600044E050E0B401C8010E9459096FCFEEA5DB
:100E7000FFA54080518062807380B401CE018396CB
:100E80000E9499138DA19EA1AFA1B8A584159505C7
:100E9000A605B70529F3BB2009F458CFC8010E9465
:100EA0007809BA94F8CFC8010E94780944E050E06C
:100EB0006AA57BA5C8010E945909F70166A177A11F
:100EC00080A591A50E94F62366A377A380A791A78A
:100ED0003DCFC8010E94780944E050E06CA57DA593
:100EE000C8010E945909F70162A573A584A595A5BB
:100EF0000E94F62362A773A784A795A727CFC801EE
:100F00000E94780944E050E0B601C8010E945909E6
:100F1000F70162A173A184A195A10E94F62362A3A7
:100F200073A384A395A366A777A780AB91AB0ECFDD
:100F3000C8010E947809B82EBB2009F407CFC80168
:100F40000E947809BA94F8CF89A5E3960FB6F89471
:100F5000DEBF0FBECDBFDF91CF911F910F91FF90EC
:100F6000EF90DF90CF90BF90AF909F908F907F9049
:100F70006F905F904F903F902F9008957F928F9247
:100F80009F92AF92BF92CF92DF92EF92FF920F9318
:100F90001F93CF93DF93CDB7DEB7A6970FB6F89424
:100FA000DEBF0FBECDBF8C01762E942E852E20E2A3
:100FB000B22ECE0101967C01FC012B2D11922A95B7
:100FC000E9F782EE91E09AA389A38FEF8BA38CA31C
:100FD0008DA38EA3680183E4C80ED11C43E450E0C6
:100FE000BE016F5D7F4FC6010E94D70B019609F4C9
:100FF000BFC081E089838A8386E0A82EAB821C82F1
:10100000F80164817581868197810E94F6236D8342
:101010007E838F83988789869A8680E890E09C8774
:101020008B874CE150E0B701C6010E94FA09F70135
:101030002B2D11922A95E9F7480188E0880E911C22
:10104000F401D70101900D92AA94E1F740E150E03C
:10105000B701C6010E94FA09F7011192BA94E9F7A3
:1010600096E0A92EB12C40E250E0B701C6010E94E3
:10107000FA09F1E0AF1AB108B1F783E6898392E883
:101080009A8393E59B838C8385E38D8381E08E83B4
:101090007F829DE3988797E099878A8786E0F401AD
:1010A000DE011B9601900D928A95E1F78CE0898B09
:1010B0008A8B67E674E0CE0143960E94D626F8013B
:1010C0004385BE01675E7F4FC8010E943201F8016F
:1010D0004485BE01655E7F4FC8010E943201F80160
:1010E0004585BE01635E7F4FC8010E9432014EE11B
:1010F00050E0B701C6010E94FA09F3E07F121EC05A
:1011000082E3898384E08A83F80196859B839785AF
:101110009C8390899D8391899E8396E39F83888792
:10112000828D8987838D8A87848D8B87858D8C8737
:101130004CE050E0B701C6010E94FA0987E38983B9
:1011400086E08A8391E09B8393E09C838D838FE08C
:101150008E838AE38F838BE388878FEF898749E0CB
:1011600050E0B701C6010E94FA09C6010E94170BA0
:10117000A6960FB6F894DEBF0FBECDBFDF91CF911C
:101180001F910F91FF90EF90DF90CF90BF90AF90A5
:101190009F908F907F9008956115710579F0FB0104
:1011A00001900020E9F73197AF01461B570BDC0196
:1011B000ED91FC910280F381E02D099480E090E0B4
:1011C00008950895CF93DF931F92CDB7DEB769835B
:1011D000DC01ED91FC910280F381E02D41E050E0D3
:1011E000BE016F5F7F4F09950F90DF91CF910895FA
:1011F000FC01818D928D0895FC0184899589089563
:1012000022EE31E0FC0131832083FB0140895189CA
:1012100062897389FC0142835383648375830895D3
:10122000DC01ED91FC91008CF18DE02D0994CF93C0
:10123000DF931F92CDB7DEB76983DC01ED91FC919E
:101240000280F381E02D41E050E0BE016F5F7F4FEF
:1012500009950F90DF91CF910895FC019485FB01D2
:101260008485981303C081E0943009F480E00895E8
:1012700021E0FC018485843009F420E0822F089568
:10128000CF93DF931F92CDB7DEB7FC01218D328D56
:10129000232B49F0BE016F5F7F4F808D0E942B1181
:1012A000898190E002C08FEF9FEF0F90DF91CF9187
:1012B0000895CF93DF93FC01218D328D21153105E7
:1012C00019F48FEF9FEF11C0EC014217530708F09C
:1012D000A901888D0E946C111816190694F7298DA2
:1012E0003A8D281B390B3A8F298FDF91CF910895C2
:1012F0000F931F93CF93DF931F92CDB7DEB7FC01FF
:10130000218D328D232B61F08C0141E050E0BE0134
:101310006F5F7F4F808D0E946C11181619061CF0AC
:101320008FEF9FEF08C0F801818D928D0197928F0A
:10133000818F898190E00F90DF91CF911F910F9164
:1013400008950F931F93CF93DF93CDB7DEB7289700
:101350000FB6F894DEBF0FBECDBF8C01F801818DB2
:10136000928D892B49F0D801ED91FC910680F7818F
:10137000E02DC8010995F2CF808D0E944A11181600
:1013800019065CF548E050E0BE016F5F7F4FD80161
:1013900058968C910E946C119C0118161906DCF469
:1013A00089819A81AB81BC81F801808B918BA28B62
:1013B000B38B8D8190E0982F88272E81820F911D0D
:1013C000958B848B2F8130E0322F22278885280F40
:1013D000311D328F218FC90102C080E090E0289634
:1013E0000FB6F894DEBF0FBECDBFDF91CF911F9136
:1013F0000F910895AF92BF92CF92DF92FF920F9319
:101400001F93CF93DF938C015B01EA01FC01C68837
:10141000D788F08C80E590E00E94BD018F2D0E945E
:10142000F9178C179D0720F48F2D0E94F917EC01F6
:101430009E01A501B6018F2D0E9494170E94BC0148
:10144000F801868997898C0F9D1F978B868BCE011B
:10145000DF91CF911F910F91FF90DF90CF90BF90C0
:10146000AF900895CF92DF92EF92FF920F931F9368
:10147000CF93DF93CDB7DEB7AF970FB6F894DEBF4B
:101480000FBECDBF7C016A0102EE11E01A83098311
:101490001C861B8688EE93E0A0E0B0E08D879E87D7
:1014A000AF87B88B8EE391E09A878987188F0F8B6F
:1014B000198E1A8E1B8E1C8E84E089A31DA30CA38B
:1014C0001EA21FA218A619A68091E3059091E4051B
:1014D000A091E505B091E6058CA79DA7AEA7BFA793
:1014E0008B839C83AD83BE8318861F82AE014C5DC7
:1014F0005F4FCE0101960E940A0381309105B1F43D
:10150000D701ED91FC910088F189E02D1BA70AA776
:101510008EA19FA1A8A5B9A58CA79DA7AEA7BFA77F
:10152000A601BE01665D7F4FC7010995AF960FB654
:10153000F894DEBF0FBECDBFDF91CF911F910F9109
:10154000FF90EF90DF90CF900895CF93DF93EC0161
:10155000888D843061F00E94BF11E88DF0E0EE0FBD
:10156000FF1FE259FB4F1182108284E0888FDF91C8
:10157000CF910895EF92FF921F93CF93DF93FC01D9
:10158000208D243011F080E01CC07B01EC0110E0C4
:10159000812F0E941712811102C0188F05C0883157
:1015A000E1F31F5F1430A1F7888D843061F3FD866D
:1015B000EC861A8E198E20E0A70162E00E94D311FA
:1015C00081E0DF91CF911F91FF90EF9008959B01F3
:1015D00090E00496982F8827642F820F931F0C9415
:1015E00009110F931F93CF93DF931F92CDB7DEB7EF
:1015F00090E00496982F88278C01060F171F0E94F1
:1016000089108FE00E94A310812F0E94A310802FC9
:101610000E94A31080E00E94A31089830E9487107B
:1016200089810F90DF91CF911F910F910895CF93F2
:10163000FC01C08D80E590E00E94BD0160E270E099
:101640008C2F0E94D10E62E070E08C2F0E94F10A74
:1016500084FD19C062E070E08C2F0E94F10A83FFC4
:101660000BC048E162E070E08C2F0E94E70A0E9404
:10167000BC0180E090E011C00E94BC0180E590E0D8
:101680000E94BD01E0CF40E162E070E08C2F0E943B
:10169000E70A0E94BC0181E090E0CF910895CF93CA
:1016A000DF93C82FD62F472F60E170E00E94E70A32
:1016B0004D2F61E170E08C2FDF91CF910C94E70A00
:1016C000BF92CF92DF92EF92FF920F931F93CF932F
:1016D000DF9300D000D000D0CDB7DEB7FC01208D65
:1016E000243009F053C06A017B018C01B12C63E006
:1016F00070E08B2D0E94F10A811103C0F801B08EB9
:1017000006C08831D9F3B394F4E0BF12F0CFF801EA
:10171000808D8430D9F196E0E6EAF1E0DE011196A1
:1017200001900D929A95E1F7F70193819F779C8341
:1017300094819D8395819E83B7016E5F7F4F90E07A
:10174000982F882744E050E0845F9B4F0E94DA1076
:10175000B601F801808D0E944F0BF801808D90E05A
:10176000982F882746E050E0BE016F5F7F4F8A5F69
:101770009B4F0E94DA10F801128E118E20E8A6010C
:1017800062E0808D0E94D31181E001C080E0269646
:101790000FB6F894DEBF0FBECDBFDF91CF911F9182
:1017A0000F91FF90EF90DF90CF90BF900895FF9240
:1017B0000F931F93CF93DF93FB01DC0157961C928D
:1017C0001E9256975896FC908281811109C08381A0
:1017D000811106C08481811103C085818823F9F0BD
:1017E00041155105E1F08A01EF0180E590E00E948A
:1017F000BD01BE016E5F7F4F2F2D30E0922F8827F5
:1018000044E050E0845F9B4F0E94DA10B8018F2DB6
:101810000E944F0B0E94BC0181E090E002C080E07A
:1018200090E0DF91CF911F910F91FF900895FC01FF
:101830008485843011F00C94171280E008954F9243
:101840005F926F927F928F929F92AF92BF92CF9250
:10185000DF92EF92FF921F93CF93DF93CDB7DEB766
:101860002D970FB6F894DEBF0FBECDBF7C019EE66C
:10187000A92E94E0B92E10E0C12CD12C28EE422ED6
:1018800023E0522E612C712C30E8832E31E0932E10
:101890001C821B824D825E826F8278869A82898248
:1018A0001D87D5012D913D915D01F70184819581C1
:1018B00028173907B1F4CE0101960E94170C843124
:1018C00069F0CE0101960E94170C8C3151F4CE01C3
:1018D00001960E94AC01892B91F003C0CC24C394E3
:1018E000D12C1F5F1430A1F6CD2871F4D701ED91F2
:1018F000FC910480F581E02DC701099505C0CE015A
:1019000001960E94C001EDCF2D960FB6F894DEBF70
:101910000FBECDBFDF91CF911F91FF90EF90DF9071
:10192000CF90BF90AF909F908F907F906F905F907F
:101930004F9008952F923F924F925F926F927F92B5
:101940008F929F92AF92BF92CF92DF92EF92FF92CF
:101950000F931F93CF93DF93CDB7DEB72E970FB6BC
:10196000F894DEBF0FBECDBF7C016B015A010E940F
:101970001F0C0EE614E020E0612C712C88EE282E5E
:1019800083E0382E412C512C90E8892E91E0992E3D
:101990001C821B822D823E824F8258869A828982C7
:1019A0002D87F801419151918F01F7018481958133
:1019B0004817590741F4CE0101962E870E94170C53
:1019C0002E858731E9F02F5F243011F7C3012E9661
:1019D0000FB6F894DEBF0FBECDBFDF91CF911F9140
:1019E0000F91FF90EF90DF90CF90BF90AF909F90BE
:1019F0008F907F906F905F904F903F902F900895C1
:101A0000A501B601CE0101962E870E940602680E3E
:101A1000791E2E85D8CF8F929F92AF92BF92CF9290
:101A2000DF92EF92FF920F931F93CF93DF93CDB787
:101A3000DEB72D970FB6F894DEBF0FBECDBF7C0189
:101A400000E010E038EE832E33E0932EA12CB12C71
:101A500040E8C42E41E0D42E1C821B828D829E82DF
:101A6000AF82B886DA82C9820D87CE0101960E94C4
:101A7000170C811125C0F7014481558120E061E0F8
:101A8000802F0E94D31180E590E00E94BD0163E0A9
:101A900070E0802F0E94F10A833129F462E070E047
:101AA000802F0E94D10E0E94BC01F7018481958194
:101AB000000F111FF801E259FB4F9183808305C08D
:101AC0000F5F1F4F0430110539F62D960FB6F894AD
:101AD000DEBF0FBECDBFDF91CF911F910F91FF9061
:101AE000EF90DF90CF90BF90AF909F908F90089530
:101AF000CF93DF93CFEED5E061E08C810E942A1472
:101B00008D819E810E94961460E08C810E942A142F
:101B10008D819E8125E0AC01249FC001259F900D01
:101B200011240E94961461E08C810E942A148D81F8
:101B30009E810E94961460E08C810E942A148D81FF
:101B40009E81DF91CF910C94961481110C94780DA5
:101B500061E08091F3050E942A148091F405909130
:101B6000F5050E94961460E08091F3050E942A1406
:101B70008091F4059091F5050E94961461E08091A2
:101B8000F3050E942A148091F4059091F5050E94B6
:101B9000961460E08091F3050E942A148091F40568
:101BA0009091F50525E0AC01249FC001259F900D83
:101BB00011240C949614ECEFF4E0A089B18982E032
:101BC0008C93A485B5851C92A685B7858FEC8C93E4
:101BD000108EA489B58986E08C93A289B3898C91F3
:101BE00080618C93A289B3898C9188608C93A2893F
:101BF000B3898C9180688C930288F389E02D808171
:101C00008F7D80830895EF92FF920F931F93CF9360
:101C1000DF93082F1091F6059AE0F92E28E2E22EC4
:101C200017FD66C061E08091F3050E942A1480913F
:101C3000F4059091F5050E94961460E08091F305FB
:101C40000E942A142091F4053091F505A9015695BA
:101C50004795F29EC001F39E900D1124840F951FAD
:101C60000E949614C9E1D0E08091EF059091F005B3
:101C7000A091F105B091F2050C2E04C0B695A79580
:101C8000979587950A94D2F781700E94A50D2197A8
:101C900058F70E94780D802F0E94A50D80E00E94C9
:101CA000A50D80E00E94A50D80E00E94A50D80E0BA
:101CB0000E94A50D61E08091F3050E942A14809195
:101CC000F4059091F5050E94961460E08091F3056B
:101CD0000E942A148091F4059091F5059C01E29EE2
:101CE000C001E39E900D11240E949614115098CFCC
:101CF000DF91CF911F910F91FF90EF900895CF92B8
:101D0000DF92EF92FF92CF93DF936C01990FEE0871
:101D1000FF08F7FE1BC06DE28CEF94E00E94FE19F5
:101D2000EC0144275527BA014C195D096E097F095A
:101D30002AE08CEF94E00E94A1198C0F9D1FDF9187
:101D4000CF91FF90EF90DF90CF9008952AE0B701F8
:101D5000A6018CEF94E0DF91CF91FF90EF90DF90A0
:101D6000CF900C94A119CF93DF93EC0182EE91E018
:101D7000998388831A821B821C821D8280E590E0F1
:101D80000E94BD01BE016E5F7F4F44E050E08FE0D6
:101D900090E00E94AA100E94BC01CE01DF91CF9179
:101DA0000895CF93C82F462F61E070E00E94E70AA4
:101DB00061E070E08C2F0E94F10A8111F9CFCF9180
:101DC0000895CF92DF92EF92FF92CF93DF936C0151
:101DD000990FEE08FF08F7FE16C06DE28CEF94E055
:101DE0000E94FE19EC0144275527BA014C195D09E0
:101DF0006E097F092AE08CEF94E00E94A1197C0112
:101E0000EC0EFD1E08C02AE0B701A6018CEF94E09D
:101E10000E94A1197C016BEF71E08CEF94E00E94AD
:101E2000CC088E0D9F1DDF91CF91FF90EF90DF903A
:101E3000CF900895CF936CE271E080E090E00E9433
:101E4000A114CFB7F89480911606811127C0EAE952
:101E5000F0E08491EEEAF0E09491E82FF0E0EE0FEC
:101E6000FF1FE458FF4FA591B491EC91E92321F4B1
:101E700061E08AE00E942A1461E08AE00E945A141C
:101E80008CB580618CBD8CB580648CBD61E08DE0CB
:101E90000E945A1461E08BE00E945A148091160649
:101EA0008F5F80931606CFBF229A80E590E00E9454
:101EB000BD0160E880E090E00E94091165E58BE1DA
:101EC00090E00E94091165E58AE190E00E94091105
:101ED0000E94BC0180E090E49093ED048093EC04B8
:101EE00080E090E69093F5048093F40480E098E419
:101EF0009093EF048093EE0480E098E69093F704CB
:101F00008093F60480E090E59093F1048093F004D0
:101F100080E090E79093F9048093F80480E098E5DE
:101F20009093F3048093F20480E098E79093FB048D
:101F30008093FA04CF9108951F93CF93DF93CDB789
:101F4000DEB7C254D1090FB6F894DEBF0FBECDBFC5
:101F5000FC0182819381A481B58123968CAF9DAFD2
:101F6000AEAFBFAF239711E023961FAF2397239601
:101F70004CAD5DAD6EAD7FAD23974BAB5CAB6DAB48
:101F80007EAB8DA79EA7AFA7B8AB18AB4DA55EA53E
:101F90006FA578A94FA358A769A77AA71EAB4BA92D
:101FA0005CA96DA97EA949A35AA36BA37CA322EEC9
:101FB00031E03C8B2B8B4FEF4D8B4E8B4F8B188E24
:101FC0003E872D871AA74FA158A569A57AA54F87E7
:101FD000588B698B7A8B1CA349A15AA16BA17CA158
:101FE00049875A876B877C873A8329838B839C83B5
:101FF000AD83BE830E941A0F80E590E00E94BD0170
:1020000046E050E062E071E089E090E00E94DA1082
:10201000CE0103960E94B50144E050E0BE01615F2D
:102020007F4F81E090E00E94DA1044E050E0BE0172
:102030006B5E7F4F85E090E00E94DA100E94BC0149
:102040001C8789859A85AB85BC858093E305909331
:10205000E405A093E505B093E605CE5BDF4F0FB630
:10206000F894DEBF0FBECDBFDF91CF911F910895D1
:1020700008951F93CF93DF93182F66E270E00E94BC
:10208000F10AC82FD0E067E270E0812F0E94F10AC8
:10209000DC2FCC279E01282BC901DF91CF911F9106
:1020A0000895FC0190810180F281E02DF8948181F6
:1020B000292F20958223818378948DE743E050E097
:1020C000815021F1DA011197F1F730813923C1F301
:1020D000F8948281822382838181892B8183789401
:1020E000ABE7B7E01197F1F7F894818128232183BA
:1020F000A3E1B1E01197F1F78081982381E009F025
:1021000080E07894E3E6F6E03197F1F708952A9AB3
:1021100008952A9808951F93CF93DF93182F60E2B4
:1021200070E00E94F10AC82FD0E061E270E0812FD8
:102130000E94F10ADC2FCC279E01282BC901DF91D8
:10214000CF911F9108958EBD00000DB407FEFDCF05
:102150008EB50895CF92DF92EF92FF920F931F9367
:10216000CF93DF93EC017A018B016C01C40ED51E75
:10217000CC15DD05A9F00E9489108FE00E94A31004
:102180008D2F0E94A3108C2F0E94A310219680E017
:102190000E94A310F80181938F010E948710E8CF5D
:1021A000C701DF91CF911F910F91FF90EF90DF90CA
:1021B000CF900895CF92DF92EF92FF920F931F93EB
:1021C000CF93DF93EC017A018B016C01C40ED51E15
:1021D000CC15DD05A1F00E94891080EF0E94A310AC
:1021E0008D2F0E94A3108C2F0E94A3102196F8011E
:1021F00081918F010E94A3100E948710E9CFC7012F
:10220000DF91CF911F910F91FF90EF90DF90CF90D2
:1022100008951F93CF93DF9300D0CDB7DEB7182F6B
:102220006A8399830E94891080EF0E94A31099818C
:10223000892F0E94A310812F0E94A3106A81862FEC
:102240000E94A3100E94871081E00F900F90DF91F1
:10225000CF911F9108951F93CF93DF9300D0CDB7F7
:10226000DEB7182F80E590E069837A830E94BD0174
:1022700021E041E050E069817A81812F0E942C1792
:102280000E94BC0181E090E00F900F90DF91CF9110
:102290001F910895FF920F931F93CF93DF93F82E12
:1022A00080E590E00E94BD01C0E0D0E08F2D0E944B
:1022B00039108C01892B21F08F2D0E943910EC01EF
:1022C000C017D10799F70E94BC01CE01DF91CF91D1
:1022D0001F910F91FF900895AF92BF92CF92DF921E
:1022E000EF92FF921F93CF93DF93182F5B017A0138
:1022F00080E590E00E94BD01C0E0D0E0812F0E9407
:1023000039106C01892B21F0812F0E943910EC01CA
:10231000CC15DD0599F7209799F463E070E0812FE3
:102320000E94F10A8431F1F08823E1F0C1E0D0E0AD
:102330008C3111F4C0E0D0E0D195C195D10912C023
:10234000EC16FD060CF4E7011C161D065CF420E0FB
:10235000AE01B501812F0E942C1760E470E0812F3F
:102360000E94D10E0E94BC01CE01DF91CF911F913E
:10237000FF90EF90DF90CF90BF90AF900895CF93F4
:10238000C82F80E590E00E94BD0160E170E08C2FD5
:102390000E94D10E4FEF62E070E08C2F0E94E70A9E
:1023A000CF910C94BC01FF920F931F93CF93DF93B7
:1023B00000D0CDB7DEB7F82E8A012A8369830E9448
:1023C000BF1180E590E00E94BD012A816981462FFE
:1023D000422B60E070E08F2D0E94E70A0115110585
:1023E00051F400914F06109150060F5F1F4F10934C
:1023F000500600934F06412F64E070E08F2D0E943D
:10240000E70A402F65E070E08F2D0E94E70A61E047
:1024100070E08F2D0E94D10E0E94BC0181E00F90D0
:102420000F90DF91CF911F910F91FF9008951F930F
:10243000CF93DF931F92CDB7DEB7182F80E590E0E2
:102440000E94BD0163E070E0812F0E94F10A898340
:102450000E94BC0189810F90DF91CF911F91089557
:10246000FC01918D828D981761F0828DDF01A80F9C
:10247000B11D5D968C91928D9F5F9F73928F90E0BE
:1024800008958FEF9FEF0895FC01918D828D98172D
:1024900031F0828DE80FF11D858D90E008958FEF6A
:1024A0009FEF0895FC01918D228D892F90E0805C33
:1024B0009F4F821B91098F73992708958CEF94E0A9
:1024C0000E94521221E0892B09F420E0822F089506
:1024D000FC01848DDF01A80FB11DA35ABF4F2C91C1
:1024E000848D90E001968F739927848FA689B78990
:1024F0002C93A089B1898C9180648C93938D848D69
:10250000981306C00288F389E02D80818F7D808337
:102510000895EF92FF920F931F93CF93DF93EC01F7
:1025200081E0888F9B8D8C8D981305C0E889F9898F
:10253000808185FD24C0F62E0B8D10E00F5F1F4FAC
:102540000F731127E02E8C8DE8120CC00FB607FC1C
:10255000FACFE889F989808185FFF5CFCE010E9405
:102560006812F1CF8B8DFE01E80FF11DE35AFF4F8A
:10257000F0820B8FEA89FB898081806207C0EE8937
:10258000FF896083E889F98980818064808381E0A4
:1025900090E0DF91CF911F910F91FF90EF90089500
:1025A000CF93DF93EC01888D8823C9F0EA89FB89FA
:1025B000808185FD05C0A889B9898C9186FD0FC0F1
:1025C0000FB607FCF5CF808185FFF2CFA889B989C6
:1025D0008C9185FFEDCFCE010E946812E7CFDF918D
:1025E000CF91089580E090E0892B29F00E945E123F
:1025F00081110C94000008953FB7F894809156061D
:1026000090915706A0915806B091590626B5A89BFF
:1026100005C02F3F19F00196A11DB11D3FBFBA2F74
:10262000A92F982F8827820F911DA11DB11DBC01D4
:10263000CD0142E0660F771F881F991F4A95D1F799
:1026400008950895FC0190810180F281E02D892F89
:10265000809560FF12C0F894228182238283818159
:10266000892B8183A3E2B0E01197F1F78281982B47
:102670009283789487ED90E011C0F89422818223B0
:1026800082838181892B8183AFEFB0E01197F1F7CD
:102690008281982B928378948FE090E00197F1F7F4
:1026A00008958F929F92AF92BF92CF92DF92EF9256
:1026B000FF920F931F93CF93DF937C018B016C01EB
:1026C00082E0C80ED11C4701E5E08E0E911CC0E0EF
:1026D000D0E0F60141916F0150E060E070E02AE047
:1026E000C8010E94A1195C016EE2C8010E94FE1996
:1026F0008A0D9B1DC80FD91FC814D90451F7F701C3
:10270000458150E060E070E02AE0C8010E94A11914
:102710008C0F9D1FDF91CF911F910F91FF90EF9034
:10272000DF90CF90BF90AF909F908F9008950E94C0
:10273000BB2622EE31E0FC0131832083FB01408186
:10274000518162817381FC01428353836483758369
:1027500008951F920F920FB60F9211242F933F935B
:102760004F935F936F937F938F939F93AF93BF9399
:10277000EF93FF938CEF94E00E946812FF91EF912A
:10278000BF91AF919F918F917F916F915F914F9189
:102790003F912F910F900FBE0F901F9018951F9291
:1027A0000F920FB60F9211242F938F939F93EF9355
:1027B000FF93E0910C05F0910D058081E0911205E9
:1027C000F091130582FD12C09081809115058F5FF5
:1027D0008F7320911605821751F0E0911505F0E0F6
:1027E000E450FB4F958F8093150501C08081FF91C8
:1027F000EF919F918F912F910F900FBE0F901F908F
:102800001895833081F028F4813099F08230A1F05E
:1028100008958730A9F08830B9F08430D1F48091E0
:1028200080008F7D03C0809180008F77809380002F
:10283000089584B58F7702C084B58F7D84BD0895D7
:102840008091B0008F7703C08091B0008F7D80931E
:10285000B00008951F93CF93DF93282F30E0F90144
:10286000E859FF4F8491F901EC55FF4FD491F901DC
:10287000E057FF4FC491CC23C9F0162F81110E945D
:102880000114EC2FF0E0EE0FFF1FE854FE4FA5916E
:10289000B4918FB7F894111105C09C91ED2FE0957C
:1028A000E92302C0EC91ED2BEC938FBFDF91CF9128
:1028B0001F910895CF93DF9390E0FC01EC55FF4FFB
:1028C0002491FC01E057FF4F8491882361F190E04F
:1028D000880F991FFC01E458FF4FC591D491FC016A
:1028E000E854FE4FA591B491611109C09FB7F894C7
:1028F0008881209582238883EC912E230BC062303F
:1029000061F49FB7F8943881822F80958323888360
:10291000EC912E2B2C939FBF06C08FB7F894E881C3
:102920002E2B28838FBFDF91CF91089582309105A0
:1029300038F0880F991F880F991F05970197F1F7B5
:1029400008958F929F92AF92BF92CF92DF92EF92B3
:10295000FF926B017C010E94FC124B015C01C114CF
:10296000D104E104F104F1F00E94FC12DC01CB017E
:1029700088199909AA09BB09883E9340A105B105A8
:1029800070F321E0C21AD108E108F10888EE880E40
:1029900083E0981EA11CB11CC114D104E104F10410
:1029A00019F7DDCFFF90EF90DF90CF90BF90AF9001
:1029B0009F908F9008952FB7F89460915206709170
:1029C000530680915406909155062FBF08951F928B
:1029D0000F920FB60F9211242F933F938F939F93D3
:1029E000AF93BF938091520690915306A0915406E5
:1029F000B09155063091510623E0230F2D3720F476
:102A00000196A11DB11D05C026E8230F0296A11D48
:102A1000B11D209351068093520690935306A093C4
:102A20005406B09355068091560690915706A09192
:102A30005806B09159060196A11DB11D8093560606
:102A400090935706A0935806B0935906BF91AF9143
:102A50009F918F913F912F910F900FBE0F901F90DC
:102A600018951F920F920FB60F9211242F933F9338
:102A70004F935F936F937F938F939F93AF93BF9386
:102A8000EF93FF93E0910A01F0910B010995FF91FB
:102A9000EF91BF91AF919F918F917F916F915F91D6
:102AA0004F913F912F910F900FBE0F901F9018954F
:102AB0001F920F920FB60F9211242F933F934F93B3
:102AC0005F936F937F938F939F93AF93BF93EF9396
:102AD000FF93E0910801F09109010995FF91EF91B1
:102AE000BF91AF919F918F917F916F915F914F9126
:102AF0003F912F910F900FBE0F901F901895DC0102
:102B0000E0E0615038F08D91E827F0E0E854FF4FA5
:102B1000E491F7CF8E2F0895CF92DF92EF92FF923C
:102B20000F931F93CF93DF931F92CDB7DEB76C0146
:102B3000E62E08E010E0FF24F39461E08F2D8E2153
:102B400009F460E0C60149830E942213FF0C015082
:102B5000110949810115110581F7411115C0F8943A
:102B6000D6011196ED91FC91129791818C918095EF
:102B7000892381831196ED91FC91129792818C911A
:102B800080958923828378940F90DF91CF911F9154
:102B90000F91FF90EF90DF90CF900895CF92DF924A
:102BA000EF92FF920F931F93CF93DF931F92CDB7B6
:102BB000DEB78C01F62E40E065E579830E948C1526
:102BC000CF2C7981D72E760188E0E80EF11CF60132
:102BD00061916F0140E0C8010E948C15CE14DF04A2
:102BE000B1F70F90DF91CF911F910F91FF90EF9070
:102BF000DF90CF900895FC0190810180F281E02D5B
:102C0000F8948181892B81832281892F80952823C3
:102C10002283A7E0B0E01197F1F72181822381831D
:102C2000A3E2B0E01197F1F780817894EFECF0E047
:102C30003197F1F7982381E009F480E00895AF928D
:102C4000BF92CF92DF92EF92FF920F931F93CF9399
:102C5000DF931F92CDB7DEB75C01E62ED72EFC01C5
:102C6000858581115DC0C5010E945110811105C08B
:102C7000F5011386158614866BC040E060EFC50130
:102C80000E948C1501E0F12CC12C11E0C5010E94BD
:102C9000FB15682FC50169830E94FB1569816130AE
:102CA00019F48130B9F433C04F2D50E068131BC0C4
:102CB000F5018385181730F4E40FF51F8381802315
:102CC00049F402C0181731F060E0193058F4F501EA
:102CD000148708C0F501EF0DF11D8381802B8383DC
:102CE00061E009C0C12EF501E40FF51F9381802F2B
:102CF000809589238383C5010E9422131F5F000FE3
:102D000011F4F39401E0F7E0FF1508F0BFCF1134A0
:102D100038F0F501C386C11015C081E0858712C067
:102D2000F50113861586148680E0D5011396EE2DE5
:102D3000FD2D9501255F3F4F9D919193A217B307FC
:102D4000D9F706C0F5018381882351F381E0EDCFE7
:102D50000F90DF91CF911F910F91FF90EF90DF9037
:102D6000CF90BF90AF9008950895CF92DF92EF92E9
:102D7000FF920F931F93CF93DF936C017A018B0126
:102D8000C0E0D0E0CE15DF0589F0D8016D918D014E
:102D9000D601ED91FC910190F081E02DC6010995DD
:102DA000892B11F47E0102C02196ECCFC701DF917F
:102DB000CF911F910F91FF90EF90DF90CF900895EA
:102DC000AF92BF92CF92DF92EF92FF920F931F9339
:102DD000CF93DF938B01BC01809102069091030693
:102DE0000E94CE1540E06EEB8091020690910306A2
:102DF0000E948C15E801680189E0C80ED11CA090E2
:102E00000206B090030688E0E82EF12C01E010E005
:102E1000C5010E94FB158111102B000F81E0E81AFB
:102E2000F108B1F71993CC15DD0549F78091020639
:102E3000909103060E94511091E0813009F090E0DA
:102E4000892FDF91CF911F910F91FF90EF90DF902D
:102E5000CF90BF90AF9008958F929F92AF92BF9204
:102E6000CF92DF92EF92FF920F931F93CF93DF9356
:102E7000B82E4B018A01A22E68E270E00E94F10A8E
:102E8000C82FD0E069E270E08B2D0E94F10ADC2FA0
:102E9000CC27C82B9E013770CB2CD12CC601880FB4
:102EA000991FAC014C505B4F6A01FA0180819181FE
:102EB000820F931FA801420F531F4130584098F0D2
:102EC00060E078E07B01E21AF30AA701B4010E94F6
:102ED000AA10A8014E195F09B4016E0D7F1DF601FD
:102EE0008081918102C0A801B4010E94AA10A110A2
:102EF0000EC0C00FD11F4D2F68E270E08B2D0E94D5
:102F0000E70A4C2F69E270E08B2D0E94E70ADF91FF
:102F1000CF911F910F91FF90EF90DF90CF90BF90D6
:102F2000AF909F908F9008959F92AF92BF92CF9253
:102F3000DF92EF92FF920F931F93CF93DF93982E20
:102F40008B015A01690164E270E00E94F10AE82EE7
:102F5000F12C65E270E0892D0E94F10AFE2CEE242E
:102F6000E82AE701C00FD11F9E013770E92CF12C30
:102F7000C701880F991FAC0144515B4F7A01FA01D8
:102F800080819181820F931FA9014C0D5D1D4130FD
:102F9000584090F000E018E0021B130BA801B501A7
:102FA0000E94DA10A601401B510BB501600F711F82
:102FB000F7018081918102C0A601B5010E94DA105B
:102FC000CC0DDD1D4D2F64E270E0892D0E94E70AD3
:102FD0004C2F65E270E0892DDF91CF911F910F9109
:102FE000FF90EF90DF90CF90BF90AF909F900C94A8
:102FF000E70AFF920F931F93CF93DF93F82EC0E061
:10300000D0E08F2D0E948B108C01892B21F08F2D09
:103010000E948B10EC01C017D10799F7CE01DF9108
:10302000CF911F910F91FF9008950F931F93CF930E
:10303000DF93CDB7DEB729970FB6F894DEBF0FBE8A
:10304000CDBFFC012081203161F18C01809102060D
:10305000909103060E945110882309F1BE016F5F11
:103060007F4FC8010E94E0168823C9F068E0CE01B6
:1030700001960E947F159985891311C08D818F3328
:1030800061F020F48F3159F489E00CC08F3519F0CC
:103090008F3739F004C08BE005C08AE003C080E0C0
:1030A00001C08CE029960FB6F894DEBF0FBECDBFED
:1030B000DF91CF911F910F910895CF93DF93CDB7FB
:1030C000DEB761970FB6F894DEBF0FBECDBFE091BB
:1030D0000206F0910306138615861486DF011B96FF
:1030E000CF0103961E92A817B907E1F7BE01665FEC
:1030F0007F4FCF010E941F16882341F067E0CE0169
:103100000A960E947F159989891729F060E070E07E
:103110008EEF92EC59C080910206909103060E94B6
:1031200051108823F1F1BE016F5F7F4FCE010A96E7
:103130000E94E0168823A9F168E0CE0101960E9462
:103140007F15998589132DC0698148E0649FB0017E
:1031500011248A81282F30E0322F2227330F330F9A
:10316000330F262B372B8A858031C9F4688570E0B0
:103170008F81AB01481B5109CA019695982F88276A
:10318000979587950E94E22360517109207F53E053
:10319000220F331F5A95E1F7620F731F04C0B90164
:1031A00002C060E874EE613854EE75070CF4AECFDF
:1031B000072E000C880B990B0E94842720E030E03A
:1031C00040E05CE30E94E32761960FB6F894DEBF0F
:1031D0000FBECDBFDF91CF9108950F931F93CF9373
:1031E000DF93EC0188819981009729F02A813B8146
:1031F0002617370788F48B016F5F7F4F0E94F125F8
:10320000009761F0998388831B830A832C813D8119
:10321000232B11F4FC01108281E001C080E0DF91DA
:10322000CF911F910F910895EF92FF920F931F93EB
:10323000CF93DF93FC01248135816115710511F471
:1032400080E019C041155105A9F07B01EC018A010C
:10325000020F131FB8010E94ED18882389F32881FB
:1032600039818C819D81B701820F931F0E94D626E0
:103270001D830C8381E0DF91CF911F910F91FF900F
:10328000EF900895CF93DF93EC01888199810097A7
:1032900011F00E945925198218821D821C821B82FE
:1032A0001A82DF91CF910895EF92FF920F931F93AF
:1032B000CF93DF93EC017B018A01BA010E94ED18E4
:1032C000811104C0CE010E94421907C01D830C83E6
:1032D000B701888199810E94D626CE01DF91CF91D6
:1032E0001F910F91FF90EF900895CF93DF93EC0122
:1032F000FB018617970761F0608171816115710587
:1033000029F0448155810E94541902C00E9442193B
:10331000CE01DF91CF910895FC01118210821382BA
:103320001282158214826115710551F0FB01019022
:103330000020E9F73197AF01461B570B0C94541945
:1033400008954F925F926F927F92EF92FF920F9348
:103350001F93CF93DF93CDB7DEB7A1970FB6F89445
:10336000DEBF0FBECDBF7C01FA01CB0119A2223016
:1033700008F42AE08E010F5D1F4F422E512C612C64
:10338000712CBF01A30192010E94A128F901CA0179
:10339000015011096A3014F4605D01C0695CD80104
:1033A0006C93232B242B252B61F7B801C7010E94B6
:1033B000CC08A1960FB6F894DEBF0FBECDBFDF914B
:1033C000CF911F910F91FF90EF907F906F905F9042
:1033D0004F9008950F931F93CF93DF93EC010E94BA
:1033E000CC088C016BEF71E0CE010E94CC08800FFD
:1033F000911FDF91CF911F910F910895DC01ED9105
:10340000FC910190F081E02D09940C94CC08CF93AD
:10341000DF93CDB7DEB7E2970FB6F894DEBF0FBEED
:10342000CDBF789484B5826084BD84B5816084BD4D
:1034300085B5826085BD85B5816085BD80916E0052
:10344000816080936E001092810080918100826083
:1034500080938100809181008160809381008091C0
:1034600080008160809380008091B10084608093AF
:10347000B1008091B00081608093B00080917A00AB
:10348000846080937A0080917A00826080937A00D1
:1034900080917A00816080937A0080917A008068C0
:1034A00080937A001092C1001092DD051092DE0523
:1034B0001092DF051092E00510929B0510929C057A
:1034C00010929D0510929E0560ED77E080E090E0FF
:1034D0000E94A1148CEF94E09093DC058093DB05AF
:1034E0000E94DB0D0E94DB1460939B0570939C058A
:1034F00080939D0590939E056CEE71E08091DB05B5
:103500009091DC050E94051A6AE070E080E090E08E
:103510000E94A11481E08093AF050E94DB0D6EEF45
:1035200071E08CEF94E00E94EA1969E272E08CEF9E
:1035300094E00E94EA19E0910206F09103061386D6
:1035400015861486DF011B9633961E92AE17BF07B1
:10355000E1F710920106CE0101961C0111E0B101C4
:1035600080910206909103060E941F16882309F499
:1035700045C067E0C1010E947F1598858913EFCF90
:103580008091FD05811125C080910206909103066E
:103590000E945110B10180910206909103060E9491
:1035A000CE1540E064EB80910206909103060E94E4
:1035B0008C1580910206909103060E94FB15082F3E
:1035C00080910206909103060E945110002309F495
:1035D000A8C70091FE05C1010E941518801718F4B4
:1035E0008091FE0503C0C1010E9415188093FE055D
:1035F000809101068F5F80930106B1CF60E087E084
:103600000E945A1461E085E00E945A1461E086E04D
:103610000E945A1461E082E00E945A1461E088E03E
:103620000E945A1461E089E00E945A1461E087E028
:103630000E942A1460E085E00E942A1461E086E07E
:103640000E942A1461E082E00E942A1460E088E06F
:103650000E942A1460E089E00E942A148091D40418
:1036600081112AC01092BC041092BB0488EE93E032
:10367000A0E0B0E08093BD049093BE04A093BF048B
:10368000B093C0048EE391E09093BA048093B904A0
:1036900082EE91E09093C8048093C7041092C9040D
:1036A0001092CA041092CB041092CC0484E0809350
:1036B000D10481E08093D40486E794E09093E805F8
:1036C0008093E7050E941A0F80E590E00E94BD01FB
:1036D00046E050E062E071E089E090E00E94DA109C
:1036E00082EE91E09A8389831B821C821D821E8256
:1036F000CE0103960E94B5010E94BC010091E7052E
:103700001091E805D80192961D921D921D921C926F
:103710009597F80116A217A210A611A69A961D92C7
:103720001D921D921C929D9780E69AEEA0E0B0E05B
:1037300086AB97ABA0AFB1AF80EA9FE0A0E0B0E06E
:1037400082AF93AFA4AFB5AFD801189686E0FD0164
:10375000C82E1192CA94E9F79801225F3F4F94E175
:10376000F90111929A95E9F7E2E0F1E001900D92EA
:103770008A95E1F76801F2E4CF0ED11CD6011C92C4
:103780000E943A272FEC37E040E050E00E94C32827
:10379000DC01CB010196A11DB11DF8018483958345
:1037A000A683B78380839183A283B383C8018D5B93
:1037B0009F4F9AAB89AB0E94A50A64E470E089A987
:1037C0009AA90E94BA0A81111AC062E472E08CEFD1
:1037D00094E00E94EA1982EE91E09A8389838091B5
:1037E000120690911306A0911406B09115068B83D2
:1037F0009C83AD83BE83C1010E949C0F81C10E9446
:10380000DB144B015C01E12CF12C18AA58EE452E7B
:1038100053E0552E612C712CD6018C91833009F424
:1038200002C181111FC0F80184819581A681B781F1
:103830000196A11DB11D84839583A683B7830E9441
:10384000DB14681979098A099B09A30192010E9476
:10385000A128A90161E0C8010E94BE0781E0D6014C
:103860008C93C3C08430F9F4F80184819581A681DA
:10387000B7810196A11DB11D84839583A683B7836B
:103880000E94DB14681979098A099B09A301920136
:103890000E94A128A90163E0C8010E94BE07E2E0DE
:1038A000D601EC93A2C0813059F5D801DA964D913A
:1038B0005D916D917C91DD979101C8010E94F805A1
:1038C00088AB823009F091C089819A81AB81BC813B
:1038D000F80184839583A683B7830E94DB1468195B
:1038E00079098A099B09A30192010E94A128A901D3
:1038F00063E0C8010E94BE07E8A9D601EC937BC033
:10390000823009F072C0D801DA964D915D916D91C7
:103910007C91DD979101C8010E94F80588AB853044
:1039200009F05DC043E0E42EF601E082F80182A1D7
:1039300093A1A4A1B5A1892B8A2B8B2B41F484E8F8
:1039400093E0A0E0B0E082A393A3A4A3B5A3F80101
:1039500086A197A1A0A5B1A5892B8A2B8B2B61F4F9
:1039600082A193A1A4A1B5A1B695A7959795879596
:1039700086A397A3A0A7B1A7F80182A593A5A4A5A4
:10398000B5A5892B8A2B8B2BA9F482A193A1A4A185
:10399000B5A1AC01BD0123E0769567955795479594
:1039A0002A95D1F7841B950BA60BB70B82A793A77B
:1039B000A4A7B5A7F80186A197A1A0A5B1A586A740
:1039C00097A7A0ABB1AB82A593A5A4A5B5A582ABE3
:1039D00093ABA4ABB5ABEE24E394F12C0CC0F8A9E7
:1039E000F63019F4D6011C9206C0B8A9BF3F19F4ED
:1039F000F601108218AAF1E0EF16F10409F40CCFD9
:103A00000E94DB14DC01CB0188199909AA09BB09C2
:103A1000F80126A937A940AD51AD281739074A0743
:103A20005B0708F0F9CE89A99AA90E94A50AF801B6
:103A300084819581A681B7810196A11DB11D8483E2
:103A40009583A683B7830E94DB14F801FE966083FA
:103A5000718382839383F1E0EF16F10409F04DC086
:103A600080E590E00E94BD016091E7057091E80556
:103A7000625F7F4FC1010E949913CE0103960E949D
:103A8000B5016091E7057091E8056A5E7F4FC1015D
:103A90000E94991344E050E0BE016D5F7F4F81E0CA
:103AA00090E00E94DA106091E7057091E8056E5E83
:103AB0007F4FC1010E94991344E050E0BE016D5F49
:103AC0007F4F85E090E00E94DA100E94BC01609177
:103AD000E7057091E805625E7F4FC1010E9499136E
:103AE0008B819C81AD81BE818093E3059093E40539
:103AF000A093E505B093E60503C0EF2809F465CE71
:103B000066E772E08CEF94E00E94051A88E090E08E
:103B10000E94E10E64EA72E08CEF94E00E94051AC4
:103B200087E090E00E94E10E69EB72E08CEF94E098
:103B30000E94EA196FEE72E08CEF94E00E94EA199D
:103B400087EF95E00E940B0D60E473E08CEF94E04A
:103B50000E94051AC1010E94B30E6CEF74E0C1010E
:103B60000E945113C1010E94B30E0E8110E064E562
:103B700073E08CEF94E00E94051AC8010E947F0E4A
:103B800067E573E08CEF94E00E94051A6AE573E044
:103B90008CEF94E00E94051AC1010E94B30E6CEFF5
:103BA00074E0C1010E94511365EF73E08CEF94E063
:103BB0000E94051A84EE9CE00E947F0E6FE673E07F
:103BC0008CEF94E00E94EA195EE1E52EF12C61E0B1
:103BD00088E00E942A1464E170E080E090E00E9496
:103BE000A11460E088E00E942A1464E170E080E0A3
:103BF00090E00E94A11481E0E81AF10841F768EE14
:103C000073E080E090E00E94A114E12CF12CE0161A
:103C1000F106C4F461E088E00E942A146CE271E0CD
:103C200080E090E00E94A11460E088E00E942A14E5
:103C30006CE271E080E090E00E94A1149FEFE91A2D
:103C4000F90AE5CF68EE73E080E090E00E94A114ED
:103C500048EE842E43E0942EA12CB12C0E94DB145C
:103C6000672B682B692B41F40E94DB1462307105CD
:103C70008105910508F408C10E94DB146093E804F3
:103C80007093E9048093EA049093EB040091E404B8
:103C90001091E5042091E6043091E7046017710764
:103CA0008207930740F46093E4047093E5048093E3
:103CB000E6049093E7040091E4041091E504209158
:103CC000E6043091E7046B017C01C01AD10AE20AD4
:103CD000F30A970186010A3F11052105310508F411
:103CE000D3C06093E4047093E5048093E60490935A
:103CF000E70484EF91E0A0E0B0E08093A705909303
:103D0000A805A093A905B093AA051092AB0510923F
:103D1000AC051092AD051092AE0580919F05909173
:103D2000A005A091A105B091A2058093A305909351
:103D3000A405A093A505B093A6050E94DB1460938B
:103D40009F057093A0058093A1059093A2050E9402
:103D5000DB1460939B0570939C0580939D05909365
:103D60009E050E94DB146B017C0161E773E080918A
:103D7000DB059091DC050E94051A2AE041E050E045
:103D800060E070E08091DB059091DC050E94A11954
:103D900068E773E08091DB059091DC050E94051ACD
:103DA0002AE0B701A6018091DB059091DC050E9415
:103DB000A1196AE773E08091DB059091DC050E9410
:103DC000051A80919F059091A005A091A105B09141
:103DD000A205B701A601481B590B6A0B7B0B2AE011
:103DE0008091DB059091DC050E94A1196AE773E0E0
:103DF0008091DB059091DC050E94051A40919F059A
:103E00005091A0056091A1057091A2058091A30534
:103E10009091A405A091A505B091A605481B590B4A
:103E20006A0B7B0B2AE08091DB059091DC050E94F8
:103E3000A1196CE773E08091DB059091DC050E948D
:103E4000051A0E94DB14AB01BC012AE08091DB055E
:103E50009091DC050E94A1196EE773E08091DB056B
:103E60009091DC050E94EA1962E070E080E090E049
:103E70000E94A1140E94DB1460939F057093A0051B
:103E80008093A1059093A20587EF95E00E941F0CF7
:103E90000EE614E0D12C30E8E32E31E0F32E1C8244
:103EA0001B828D829E82AF82B886FA82E982DD868D
:103EB000D8012D913D918D018091FB059091FC05DC
:103EC0002817390739F5C1010E94170C873111F005
:103ED0008C3101F5C1010E94AC01892BD9F08B8195
:103EE0009C819E8B8D8B8D819E81AF81B8858F8BC0
:103EF000988FA98FBA8F89859A85AB85BC858B8F62
:103F00009C8FAD8FBE8F80E891E09C8B8B8B8D85D5
:103F10008F8F0FC0D394B4E0DB12C1CF1E8A1D8AED
:103F20008F8A988EA98EBA8E80E891E09C8B8B8BBD
:103F3000DF8E8F8D8430A9F461E088E00E942A141E
:103F400064E670E080E090E00E94A11460E088E008
:103F50000E942A1464E670E080E090E00E94A114C0
:103F6000DDC265E873E08CEF94E00E94EA1960E03E
:103F700088E00E942A14CE0143960E9447018823BC
:103F800009F4C6C2EFE6F0E08491EBEAF0E0E490D9
:103F9000E7E9F0E0F490FF20A1F081110E94011404
:103FA000EF2DF0E0EE0FFF1FEA57FF4FA591B49100
:103FB0008C91E82231E020E009F430E0832F922F49
:103FC00002C080E090E0282F21702093DD04209132
:103FD000DC04892B79F0222339F061E070E080E085
:103FE00090E00E94A1140FC081E08093DC048093D4
:103FF000E30407C0222389F31092DC041092E30447
:1040000081E08093DE046BE973E08CEF94E00E9422
:10401000051A80910206909103060E94511040E01B
:104020006CEC80910206909103060E948C154091E1
:10403000FD0564E480910206909103060E948C15B0
:104040008091FF058823A9F0E091FE05E950E33057
:1040500040F4F0E0EE0FFF1FE056FE4F60817181EB
:1040600002C06EEE72E0072E000C880B990B0E94C6
:10407000A11467EB73E08CEF94E00E94EA196CEBFB
:1040800073E08CEF94E00E94051A0E945D186B01AA
:104090007C019B01AC010E94BF24882319F06AEDCA
:1040A00073E01AC026013701E89477F82FEF3FEF4D
:1040B0004FE75FE7C301B2010E94BF24811111C025
:1040C0002FEF3FEF4FE75FE7C301B2010E947D276B
:1040D00018163CF46EED73E08CEF94E00E94CC086F
:1040E0007EC02FEF3FEF4FE75FE4C701B6010E94AC
:1040F000BA2418161CF462EE73E0EECF2FEF3FEFF8
:104100004FE75FECC701B6010E947D2787FDF3CF23
:1041100020E030E0A901C701B6010E947D2787FF9A
:1041200009C06DE28CEF94E00E94FE19F7FAF0945A
:10413000F7F8F0942AE037ED43EA5BE3C701B601F4
:104140000E9418242B013C010E948B246B017C01EE
:104150000E9482279B01AC01C301B2010E94172477
:104160002B013C012AE0B701A6018CEF94E00E94EC
:10417000A11965EB73E08CEF94E00E94CC0820E07D
:1041800030E040E251E4C301B2010E94E3276B0139
:104190007C010E948B242B01612C712C2AE0B3013D
:1041A000A2018CEF94E00E94A119C301B2010E9408
:1041B00082279B01AC01C701B6010E94172420E0B1
:1041C00030E040E251E40E94E3270E948B24AB01DF
:1041D00060E070E02AE08CEF94E00E94A1190E9458
:1041E0005D186093DF047093E0048093E104909382
:1041F000E2048091DE04882309F4E7C08091E3049F
:10420000882371F061E088E00E942A1481E00E9416
:10421000030E64E670E080E090E00E94A1140DC0FF
:1042200080E00E94030E64E670E080E090E00E946F
:10423000A11460E088E00E942A141092DE04C5C038
:10424000CE0143960E949201182F1CA61DA61EA601
:104250001FA665E573E08CEF94E00E94051A612FBC
:104260008CEF94E00E94FE1966EE73E08CEF94E010
:104270000E94051A193609F444C10CF0AEC011367B
:1042800009F041C16091DF047091E0048091E10484
:104290009091E2040E9484246B017C016DEF71E037
:1042A000CE0186960E948C1919A218A21BA21AA2EE
:1042B0001DA21CA24AE0B101C6010E944827F101DB
:1042C00001900020E9F73197AF0142195309B1017C
:1042D000CE0180960E9454198EA19FA1009709F0EB
:1042E00083C088A199A19FA38EA38AA19BA199A70E
:1042F00088A78CA19DA19BA78AA719A218A21BA27F
:104300001AA21DA21CA288A199A10E9459258AA5C2
:104310009BA5019709F47DC08AA59BA5029709F486
:1043200093C01A8219821C821B821E821D82BE01CA
:104330006A5D7F4FC1010E947519ED80FE80FFEF1D
:10434000EF1AFF0AB701C1010E94ED18882309F492
:10435000EEC029813A818D819E816CEF71E0820FE0
:10436000931F0E94D626FE82ED82B101CE01869671
:104370000E94751989819A810E945925EAA4FBA49B
:10438000E114F10409F07BC01CA68EA19FA10E943C
:104390005925E091F705F091F8050280F381E02DB1
:1043A00044E050E0BE01645D7F4F87EF95E00995E2
:1043B0006EEE73E08CEF94E00E94051ABE01645D1E
:1043C0007F4F8CEF94E00E94EA19CE0143960E9441
:1043D000AC01892B09F034CFCECD133709F465C079
:1043E000143709F478C08FC068A179A161157105EF
:1043F00009F49AC048A559A52CA13DA1421753071D
:1044000008F492C00E94D6268CA19DA19BA78AA7E2
:1044100078CF6CEE73E0C1010E948C194AA55BA5B0
:104420006EA17FA1C1010E941419811103C0C101B5
:104430000E944219B101CE0186960E9475198981A8
:104440009A810E94592568CF6CEE73E0C1010E94E9
:104450008C194AA55BA56EA17FA1C1010E94141908
:10446000811103C0C1010E944219B101CE0186969B
:104470000E94751989819A810E94592552CF83E043
:10448000E816F10418F083E0E82EF12C6EA17FA16C
:10449000A701CE018C960E94DD26ECE2F0E0EC0F45
:1044A000FD1FEE0DFF1D108270CF8091E304882365
:1044B00049F067EF73E087EF95E00E94CC086CEF5E
:1044C00073E07FCF6CE074E087EF95E00E94CC084A
:1044D00061E174E076CF8091E304882329F01092A3
:1044E000E30462E274E005C081E08093E30469E3E1
:1044F00074E08CEF94E00E94EA1981E08093DE047E
:1045000064CF61E001C060E089E00E942A145DCFC1
:104510006FE474E08CEF94E00E94EA190E94F212BA
:104520009DCB1093FD0555C80E945925DACEC101D7
:104530000E9442191ACF82EE91E090931806809360
:1045400017061092190610921A0610921B06109266
:104550001C061092FF041092FE0448EE53E060E047
:1045600070E040930005509301056093020570933D
:10457000030520EB31E03093FD042093FC0425EC8F
:1045800030E0309309052093080524EC30E03093A7
:104590000B0520930A0520EC30E030930D052093A5
:1045A0000C0521EC30E030930F0520930E0522EC32
:1045B00030E0309311052093100526EC30E0309365
:1045C00013052093120510921505109216051092EE
:1045D00017051092180510929F051092A0051092D1
:1045E000A1051092A2051092A3051092A4051092A5
:1045F000A5051092A6051092A7051092A805109285
:10460000A9051092AA051092AB051092AC05109264
:10461000AD051092AE0590931E0680931D06109274
:104620001F061092200610922106109222069093E7
:1046300024068093230610922506109226061092D7
:1046400027061092280690932A0680932906109236
:104650002B0610922C0610922D0610922E06909387
:10466000300680932F061092310610923206109277
:104670003306109234069093E2058093E105109280
:10468000E3051092E4051092E5051092E60590937B
:10469000EA058093E9051092EB051092EC05109263
:1046A000ED051092EE059093360680933506109234
:1046B0003706109238061092390610923A069093F7
:1046C0004A068093490610924B0610924C061092AF
:1046D0004D0610924E06909311068093100680ECC2
:1046E0008093120688EA8093130681E08093140673
:1046F00083E08093150660E00E945A14E7EAF0E038
:10470000E491E0933B06E3E9F0E0E491F0E0EE0FA2
:10471000FF1FEA57FF4F8591949190933D06809338
:104720003C06109246061092480610924706E6E4B0
:10473000F6E0129286E0EE33F807D9F788E390E1CD
:1047400090930F0680930E068BE396E090930306FA
:1047500080930206109201061092FD0589E0809375
:10476000FE0581E08093FF05809300061092FA0514
:104770001092F90580ED91E09093F8058093F7058C
:1047800084EE9CE09093FC058093FB0582ED91E81C
:10479000AAE5B1E08093EF059093F005A093F105B1
:1047A000B093F20582E08093F30589E091E0909365
:1047B000F5058093F40587E08093F60561E082E0DB
:1047C0000C945A1497FB072E16F4009407D077FD2B
:1047D00009D00E94FD2307FC05D03EF490958195F9
:1047E0009F4F0895709561957F4F0895692796278B
:1047F00069277827872778270895AA1BBB1B51E1D3
:1048000007C0AA1FBB1FA617B70710F0A61BB70B40
:10481000881F991F5A95A9F780959095BC01CD01E5
:104820000895EE0FFF1F0590F491E02D0994505864
:10483000BB27AA270E942F240C9467280E9459287E
:1048400038F00E94602820F039F49F3F19F426F4D4
:104850000C9456280EF4E095E7FB0C945028E92FB1
:104860000E94782858F3BA176207730784079507E0
:1048700020F079F4A6F50C949A280EF4E0950B2E0E
:10488000BA2FA02D0B01B90190010C01CA01A001A2
:104890001124FF27591B99F0593F50F4503E68F1FD
:1048A0001A16F040A22F232F342F4427585FF3CF3E
:1048B000469537952795A795F0405395C9F77EF40F
:1048C0001F16BA0B620B730B840BBAF09150A1F058
:1048D000FF0FBB1F661F771F881FC2F70EC0BA0FDE
:1048E000621F731F841F48F4879577956795B79566
:1048F000F7959E3F08F0B0CF9395880F08F0992761
:10490000EE0F9795879508950E948B246894B111B6
:104910000C949B2808950E94802888F09F5798F057
:10492000B92F9927B751B0F0E1F0660F771F881FB4
:10493000991F1AF0BA95C9F714C0B13091F00E94CE
:104940009A28B1E008950C949A28672F782F882729
:10495000B85F39F0B93FCCF3869577956795B395F5
:10496000D9F73EF490958095709561957F4F8F4F64
:104970009F4F08950E94BF2708F48FEF08950E946B
:10498000BF27880B990B0895CF93DF938230910551
:1049900010F482E090E0E0915C06F0915D0620E08A
:1049A00030E0C0E0D0E0309711F1408151814817EC
:1049B0005907C0F04817590761F482819381209705
:1049C00019F09B838A832BC090935D0680935C06CD
:1049D00026C02115310519F04217530718F49A0122
:1049E000BE01DF01EF010280F381E02DDCCF211554
:1049F000310509F1281B390B2430310590F412964A
:104A00008D919C9113976115710521F0FB019383A2
:104A1000828304C090935D0680935C06FD0132960C
:104A200044C0FD01E20FF31F81939193225031099D
:104A30002D933C933AC020915A0630915B06232B6C
:104A400041F420910E0130910F0130935B062093C9
:104A50005A0620910C0130910D012115310541F4C8
:104A60002DB73EB74091100150911101241B350B19
:104A7000E0915A06F0915B06E217F307A0F42E1BB3
:104A80003F0B2817390778F0AC014E5F5F4F2417B2
:104A9000350748F04E0F5F1F50935B0640935A0650
:104AA0008193919302C0E0E0F0E0CF01DF91CF91DC
:104AB00008950F931F93CF93DF93009709F48CC051
:104AC000FC0132971382128200915C0610915D0600
:104AD0000115110581F420813181820F931F2091EE
:104AE0005A0630915B062817390779F5F0935B0673
:104AF000E0935A0671C0D80140E050E0AE17BF07FE
:104B000050F412962D913C911397AD01211531056A
:104B100009F1D901F3CF9D01DA013383228360814A
:104B20007181860F971F8217930769F4EC01288122
:104B30003981260F371F2E5F3F4F318320838A81B3
:104B40009B8193838283452B29F4F0935D06E09348
:104B50005C0642C01396FC93EE931297ED014991C7
:104B600059919E01240F351FE217F30771F48081DC
:104B70009181840F951F029611969C938E9382814A
:104B8000938113969C938E931297E0E0F0E0D80106
:104B900012968D919C911397009719F0F8018C0152
:104BA000F6CF8D919C9198012E5F3F4F820F931FFE
:104BB00020915A0630915B062817390769F430971F
:104BC00029F410925D0610925C0602C013821282D4
:104BD00010935B0600935A06DF91CF911F910F91BE
:104BE0000895A0E0B0E0E7EFF5E20C94F928EC01BD
:104BF000009721F4CB010E94C424B8C0FC01E60F49
:104C0000F71F9C0122503109E217F30708F4ACC0EA
:104C1000D9010D911C91119706171707B0F00530B7
:104C2000110508F49FC0C80104978617970708F478
:104C300099C002501109061B170B019311936D9334
:104C40007C93CF010E9459258DC05B01A01AB10A47
:104C50004C01800E911EA0915C06B0915D0640E073
:104C600050E0E12CF12C109709F44AC0A815B905C1
:104C7000D1F56D907C901197630182E0C80ED11C34
:104C8000CA14DB0480F1A3014A195B096A0182E0BE
:104C9000C80ED11C1296BC9012971396AC91B5E039
:104CA000CB16D10440F0B282A38351834083D90153
:104CB0006D937C930AC00E5F1F4FC301800F911F3D
:104CC000F90191838083EB2DFA2FE114F10431F087
:104CD000D7011396FC93EE93129744C0F0935D06B0
:104CE000E0935C063FC08D919C911197481759073E
:104CF00008F4AC017D0112960D90BC91A02DB3CFAC
:104D000080915A0690915B0688159905E1F4461743
:104D10005707C8F480910C0190910D01009741F460
:104D20008DB79EB74091100150911101841B950BD6
:104D3000E817F907C8F4F0935B06E0935A06F90107
:104D4000718360830FC0CB010E94C4247C01009753
:104D500059F0A801BE010E94CD26CE010E9459251E
:104D6000C70104C0CE0102C080E090E0CDB7DEB73D
:104D7000EEE00C94152981E090E0F8940C943B2926
:104D8000FB01DC0104C08D910190801921F4415098
:104D90005040C8F7881B990B0895FB01DC0102C045
:104DA00001900D9241505040D8F70895FB01DC016D
:104DB00001900D920020E1F70895FB01DC014150C4
:104DC000504048F001900D920020C9F701C01D929B
:104DD00041505040E0F708958F929F92AF92BF925A
:104DE000CF92DF92EF92FF92CF93DF93EC01688135
:104DF00079818A819B81611571058105910521F475
:104E000064E279ED8BE597E02DE133EF41E050E08E
:104E10000E94C32849015A019B01AC01A7EAB1E4F1
:104E20000E94E2286B017C01ACEEB4EFA501940175
:104E30000E94F028DC01CB018C0D9D1DAE1DBF1D15
:104E4000B7FF03C00197A109B04888839983AA835B
:104E5000BB83BC01CD019F77DF91CF91FF90EF9095
:104E6000DF90CF90BF90AF909F908F9008950E9459
:104E7000EC26089582E191E00E94EC26089560936B
:104E800012017093130180931401909315010895FA
:104E9000BB274A3031F4992322F4BDE290958195E5
:104EA0009F4F0C945427BB27FB015527AA27880F37
:104EB000991FAA1FA41710F0A41B83955051B9F78E
:104EC000A05DAA3308F0A95DA193009779F7B1110D
:104ED000B1931192CB010C946D27DC01FC01672F7B
:104EE00071917723E1F7329704C07C916D937083C1
:104EF0006291AE17BF07C8F308950E94BF2708F458
:104F000081E00895E89409C097FB3EF49095809560
:104F1000709561957F4F8F4F9F4F9923A9F0F92F7F
:104F200096E9BB279395F695879577956795B795FD
:104F3000F111F8CFFAF4BB0F11F460FF1BC06F5FE3
:104F40007F4F8F4F9F4F16C0882311F096E911C0F5
:104F5000772321F09EE8872F762F05C0662371F016
:104F600096E8862F70E060E02AF09A95660F771F2A
:104F7000881FDAF7880F9695879597F90895990F06
:104F80000008550FAA0BE0E8FEEF16161706E80713
:104F9000F907C0F012161306E407F50798F0621B34
:104FA000730B840B950B39F40A2661F0232B242B09
:104FB000252B21F408950A2609F4A140A6958FEF28
:104FC000811D811D08950E94F6270C9467280E9478
:104FD000592838F00E94602820F0952311F00C9495
:104FE00050280C94562811240C949B280E94782851
:104FF00070F3959FC1F3950F50E0551F629FF0012C
:10500000729FBB27F00DB11D639FAA27F00DB11D44
:10501000AA1F649F6627B00DA11D661F829F2227CD
:10502000B00DA11D621F739FB00DA11D621F839F54
:10503000A00D611D221F749F3327A00D611D231F2A
:10504000849F600D211D822F762F6A2F11249F5778
:1050500050409AF0F1F088234AF0EE0FFF1FBB1F7B
:10506000661F771F881F91505040A9F79E3F51053A
:1050700080F00C9450280C949B285F3FE4F3983EFA
:10508000D4F3869577956795B795F795E7959F5FE4
:10509000C1F7FE2B880F911D9695879597F9089576
:1050A00097F99F6780E870E060E008959FEF80ECDB
:1050B000089500240A94161617061806090608957E
:1050C00000240A9412161306140605060895092EE4
:1050D0000394000C11F4882352F0BB0F40F4BF2B53
:1050E00011F460FF04C06F5F7F4F8F4F9F4F089593
:1050F00057FD9058440F551F59F05F3F71F0479589
:10510000880F97FB991F61F09F3F79F0879508956D
:10511000121613061406551FF2CF4695F1DF08C08C
:10512000161617061806991FF1CF869571056105A9
:1051300008940895E894BB2766277727CB0197F951
:105140000895A1E21A2EAA1BBB1BFD010DC0AA1FC8
:10515000BB1FEE1FFF1FA217B307E407F50720F0E0
:10516000A21BB30BE40BF50B661F771F881F991F5B
:105170001A9469F760957095809590959B01AC01A4
:10518000BD01CF010895052E97FB1EF400940E94E7
:10519000DA2857FD07D00E94A12807FC03D04EF45F
:1051A0000C94DA2850954095309521953F4F4F4FFC
:1051B0005F4F089590958095709561957F4F8F4FC3
:1051C0009F4F08950E942C29A59F900DB49F900D8C
:1051D000A49F800D911D11240895B7FF0C94E2281F
:1051E0000E94E228821B930B08952F923F924F92C8
:1051F0005F926F927F928F929F92AF92BF92CF9267
:10520000DF92EF92FF920F931F93CF93DF93CDB76F
:10521000DEB7CA1BDB0B0FB6F894DEBF0FBECDBFE7
:1052200009942A88398848885F846E847D848C84B8
:105230009B84AA84B984C884DF80EE80FD800C81C1
:105240001B81AA81B981CE0FD11D0FB6F894DEBFA4
:105250000FBECDBFED010895A29FB001B39FC00165
:10526000A39F700D811D1124911DB29F700D811D92
:0A5270001124911D0895F894FFCF5A
:10527A0000C0406C8F36848A2113211300005E0619
:10528A008000010000000000000097139713971395
:10529A0097139713971397139713971397139713B4
:1052AA009713971397139713971300000000E208B8
:1052BA00FA09F80878094009E108BA0AA50AD70BD9
:1052CA00320A170BA109590910090009FC08600BD9
:1052DA0000000000971397139713971397139713C8
:1052EA0097139713971397139713971300000000B8
:1052FA000D010602AC0192016B010C017A028505CF
:10530A008E01C001470138092F012D012D09230102
:10531A005E00BC00770101005E0000000000000092
:10532A008912B516521230124412D012000000002F
:10533A009713B51697139713971397130000000046
:10534A0017099A0C0B0D000000009713B516000000
:10535A0000005113000000009713E40C564D44500E
:10536A00565F317C315F564D4450560D0A00446FEA
:10537A006D6F746963612070726F6A6563742C2043
:10538A0041726475696E6F20446F6D6F74696361F1
:10539A00205365727665720A0044616C6C617320F1
:1053AA0054656D70657261747572652062656769AE
:1053BA006E00436F756C64206E6F74206F62746147
:1053CA00696E2049502D6164647265737320667238
:1053DA006F6D2044484350202D3E20646F206E6F2D
:1053EA007468696E67004C45442028666F722063B2
:1053FA006F6E6E6563742D737461746520616E647B
:10540A002070696E2D737461746529206F6E207027
:10541A00696E2000496E70757420737769746368C9
:10542A00206F6E2070696E200045746865726E6523
:10543A0074626F61726420636F6E6E656374656413
:10544A00202870696E732031302C2031312C2031A4
:10545A00322C20313320616E642053504929004395
:10546A006F6E6E65637420746F20444843502073D6
:10547A006F7572636520696E206C6F63616C206E54
:10548A006574776F726B2028626C696E6B696E67E0
:10549A00206C6564202D3E2077616974696E6720EF
:1054AA00666F7220636F6E6E656374696F6E290032
:1054BA004C697374656E696E6720616464726573A2
:1054CA00733A2000205B005D200020205B54657346
:1054DA0074636173653A2074656C6E657420005D4F
:1054EA0000564D4450455F003A323A007C005F5600
:1054FA004D445045004170706C69636174696F6E08
:10550A0020636F6E6E656374656400205265717501
:10551A00657374696E672074656D70657261747500
:10552A007265732E2E2E00444F4E450054656D70E1
:10553A006572617475726520666F7220446576695A
:10554A00636520312069733A20006E616E00696ECE
:10555A0066006F7666005D202D3E200030005365A0
:10556A006E736F723A2000204F4E0A0050696E2007
:10557A007374617465206973204F4E004F46460A62
:10558A000050696E207374617465206973204F46F8
:10559A0046005365742070696E20737461746520C7
:1055AA00746F20224F464622005365742070696E3C
:1055BA0020737461746520746F20224F4E2200415B
:1055CA0070706C69636174696F6E206469736F6E61
:0E55DA006E65637465640057495A6E6574000F
:107E0000112484B714BE81FFF0D085E080938100F7
:107E100082E08093C00088E18093C10086E0809377
:107E2000C20080E18093C4008EE0C9D0259A86E02C
:107E300020E33CEF91E0309385002093840096BBD3
:107E4000B09BFECF1D9AA8958150A9F7CC24DD24C4
:107E500088248394B5E0AB2EA1E19A2EF3E0BF2EE7
:107E6000A2D0813461F49FD0082FAFD0023811F036
:107E7000013811F484E001C083E08DD089C08234E0
:107E800011F484E103C0853419F485E0A6D080C0E4
:107E9000853579F488D0E82EFF2485D0082F10E0AE
:107EA000102F00270E291F29000F111F8ED06801E7
:107EB0006FC0863521F484E090D080E0DECF843638
:107EC00009F040C070D06FD0082F6DD080E0C81688
:107ED00080E7D80618F4F601B7BEE895C0E0D1E017
:107EE00062D089930C17E1F7F0E0CF16F0E7DF06D8
:107EF00018F0F601B7BEE89568D007B600FCFDCFD4
:107F0000A601A0E0B1E02C9130E011968C91119780
:107F100090E0982F8827822B932B1296FA010C0160
:107F200087BEE89511244E5F5F4FF1E0A038BF0790
:107F300051F7F601A7BEE89507B600FCFDCF97BE46
:107F4000E89526C08437B1F42ED02DD0F82E2BD052
:107F50003CD0F601EF2C8F010F5F1F4F84911BD097
:107F6000EA94F801C1F70894C11CD11CFA94CF0C13
:107F7000D11C0EC0853739F428D08EE10CD085E9AC
:107F80000AD08FE07ACF813511F488E018D01DD067
:107F900080E101D065CF982F8091C00085FFFCCF94
:107FA0009093C60008958091C00087FFFCCF809118
:107FB000C00084FD01C0A8958091C6000895E0E648
:107FC000F0E098E1908380830895EDDF803219F02E
:107FD00088E0F5DFFFCF84E1DECF1F93182FE3DFCA
:107FE0001150E9F7F2DF1F91089580E0E8DFEE27F6
:047FF000FF270994CA
:027FFE00040479
:0400000300007E007B
:00000001FF